:020000040800F2
:1000000048530020C501000819370008C92400081A
:10001000153700088D030008953F00080000000018
:10002000000000000000000000000000B1380008DF
:100030001D0600080000000021370008613D00088F
:10004000DF010008DF010008DF010008DF01000810
:10005000DF010008DF01000821060008290600086A
:10006000310600083906000841060008DF010008D3
:10007000DF010008DF010008DF010008DF010008E0
:10008000DF010008DF010008DF010008DF010008D0
:10009000DF010008DF010008DF0100084906000851
:1000A000DF010008DF010008DF010008DF010008B0
:1000B000DF010008DF010008DF010008DF010008A0
:1000C000DF010008DF010008DF010008DF01000890
:1000D000DF010008DF010008893F0008DF01000898
:1000E000DF010008DF010008DF010008DF01000870
:1000F000DF010008DF010008DF010008DF01000860
:10010000DF010008DF010008DF010008DF0100084F
:10011000DF010008DF010008DF010008DF0100083F
:10012000DF010008DF010008DF010008DF0100082F
:10013000DF010008DF010008DF010008DF0100081F
:10014000DF010008DF010008DF010008DF0100080F
:10015000DF010008DF010008DF010008DF010008FF
:10016000DF010008DF010008DF010008DF010008EF
:10017000DF010008DF010008DF01000800000000C7
:10018000DF010008DF010008DF010008DF010008CF
:10019000DF010008DF010008DF010008DF010008BF
:1001A000DF010008DF010008DF010008DFF810D0E0
:1001B00000F0BCF800F08AF8004800479D5D000898
:1001C000485300200648804706480047FEE7FEE700
:1001D000FEE7FEE7FEE7FEE7FEE7FEE7FEE7FEE7F7
:1001E000793D0008AD0100082DE9F05F05460020CB
:1001F00092469B4688460646814640241BE0284698
:1002000041464746224600F080F853465A46C01AF7
:10021000914110D311461846224600F067F82D1A76
:1002200067EB01084F4622460120002100F05EF8EE
:1002300017EB00094E41201EA4F10104DFDC484603
:1002400031462A464346BDE8F09F40EA01039B073A
:1002500003D009E008C9121F08C0042AFAD203E03B
:1002600011F8013B00F8013B521EF9D27047D2B29F
:1002700001E000F8012B491EFBD270470022F6E78F
:1002800010B513460A4604461946FFF7F0FF20460C
:1002900010BD10B5044604E00B7800F8013B03B133
:1002A000491C521EF8D2204610BD421C10F8011BFA
:1002B0000029FBD1801A7047034611F8012B00F882
:1002C000012B002AF9D118467047000070B5054C83
:1002D000054D04E02046016808448047241DAC42D7
:1002E000F8D170BDC4A50008C8A50008202A04DB09
:1002F000203A00FA02F1002070479140C2F1200339
:1003000020FA03F3194390407047202A04DB203A77
:1003100021FA02F00021704721FA02F3D040C2F125
:10032000200291400843194670470000064C074DD3
:1003300006E0E06840F0010394E8070098471034B5
:10034000AC42F6D3FFF736FFA4A50008C4A5000809
:1003500030B58C1810F8012B12F00F0301D110F8F2
:10036000013B120906D110F8012B03E010F8015BE4
:1003700001F8015B5B1EF9D101E001F8013B521E5F
:10038000FBD1A142E6D3002030BD0000FEE7000013
:100390002DE9F04F83B00E46044640F200090520D7
:1003A00004210192C4F2020900F0DCF80A20802145
:1003B00003F060FB6EB340F2106A013C4FF064083A
:1003C000C2F2000A0DF10B070DF10A0514F801BF86
:1003D00048461021002200F009FB12208DF80B0086
:1003E000504639462A460123CDF8008001F044FAF0
:1003F000504639462A4601238DF80BB0CDF80080CF
:1004000001F03AFA48461021012200F0EFFA013ECD
:10041000DCD148461021002200F0E8FA40F21066D4
:100420000220C2F200060DF10B070DF10A048DF84F
:100430000B004FF064083046394622460123CDF8C0
:10044000008001F019FA03208DF80B000DF10B016B
:100450000DF10A0230460123CDF8008001F00CFABC
:1004600048461021012200F0C1FAFF254FF08A0B07
:1004700048461021002200F0B9FA3046394622469B
:1004800001238DF80BB0CDF8008001F0F5F90020C4
:100490008DF80B003046394622460123CDF8008006
:1004A00001F0EAF99DF80AA048461021012200F067
:1004B0009DFA013D280602D01AF00400D8D0484623
:1004C000102100224FF0000800F090FA40F2106472
:1004D000C420C2F200048DF80B0064250DF10B015D
:1004E0000DF10A0220460123009501F0C5F90DF136
:1004F0000B010DF10A02204601238DF80B800095B7
:1005000001F0BAF99DF80A7048461021012200F066
:100510006DFA019E484610210022377000F066FAFD
:10052000C2208DF80B000DF10B010DF10A022046DF
:100530000123009501F0A0F90DF10B010DF10A0264
:10054000204601238DF80B80009501F095F99DF868
:100550000A4048461021012200F048FA747003B0A6
:10056000BDE8F08F2DE9F04784B040F20008C4F2F6
:1005700002088A4606464046102100224FF0000934
:1005800000F034FA802040F2106540EA4600C2F2E2
:1005900000058DF8090064240DF1090102AA28461E
:1005A0000123009401F068F90DF10B010DF10A022D
:1005B000284601238DF80B90009401F05DF99DF819
:1005C0000A7040461021012200F010FA4046102126
:1005D000002227EA0A0700F009FA7E2000EA460016
:1005E0008DF80D000DF10D0103AA2846012300949A
:1005F00001F042F90DF10F010DF10E022846012321
:100600008DF80F70009401F037F940461021012257
:1006100000F0ECF904B0BDE8F0870000704700007E
:10062000012000F0FDB80000022000F0F9B8000041
:10063000042000F0F5B80000082000F0F1B8000038
:10064000102000F0EDB8000080B5202000F0E8F8A0
:100650004020BDE8804000F0E3B8000072B600BF63
:10066000FEE7000070B5866D044600F0C5F994F809
:100670003510022928D105462068216C026822F035
:1006800016020260426922F08002426109B9A16C3F
:1006900019B1016821F008010160016821F0010130
:1006A000016000BF20680068C00715D000F0A4F901
:1006B000401B0628F6D320206065032084F835000F
:1006C000002184F8341070BD802060650120002175
:1006D00084F8341070BD00BFE06D3F2101FA00F0D6
:1006E000B060012084F835000020002184F8341027
:1006F00070BD000090F83510022909D1052180F85D
:1007000035100068016821F0010101600020704788
:10071000802141650120704780B582B001380021F9
:100720001F28019100F25880DFE800F0585656105B
:1007300056565628565656565656563E565656569F
:1007400056565656565656565656564E41F2000076
:10075000C4F20200A0F58060042100F041F90146D6
:1007600040F24820C2F20000006801293ED1002179
:100770008DF802100DF102013DE000BF41F20000D2
:10078000C4F20200082100F02BF9012824D140F224
:100790004820C2F20000006900218DF803100DF11D
:1007A000030101AA002328E041F20000C4F2020084
:1007B000102100F015F901280ED101A9012003F044
:1007C00025F90198F0B907E041F20000C4F20200F7
:1007D000202100F005F908B102B080BD01A9002078
:1007E00003F014F9019868B9F6E700BF01218DF80C
:1007F00001100DF1010101AA022308F033FD019857
:100800000028E9D04EF60450CEF200004FF080519F
:100810000160BFF34F8FBFF36F8F02B080BD000048
:1008200043F61441C4F201010A68024214BF086091
:100830007047FFF771BF00002DE9F04F82B000F163
:100840003E4242F2004502F1FF77C4F202050A225D
:1008500043F6004E4FEAB726A84208BF0922C4F269
:10086000010E092E38BF4FEAB722012500260027C6
:100870004FF00008009208E008F101080437B8F1D1
:10088000100F06F1020600F0A7800C6805FA08F9BF
:1008900014EA090FF0D0D1F804B003220BF0030CD6
:1008A000ACF10104B240012C6FEA020A10D8826850
:1008B000CC6802EA0A02B440224382604268CBF369
:1008C000001422EA090204FA08F42243426005E017
:1008D000BCF1030F02D14FF0030C20E0C2688C681A
:1008E00002EA0A02B4402243BCF1020FC26016D1F0
:1008F0006FF0030202EA58020244D2F820C007F067
:100900001C050F230C69AB402CEA030304FA05F520
:100910002B431362D1F804B001250BF0030C0268DD
:100920000CFA06F302EA0A021A431BF4403F026083
:10093000A2D0002243F644030192C4F202031A68D3
:100940004FF6084C42F480421A601A68CFF6FF7CDA
:1009500002F480420192019A28F00302724452F894
:100960000C3007F00C050F24AC40A343009C04FAA4
:1009700005F52B4342F80C30DEF808204B6842EABC
:10098000090543F60C4CDC0258BF22EA0905CEF8F3
:100990000850C4F2010CDCF800209C0242EA090570
:1009A00058BF22EA0905CCF80050DEF804209C0369
:1009B00042EA090558BF22EA0905CEF80450DEF8DC
:1009C0000020DB0342EA090558BF22EA0905CEF8F8
:1009D0000050012550E700BF02B0BDE8F08F0000D5
:1009E0000069084018BF012070470000002A08BFB6
:1009F000090481617047000044F64800C2F200001B
:100A00000068704790F83D20202A1CBF02207047E4
:100A1000242280F83D200268136823F0010313604C
:100A2000536A23F010035362536A194351621168E9
:100A300041F001011160202180F83D100020704735
:100A400090F83D20202A1CBF02207047242280F805
:100A50003D20026889B2136823F001031360D2F8C5
:100A600024C04FF6F07303EA0C0319435162116876
:100A700041F001011160202180F83D1000207047F5
:100A800070B5B8B3044690F83D0028B9002084F84A
:100A90003C00204600F0A2FA242084F83D002068A3
:100AA000016821F001010160016841F40041016029
:100AB000016821F40041016000F036FC48F28041F9
:100AC000C0F21E0140F60013D4F804E088424FF053
:100AD0000001C0F23D0348F2A16C4FF0000238BFA4
:100AE00001219842C0F2010C38BF0122E64538BF0F
:100AF0000A460AB1012070BD4DF68361C4F21B3174
:100B0000A0FB01122168950C4B684FF4967623F0F8
:100B10003F0343EA9243754344F6D3564B60C1F218
:100B200062060B6AA5FB0656B50923F03F03E645AE
:100B300038BF950C6A1C1A430A62CA6948F2A0665B
:100B40004CF6FF73C0F20106B64522EA03020BD849
:100B500001384FEA4E03B0FBF3F001306FF31F3062
:100B6000042898BF04201EE0A368013863B119234C
:100B70000EFB03F3B0FBF3F001306FF31F3078B1DD
:100B800000F5804008E000BF0EEB4E03B0FBF3F031
:100B900001306FF31F3028B100F5004003E000BFC3
:100BA000012000E001201043C8610868D4E9072350
:100BB00020F0C000104318430860886848F2FF32F4
:100BC00004F10C0690434CCE18431043A56988608D
:100BD000C86820F0FF0030432843C860086840F030
:100BE0000100086000202021206484F83D1020636B
:100BF00084F83E0070BD00002DE9F04F83B01E4622
:100C0000924688460446FFF7F7FE94F83D102029E7
:100C10001CD12168054600BF8869800712D5FFF7FF
:100C2000EBFE401B21681A28F6D388698007F3D5AC
:100C300000202021206384F83D1084F83E00216CC0
:100C40000226C2E094F83C00012805D10226304675
:100C500003B0BDE8F08F00BF4FF0010984F83C906D
:100C60000868C00703D1086840F001000860086800
:100C7000002720F400600860242084F83D00002054
:100C8000CFF6FF702764E06208F0FE08BAF1010FAA
:100C900088BFD1464FF0A00A4FF0200B04E000BF00
:100CA00001374F4500F0A4800868002240F48070AE
:100CB000086020464FF001113346009501F0D0FC4A
:100CC0002168002856D1C1F81080FFF795FE2168F1
:100CD0004B694A6994F83D50A02D054605D013F0A4
:100CE000020008BF12F480601AD084F83DB0486951
:100CF0000A68800742F400720A6047D46FF480608B
:100D0000486100BF88698007CAD5FFF775FE401BA0
:100D100021681A28F6D388698007F3D54CE000BF14
:100D2000B6B100BFFFF768FE401BB04288BF84F831
:100D30003DA021684A69486994F83D30A02BD4D081
:100D400012F0020208BF10F48060EBD0CDE700BFC4
:100D5000FFF752FE84F83DA021684A69486994F87B
:100D60003D30A02BC1D012F00202BED110F4806041
:100D7000EED0BAE708680326C00544BF4FF4007000
:100D80002064304603B0BDE8F08F00BF0026029615
:100D900048690290886902900298886901E000BF62
:100DA000806980071AD5FFF727FE411B20681A29A2
:100DB000F6D381698907F3D500202021206384F8C8
:100DC0003D1084F83E00216C012641F02001216491
:100DD00084F83C00304603B0BDE8F08F202084F852
:100DE0003D0084F83C60304603B0BDE8F08F00BFA2
:100DF000202084F83D000020012684F83C00304685
:100E000003B0BDE8F08F00002DE9F04383B01E462B
:100E1000174689460446FFF7EFFD94F83D10202958
:100E200020D10546206800BF8169890716D5FFF7E4
:100E3000E3FD411B20681A29F6D381698907F3D5A0
:100E400000202021206384F83D1084F83E00216CAE
:100E500041F02001216484F83C0003E094F83C1048
:100E6000012903D1022003B0BDE8F083012184F8F9
:100E70003C100168C90703D1016841F0010101601C
:100E8000016840F2020821F400610160212184F828
:100E90003D10102184F83E100021216467626685B0
:100EA000618DC0F201082185A8F10211E162E16AB9
:100EB0000A9E11F5803F18BF01291DD1016841F438
:100EC0008071016020464FF00111002233460095E9
:100ED00001F0C6FB50B120680068C00544BF4FF464
:100EE00000702064012003B0BDE8F0832069B0F5F4
:100EF000804F07D1FE2015E00829DFD0216B122991
:100F0000DCD0DFE7062000EAD9102168F030086164
:100F100008F10601204632462B4601F08BFC0028E2
:100F2000E0D1FF20216800EA09000861204641461F
:100F300032462B4601F07EFC0028D3D100200290DF
:100F400020684169029180690290029806E000BF22
:100F5000204631462A4601F023FB18BB208D68B39A
:100F6000204631462A4601F0D5FCD8B9606A21688E
:100F7000024612F8013B0B616262628D013A6285A2
:100F8000228D531E23854F697F07E1D51B04DFD0D7
:100F9000437802300B616062608D01386085901E7D
:100FA0002085D5E7206C04289CD12068016841F495
:100FB00000710160012003B0BDE8F0832068016882
:100FC00041F400710160202084F83D00002084F885
:100FD0003E0084F83C0003B0BDE8F083B0B586B0B5
:100FE000016845F20040C4F20000814202D006B020
:100FF000B0BD00BF002443F630050194C4F20205E1
:10100000296800F5D83041F002012960296801F013
:101010000201019101994FF4407101911221CDE932
:101020000214032104910421059101A9FFF704FC96
:101030000094286940F400102861286900F4001029
:101040000090009806B0B0BD40F2040044F648019C
:10105000C2F20000C2F2000100780A681044086081
:101060007047000080B543F60040C4F202000168FA
:1010700041F400710160016841F480610160016820
:1010800041F480710160032000F08EF80F2000F021
:1010900005F800F027F8002080BD000070B540F290
:1010A0000406C2F2000640F20C013278C2F20001DE
:1010B0004FF47A730968B3FBF2F20446B1FBF2F124
:1010C000084600F081FD0F2C4FF0010508D838B913
:1010D0004FF0FF3021460022002500F039F87460FF
:1010E000284670BD82B0002043F640010190C4F252
:1010F00002014A6842F480424A604A6802F480422F
:101100000192019A00900868002240F08050086027
:1011100008680F2100F08050009000986FF00100E7
:1011200002B000F015B80000002848BF7047C1B2F7
:1011300000F01F00012202FA00F04EF20012CEF27F
:10114000000242EAD10121F003010860704700006B
:1011500010B54EF60C5CCEF2000CDCF80030C3F398
:10116000022E8EF00704042C28BF0424BEF10303D2
:101170004FF0FF3E0EFA04F438BF0023A14399401C
:101180000EFA03F39A43114300F00F0200F160439B
:101190000901043A03F564436244002848BF02F1A0
:1011A0000C03197010BD00004EF60C51CEF2000178
:1011B0000A684FF6FF031A4060F30A2242F080608B
:1011C00040F0FD70086070472DE9F041002800F004
:1011D0008B8043F60808C4F202080446D8F8F803E6
:1011E0000D4600F00F00884207D288F8F853D8F86F
:1011F000F80300F00F00A84276D12068810717D5C8
:10120000410705D5D8F8001041F4E051C8F80010A6
:10121000010705D5D8F8001041F46041C8F8001066
:10122000D8F80010A26821F0F0011143C8F80010AE
:10123000C0073FD1D8F8F80300F00F00A84207D943
:1012400088F8F853D8F8F80300F00F00A8424BD103
:101250002068410707D5D8F80010E26821F4E05172
:101260001143C8F80010000708D5D8F8000021691C
:1012700020F4604040EAC100C8F8000000F07CF8AB
:10128000D8F800104AF27E12C1F30311C0F6000232
:10129000515C40F20C0220FA01F140F20800C2F267
:1012A00000000068C2F200021160FFF7F7FE0020A4
:1012B000BDE8F0816068811E022907D258F8081C39
:1012C00089015CBF0120BDE8F08111E0012807D150
:1012D00058F8081C89035CBF0120BDE8F08107E0D5
:1012E00058F8081C890703D40120BDE8F08100BF2D
:1012F000D8F8001021F003010843C8F80000FFF7F8
:101300007BFB064641F28837D8F80000616800F0A0
:101310000C00B0EB810F8DD0FFF76EFB801BB84245
:10132000F2D90320BDE8F08140F20C0043F6080139
:10133000C2F20000C4F20201006809684AF28E128B
:10134000C1F38221C0F60002515CC8407047000022
:1013500040F20C0043F60801C2F20000C4F20201A0
:10136000006809684AF28E12C1F34231C0F60002E9
:10137000515CC8407047000010B543F60404C4F245
:101380000204606800F00C0008280BD0042819BF84
:1013900042F20040C0F2F40047F64000C0F27D1077
:1013A00010BD00BF206821682368490247F640014C
:1013B000C0F27D1100F03F02C3F388105CBF42F21F
:1013C0000041C0F2F401A1FB00010023FEF70CFF75
:1013D00021680222C1F3014102EB4101B0FBF1F0AF
:1013E00010BD00002DE9F04182B0002868D004460D
:1013F000007843F60006C007C4F202060BD0B068BE
:1014000000F00C00042840F09F803068800302D573
:101410006068002854D0207880071AD5B06810F092
:101420000C0F09D0B06800F00C00082840F0A6802E
:101430007068400200F1A2803068800702D5E06841
:1014400001283DD13068216920F0F80040EAC10050
:1014500030602078000737D4207840074CD4A56945
:1014600055B3B06800F00C00082840F0BB80012D97
:1014700026D07068E16900F480028A4220D1216A96
:1014800000F03F028A421BD147F6C071626A0140F8
:10149000B1EB821F14D1A16A4FF6FF73C9039943C0
:1014A00000F44032A1F580318A4209D1E16A00F0AE
:1014B0007060B0EB016F03D1002002B0BDE8F08195
:1014C000012002B0BDE8F0816069002840F2000010
:1014D000C4F2472076D00121C0F8801EFFF78CFAB5
:1014E000054600BF706F8007B6D4FFF785FA401B32
:1014F0000228F7D9DDE000BF306C10F080580AD127
:1015000000200190306C40F080503064306C00F06E
:1015100080500190019847F20007C4F20007386834
:10152000C00541D4386840F480703860FFF764FA31
:10153000054600BF3868C00536D4FFF75DFA401B8A
:101540000228F7D9B5E000BFB06800F00C00082809
:1015500003D1706840023FF558AF6068B0F5803F36
:1015600007D0B0F5A02F40F08D80306840F4802087
:101570003060306840F4803030608DE0E0680028F2
:1015800052D00020C4F2472001210160FFF734FA55
:10159000054600BF306880073FF554AFFFF72CFACF
:1015A000401B0228F6D984E0A068012805D0052850
:1015B0004ED1306F40F004003067306F40F00100D2
:1015C00030674FE00021C0F8801EFFF715FA05468E
:1015D000706F80077FF540AFFFF70EFA401B0228BF
:1015E000F6D966E00027C4F2472700203866FFF7E7
:1015F00003FA022D05460BD1306880015ED5FFF756
:10160000FBF9401B02284FF00300F5D955E700BF56
:10161000306880017FF550AFFFF7EEF9401B0228DC
:101620004FF00300F4D948E70020C4F2472000211E
:101630000160FFF7E1F90546306880077FF509AFE3
:10164000FFF7DAF9401B02284FF00300F4D934E722
:10165000316F002821F001013167316F21F0040161
:1016600031674DD0FFF7C8F9054641F2883700BF12
:10167000306F800756D4FFF7BFF9401BB842F7D947
:1016800017E000BF3168002821F4803131603168F3
:1016900021F4802131604FD0FFF7AEF9054600BF3D
:1016A000306880033FF5B7AEFFF7A6F9401B64280A
:1016B000F6D9032002B0BDE8F08100BF04F11C059B
:1016C0002FCD084340EA8210D9034FF6FF729143B1
:1016D000A1F5803140EA056008437060012038665A
:1016E000FFF78AF9044600BF306880013FF5E4AE99
:1016F000FFF782F9001B02284FF00300F4D9DCE663
:10170000FFF77AF9054641F2883700BF306F80074E
:1017100008D5FFF771F9401BB8424FF00300F5D927
:10172000CBE600BFB8F1000F7FF499AE306C20F02B
:101730008050306493E600BFFFF75EF9054600BFB6
:10174000306880037FF567AEFFF756F9401B6428C9
:101750004FF00300F4D9B0E670B538B10446406AE2
:1017600030B10020206104F1140007E0012070BDB9
:101770006068B0F5827F03D004F11C000021016095
:101780000026A66294F8510020B9204684F85060E3
:1017900000F03CF8022084F8510094E80F0001F4B6
:1017A0008271056802F4044225F040050560114489
:1017B00003F400622369114403F0020263691144D7
:1017C00003F00102A369E569114403F400721144B6
:1017D00005F03802256A114405F08002A56A11431C
:1017E00005F4005211430160626A042101EA1341C9
:1017F00002F0100211444160C16921F40061C1612D
:101800000120666584F85100304670BD80B586B011
:10181000016843F20000C4F20100814202D006B028
:1018200080BD00BF002143F630020191C4F20202E4
:10183000536900F5504043F480535361536903F4F6
:1018400080530193019B0191136843F001031360DE
:10185000126802F001020192019AE0220192022232
:10186000CDE90221032104910521059101A9FEF78B
:10187000E3FF06B080BD00002DE9F04383B01E46B3
:1018800015460F460446FFF7B7F894F85110814605
:10189000012909D1002F4FF0010018BF002D0FD1F1
:1018A00003B0BDE8F08300BF6068B0F5827F0DD162
:1018B000A06800284FF0020008BF0429F0D1E9E732
:1018C000002EEDD094F85000012803D1022003B07F
:1018D000BDE8F083012084F8500094F85100002105
:1018E00004281CBF052084F851006165A563E687C4
:1018F000A6872763E6862068A6862164616401685E
:10190000490603D4016841F0400101606168731E1B
:10191000E268B1FA81F1B3FA83F3DDF8288049096E
:101920005B09B2F5006F41EA030165D131B137F8C7
:10193000021BC1602763E08E0138E086012518F1A3
:10194000010032D102E000BFFFF756F8E08E18B96F
:10195000E08F002800F0B8802068816889070CD5E6
:10196000E18E51B1012D08D1216B002531F8022BF8
:10197000C2602163E18E0139E1868168C907E3D045
:10198000E18F0029E0D0C068A16B012521F8020B8E
:10199000A163E08F0138E087D6E700BFFFF72CF89E
:1019A000A0EB0900404580F0A580E08E18B9E08FDB
:1019B000002800F089802068816889070CD5E18EB5
:1019C00051B1012D08D1216B002531F8022BC260E5
:1019D0002163E18E0139E1868168C907DED0E18F9C
:1019E0000029DBD0C068A16B012521F8020BA1639F
:1019F000E08F0138E087D1E739B139780173206B86
:101A000001302063E08E0138E086012518F10100E5
:101A100032D101E0FEF7F0FFE08E10B9E08F002830
:101A200052D02068816889070ED5E18E61B1012D01
:101A30000AD1216B002509780173216B20680131DF
:101A40002163E18E0139E1868168C907E2D0E18F27
:101A50000029DFD0C068A16B01250870A06B0130A0
:101A6000A063E08F0138E087D4E700BFFEF7C4FF32
:101A7000A0EB090040453DD2E08E08B9E08F18B3D5
:101A80002068816889070ED5E18E61B1012D0AD1E8
:101A9000216B002509780173216B206801312163D6
:101AA000E18E0139E1868168C907DFD0E18F002925
:101AB000DCD0C068A16B01250870A06B0130A06369
:101AC000E08F0138E087D1E720460221012243461A
:101AD000CDF8009001F056FEB0B1606D40F02000EE
:101AE000606520206065002084F85000012003B06C
:101AF000BDE8F083012084F85100002084F85000F4
:101B0000032003B0BDE8F08340F20C00C2F20000F5
:101B1000006849F68171C1F25E61A0FB0101480DC8
:101B20004FF47A71484302906068B0F5827F21D10A
:101B30002046802100224346CDF8009001F022FE8D
:101B40000028CAD1A06838B9002001902068C16877
:101B50000191806801900198012084F851000020D3
:101B600084F85000606D002818BF012003B0BDE864
:101B7000F08300BF02980028E4D002980138029058
:101B8000206880680006DDD502980028DAD0029827
:101B900001380290206880680006D3D5029800289A
:101BA000D0D0029801380290206880680006C9D51C
:101BB00002980028C6D002980138029020688068F8
:101BC0000006D7D4BEE70000411E0020B0EB116F25
:101BD0001CBF012070474EF21002CEF2000251608D
:101BE0004EF62351CEF20001F0230B7007219060D6
:101BF000116070477047000070470000B0B582B0B8
:101C0000044600680168C368426901F02F05202D71
:101C100003F0200506D12DB1204602B0BDE8B0404A
:101C200002F0BAB85FEA017C1EBF02F0010E03F4B5
:101C3000907212EB0E0253D1226B012A05D111F0E2
:101C4000100218BF13F0100236D10A0622D513F085
:101C500080021FD094F8411021293FD1A168B1F52D
:101C6000805F03D12169002900F08282216A4A1C29
:101C7000226209784160E18C01390A04E1842DD1A6
:101C8000C16821F08001C160C16841F04001C160BC
:101C900002B0B0BD490621D513F040011ED0C16885
:101CA00021F04001C1602021204684F8411002B09B
:101CB000BDE8B04000F006BC00210191016801912F
:101CC0004168019101994069400613D4A08DE18DCE
:101CD000E28D002A18BF884240F0CC8102B0B0BD2E
:101CE000CA0718BF13F4807240F0BE804A0700F1A3
:101CF000C180C6E0E06B01684A68A38D91B20029FB
:101D000000F0A881994280F0A581E285C069B0F514
:101D1000807F00F09D80206850E8030F216820F448
:101D2000807041E80302DAB1206850E8030F2168AF
:101D300020F4807041E8030292B1206850E8030F5C
:101D4000216820F4807041E803024AB1206850E81D
:101D5000030F216820F4807041E80302002ADAD1E1
:101D6000206850E8050F216820F0010041E80502D5
:101D7000BAB3206850E8050F216820F0010041E85F
:101D8000050272B3206850E8050F216820F00100B9
:101D900041E805022AB3206850E8050F216820F0C9
:101DA000010041E80502002ADAD11AE0206850E873
:101DB000050F216820F0400041E80502DAB12068F3
:101DC00050E8050F216820F0400041E8050292B17B
:101DD000206850E8050F216820F0400041E8050226
:101DE0004AB1206850E8050F216820F0400041E822
:101DF0000502002ADAD1202084F842000020206366
:101E0000206850E8030F216820F0100041E8030229
:101E1000DAB1206850E8030F216820F0100041E893
:101E2000030292B1206850E8030F216820F01000EF
:101E300041E803024AB1206850E8030F216820F00E
:101E4000100041E80302002ADAD1E06BFEF70AFC39
:101E500002206063A08DE18D401A81B2204602B05D
:101E6000BDE8B040FFF7C6BE626C42F0010262649A
:101E70004A0706D5BEF1000F03D0626C42F00202A1
:101E800062648A0706D5BEF1000F03D0626C42F08F
:101E900004026264BCF1000F09D545EA0E02B2FAF1
:101EA00082F2520903D1626C42F008026264626CF1
:101EB000002A3FF413AF11F0200118BF002D03D00A
:101EC000204601F069FF20684069616C00F0400025
:101ED00001F00801401800F0B58000BF206850E80C
:101EE000030F216820F4907041E80302BAB3206820
:101EF00050E8030F216820F4907041E8030272B3A8
:101F0000206850E8030F216820F4907041E8030234
:101F10002AB3206850E8030F216820F4907041E84C
:101F20000302002ADAD11AE0206850E8050F216880
:101F300020F0010041E80502DAB1206850E8050F01
:101F4000216820F0010041E8050292B1206850E8C4
:101F5000050F216820F0010041E805024AB1206820
:101F600050E8050F216820F0010041E80502002A31
:101F7000DAD1206B012824D1206850E8030F2168B2
:101F800020F0100041E80302DAB1206850E8030FA6
:101F9000216820F0100041E8030292B1206850E867
:101FA000030F216820F0100041E803024AB12068C5
:101FB00050E8030F216820F0100041E80302002AD6
:101FC000DAD1202084F84200002020632068406994
:101FD000400649D5206850E8050F216820F04000F0
:101FE00041E80502DAB1206850E8050F216820F0C9
:101FF000400041E8050292B1206850E8050F2168D1
:1020000020F0400041E805024AB1206850E8050F81
:10201000216820F0400041E80502002ADAD1E06B97
:1020200010B343F68D51C0F600010165FEF762FB67
:1020300000283FF453AEE06B016D02B0BDE8B04044
:10204000084700BF2046FFF7D7FD0020606402B0BC
:10205000B0BD00BF8B427FF441AEC069B0F5807F58
:102060007FF43CAE02227CE0204602B0BDE8B040E6
:10207000FFF7C2BD401A216851E8031F226821F40E
:10208000907142E80313DBB1216851E8031F226815
:1020900021F4907142E8031393B1216851E8031FC2
:1020A000226821F4907142E803134BB1216851E892
:1020B000031F226821F4907142E80313002BDAD148
:1020C000216851E8051F226821F0010142E805134B
:1020D000DBB1216851E8051F226821F0010142E8C7
:1020E000051393B1216851E8051F226821F0010111
:1020F00042E805134BB1216851E8051F226821F021
:10210000010142E80513002BDAD1202184F84210A6
:1021100000212163216851E8031F226821F010018A
:1021200042E80313DBB1216851E8031F226821F064
:10213000100142E8031393B1216851E8031F22689C
:1021400021F0100142E803134BB1216851E8031F4D
:10215000226821F0100142E80313002BDAD1022299
:1021600081B22046626302B0BDE8B040FFF742BDD5
:10217000216A31F8022B6FF35F22426021627AE517
:10218000002804BF0120704710B5044690F84100B4
:1021900028B9002084F84000204600F021F82420CF
:1021A00084F841002068C16821F40051C1602046D4
:1021B00001F072FE2068016921F4904101614169DA
:1021C00021F02A014161C16841F40051C160002041
:1021D0002021606484F8411084F84210606310BDCF
:1021E00080B586B0006844F60002C4F20002002107
:1021F0009042CDE90411CDE90211019138D044F2A9
:102200000041C4F2000188425BD1002043F6300156
:102210000090C4F202010A6942F400320A610A69BC
:1022200002F400320092009A00900A6842F008021C
:102230000A60096801F0080100910099602101918C
:102240000221CDE90210032004900720059040F6FA
:102250000040C4F2020001A9FEF7EEFA2620052193
:102260000022FEF775FF2620FEF75EFF06B080BD58
:1022700043F630000091C4F20200026942F4802269
:102280000261026902F480220092009A00910268C1
:1022900042F008020260006800F008000090009818
:1022A0004FF4407001900220CDE902010320049018
:1022B0000720059040F60040C4F2020001A9FEF795
:1022C000BBFA06B080BD000090F84230202B1CBF46
:1022D0000220704700294FF0010318BF002A01D1E6
:1022E0001846704700230363816222218285C285DC
:1022F000436480F842100169006819B1C16841F473
:102300008071C1604169002341F001014161C168F0
:1023100041F02001C160184670470000B0B5044686
:10232000006844F20041C4F20001884218BFB0BD09
:1023300040F27435C2F20005287801F087FB204690
:1023400029460122BDE8B040FFF7BEBF2DE9F041AC
:10235000044690F8410020281CBF0220BDE8F0810F
:102360000D4600294FF0010000F0AA801646002A11
:1023700008BFBDE8F081002060642120984684F801
:102380004100FEF739FBA684E684A1680646B1F554
:10239000805F02D12069002862D02F460025E08CA2
:1023A000002861D018F1010018D0B8F1000F37D122
:1023B000216808E017F8010B4860E08C0138E084E0
:1023C000E08C002851D00868000673D5002FF1D1A9
:1023D00035F8020B00276FF35F20EDE7216802E07C
:1023E0000868000609D40868000606D408680006D4
:1023F0005CBF08685FEA0060F2D51FB117F8010BF7
:1024000005E000BF35F8020B00276FF35F2048603E
:10241000E08C0138E084E08C0028E4D125E000BFA6
:10242000216800BF0868000608D4FEF7E5FA801BA3
:10243000404541D82168C868F4E700BF17B117F8D4
:10244000010B04E035F8020B00276FF35F204860B2
:10245000E08C0138E084E08C0028E3D105E000BF87
:102460000027E08C00289DD12168086840061FD411
:10247000B8F1000F1ED018F101000FD10868400616
:1024800016D40868400613D40868400610D40868BB
:1024900040064FF00000F1D50FE000BFFEF7ACFAA8
:1024A000801B404508D82068C16800684006F5D503
:1024B000002002E0FEF7A0FA0320202184F841105A
:1024C000BDE8F08170470000FEE700002DE9F04311
:1024D00097B0294811AD119027A0071D40698ECFF4
:1024E0000DF1480C169028468CE88E00FDF7DDFEB5
:1024F00040F26864C2F2000482B2204629464FF0DE
:10250000FF33FFF723FF40F2BC560025C2F200065E
:102510000FF2800801AF0FF2780909E02046494622
:1025200001224FF0FF33FFF711FF0135802D15D049
:10253000680081B2304601220A23FEF75DFB0028C5
:10254000ECD13846402142462B4607F093FB3846F3
:10255000FDF7ABFE82B220463946E2E740F2686002
:10256000C2F200000DA102224FF0FF33FFF7EEFE92
:1025700017B0BDE8F08300BF5363616E6E696E678C
:1025800020493243206275732E2E2E0D0A00000062
:102590002E00000030782530325800000D0A00006F
:1025A00070B50368044653F8140F400711D40E4663
:1025B000481C29D086BB00BF1868400527D4FEF709
:1025C0001BFA236853F8140F400739D518684007E1
:1025D000F2D5002070BD00BF18684007F9D4186814
:1025E000400514D418684007F3D4186840050ED489
:1025F00018684007EDD41868400508D418684007EB
:102600004FF0000048BF70BD18684005E4D56FF476
:1026100080601860042014E0154603E053F8140F9E
:102620004007D6D418684005F1D4FEF7E5F9401B01
:102630002368B042F2D958694007EFD4202000E067
:10264000202000212022216384F83D2084F83E10C0
:10265000226C10432064012084F83C1070BD0000FF
:102660002DE9F041054600681E46144601F47F023C
:1026700001338FB242D0DDF81880B2F5803F40F0D0
:10268000878040693840C01BB0FA80F04009A04202
:1026900040F0C8804EB924E040693840C01BB0FA11
:1026A00080F04009A04240F0BD80FEF7A5F9A0EB04
:1026B00008012868B142EFD941693940C91BB1FA14
:1026C00081F14909A142E7D19BE000BF4069384050
:1026D000C01BB0FA80F04009A0424FF0000040F06B
:1026E000A680FEF789F9286841693940C91BB1FA0B
:1026F00081F14909A142E9D183E000BFB2F5803FF1
:1027000024D100BF41693940C91BB1FA81F149099F
:10271000A14240F0878041693940C91BB1FA81F17B
:102720004909A14240F07E8041693940C91BB1FA94
:1027300081F14909A14275D141693940C91BB1FAFA
:1027400081F14909A142DDD06CE000BF81693940C7
:10275000C91BB1FA81F14909A14263D181693940AC
:10276000C91BB1FA81F14909A1425BD181693940A4
:10277000C91BB1FA81F14909A14253D1816939409C
:10278000C91BB1FA81F14909A142DFD04AE000BF7B
:1027900080693840C01BB0FA80F04009A04241D1A6
:1027A00046B923E080693840C01BB0FA80F0400988
:1027B000A0423BD1FEF720F9A0EB08012868B14206
:1027C000F0D981693940C91BB1FA81F14909A142A7
:1027D000E8D116E080693840C01BB0FA80F04009AB
:1027E000A0424FF0000018BFBDE8F081FEF704F9E9
:1027F000286881693940C91BB1FA81F14909A142B0
:10280000E8D100202021286385F83D1085F83E009E
:10281000296C41F02001296485F83C000120BDE8C5
:10282000F08100BF0020BDE8F08100BF0020BDE8BE
:10283000F0810000F0B581B0044600681D46436990
:102840008FB203EA0701B94202D1002001B0F0BD06
:1028500041691646013201F4806125D0002940D13A
:10286000CEB100BFFEF7C8F8411B2068B14203D9C2
:1028700041693940B9424BD141693940B942E4D04C
:1028800041694905EED52CE041693940B942DCD0B7
:102890004169490525D4FEF7AFF820684169394000
:1028A000B942F1D0202024E0D9B941693940B94278
:1028B000CBD04169490514D441693940B942C4D0EB
:1028C000416949050DD441693940B942BDD04169DA
:1028D000490506D441693940B942B6D04169490534
:1028E000E3D5016841F4007101606FF480614161DA
:1028F000042000212022216384F83D2084F83E102A
:10290000226C1043206484F83C10012001B0F0BD1B
:102910002020EEE770B50368044653F8140F000654
:1029200011D40E46481C29D086BB00BF186840054C
:1029300027D4FEF761F8236853F8140F000639D541
:1029400018680006F2D5002070BD00BF18680006A8
:10295000F9D41868400514D418680006F3D4186830
:1029600040050ED418680006EDD41868400508D458
:10297000186800064FF0000048BF70BD1868400599
:10298000E4D56FF480601860042014E0154603E07D
:1029900053F8140F0006D6D418684005F1D4FEF79A
:1029A0002BF8401B2368B042F2D958690006EFD4D7
:1029B000202000E0202000212022216384F83D20F7
:1029C00084F83E10226C10432064012084F83C10EF
:1029D00070BD0000B0B582B008204C21002206F086
:1029E00077FA40F27434C2F2000440F26865606025
:1029F00040F21000C2F200054FF0320CC2F20000AB
:102A0000294601220023CDF800C001F031FB284601
:102A10002146012202B0BDE8B040FFF755BC0000DE
:102A2000B0B582B040F2BC550446C2F2000500BF0A
:102A30002846214601224FF0FF33FEF7DDF800283B
:102A4000F6D143F63C0040F2BC55C0F60C00C2F291
:102A5000000501904FF0FF3C01AA284621460423BF
:102A6000CDF800C0FEF7D0F9052005F0AFFF00BF9C
:102A70002846214601224FF0FF33FEF7BDF800281B
:102A8000F6D140F60C0040F2BC55C2F62C00C2F262
:102A9000000501904FF0FF3C01AA2846214604237F
:102AA000CDF800C0FEF7B0F9052005F08FFF00BF9C
:102AB0002846214601224FF0FF33FEF79DF80028FB
:102AC000F6D140F60C0040F2BC55CCF6CC00C2F278
:102AD000000501904FF0FF3C01AA2846214604233F
:102AE000CDF800C0FEF790F9052005F06FFF00BF9C
:102AF0002846214601224FF0FF33FEF77DF80028DB
:102B0000F6D140F60C00C1F61C00019040F2BC501A
:102B10004FF0FF35C2F2000001AA214604230095C0
:102B2000FEF772F9052005F051FF02B0B0BD0000BC
:102B300070B582B040F2BC560D460446C2F20006A3
:102B40003046214601224FF0FF33FEF755F80028AA
:102B5000F6D105F0F000290100F108020C308DF8E3
:102B6000040001F108000C318DF8070040F2BC5060
:102B70008DF805208DF806104FF0FF36C2F20000E8
:102B800001AA214604230096FEF73EF9052005F030
:102B90001DFF02B070BD00002DE9F04383B00F7837
:102BA0009FB340F2BC560C460546C2F200064FF0F9
:102BB000FF380DF1080900BF3046294601224FF0C9
:102BC000FF33FEF719F80028F6D127F00F0039017E
:102BD00000F109020D308DF8080001F109000D31F6
:102BE0008DF809208DF80A108DF80B003046294623
:102BF0004A460423CDF80080FEF706F9052005F0CB
:102C0000E5FE14F8017F002FD6D103B0BDE8F083B4
:102C10002DE9F04184B00025C4F20205044628469F
:102C2000102100224FF00008FDF7E0FE40F2106690
:102C30001A20C2F200068DF80D0064270DF10D0177
:102C400003AA304601230097FEF716FE0DF10F018F
:102C50000DF10E02304601238DF80F800097FEF72C
:102C60000BFE284610210122FDF7C0FE42F2930020
:102C7000208002AF0C20214602222346009700F05C
:102C8000C1F918B104B0BDE8F08100BF20786178C7
:102C9000A278E3784840504021795840401A18BF44
:102CA0000120400004B0BDE8F081000010B584B000
:102CB000502002ACADF80800A21C20460221FDF70E
:102CC00067FB0DF10C0C0C20214604222346CDF8A5
:102CD00000C000F097F904B010BD0000F0B583B05B
:102CE0000024C4F20204204610210122FDF77EFEDA
:102CF00004F5806001210122FDF778FE20461021B5
:102D000000220027FDF772FE40F210650220C2F299
:102D100000058DF80B0064260DF10B010DF10A0280
:102D2000284601230096FEF7A7FD0F208DF80B0023
:102D30000DF10B010DF10A02284601230096FEF762
:102D40009BFD204610210122FDF750FE2046102158
:102D50000022FDF74BFE54208DF80B000DF10B0106
:102D60000DF10A02284601230096FEF785FD8D200D
:102D70008DF80B000DF10B010DF10A02284601231D
:102D80000096FEF779FD204610210122FDF72EFE68
:102D9000204610210022FDF729FE56208DF80B0059
:102DA0000DF10B010DF10A02284601230096FEF7F2
:102DB00063FD3E208DF80B000DF10B010DF10A02B1
:102DC000284601230096FEF757FD204610210122D8
:102DD000FDF70CFE204610210022FDF707FE5A20C9
:102DE0008DF80B000DF10B010DF10A0228460123AD
:102DF0000096FEF741FD1E208DF80B000DF10B0132
:102E00000DF10A02284601230096FEF735FD204603
:102E100010210122FDF7EAFD204610210022FDF7D6
:102E2000E5FD58208DF80B000DF10B010DF10A02A4
:102E3000284601230096FEF71FFD0DF10B010DF151
:102E40000A02284601238DF80B700096FEF714FD48
:102E5000204610210122FDF7C9FD20461021002245
:102E6000FDF7C4FD2A208DF80B000DF10B010DF1CB
:102E70000A02284601230096FEF7FEFC40208DF84A
:102E80000B000DF10B010DF10A02284601230096FB
:102E9000FEF7F2FC204610210122FDF7A7FD204697
:102EA00010210022FDF7A2FD22208DF80B000DF16C
:102EB0000B010DF10A02284601230096FEF7DCFC07
:102EC0003D208DF80B000DF10B010DF10A02284693
:102ED00001230096FEF7D0FC204610210122FDF7C9
:102EE00085FD204610210022FDF780FDA8208DF8E9
:102EF0000B000DF10B010DF10A022846012300968B
:102F0000FEF7BAFC0DF10B010DF10A022846012370
:102F10008DF80B700096FEF7AFFC204610210122C1
:102F2000FDF764FD1420032100F0A4FD20461021CC
:102F30000022FDF75BFD04208DF80B000DF10B0165
:102F40000DF10A02284601230096FEF795FCA02009
:102F50008DF80B000DF10B010DF10A02284601233B
:102F60000096FEF789FC204610210122FDF73EFD68
:102F700004208021FDF7F6FA03B0F0BD2DE9F04101
:102F800084B040F20008C4F202080C4605464046F0
:102F900010210022FDF72AFD40F210671A20C2F22C
:102FA00000078DF80D0064260DF10D0103AA3846C7
:102FB00001230096FEF760FC07208DF80F000DF14D
:102FC0000F010DF10E02384601230096FEF754FC66
:102FD000404610210122FDF709FD02AF0C202146D9
:102FE000012223462570009700F00CF80299102961
:102FF000014618BF0221002818BF0221084604B06C
:10300000BDE8F0812DE9F04F87B017460C288846BF
:103010000293049006D00E2808D1112005901220AA
:1030200007E000BF31200590772002E001200590E5
:1030300000200026C4F20206039000F1800530460D
:10304000102100224FF00009FDF7D0FC40F2106A79
:103050000420C2F2000A8DF81B0064240DF11B014C
:103060000DF11A02504601230094FEF705FC0DF104
:103070001B010DF11A02504601238DF81B500094DC
:10308000FEF7FAFB304610210122FDF7AFFC0420C9
:103090008021FDF767FA0A20802100F0EBFC304622
:1030A00010210022FDF7A2FC02208DF81B000DF17B
:1030B0001B010DF11A02504601230094FEF7DCFBC0
:1030C0000DF11B010DF11A02504601238DF81B90E2
:1030D0000094FEF7D1FB304610210122FDF786FC5B
:1030E0006FB340F2106AA8F10105C2F2000A0DF1B7
:1030F0001B090DF11A0800BF15F801BF3046102159
:1031000000226424FDF772FC12208DF81B0050464B
:103110004946424601230094FEF7AEFB6424504624
:103120004946424601238DF81BB00094FEF7A4FBEC
:10313000304610210122FDF759FC013FDCD1304619
:1031400010210022FDF752FC40F210670220C2F26B
:1031500000078DF81B000DF11B010DF11A02384616
:1031600001230094FEF788FB049D0DF11B010DF176
:103170001A02384601238DF81B500094FEF77CFBA1
:10318000304610210122FDF731FC0C2D03D10D201A
:10319000802100F06FFC4FF6300540F21069CFF649
:1031A000FF754FF088084FF0640AC2F200090DF174
:1031B0001B0B0DF11A0400BF304610210022FDF751
:1031C00015FC48465946224601238DF81B80CDF850
:1031D00000A0FEF751FB00208DF81B004846594621
:1031E00022460123CDF800A0FEF746FB9DF81A7099
:1031F000304610210122FDF7F9FB013538D2059840
:103200003842D9D00D208021FDF7ACF9304610218D
:1032100000224FF00008FDF7E9FB40F210648C201B
:10322000C2F200048DF81B0064250DF11B010DF1A5
:103230001A02204601230095FEF71EFB0DF11B012B
:103240000DF11A02204601238DF81B800095FEF730
:1032500013FB9DF81A40304610210122FDF7C6FBF2
:1032600014F01B0F0ED00225284607B0BDE8F08FE2
:103270000D208021FDF776F90225284607B0BDE82C
:10328000F08F00BF0398049938400C2900F0010525
:10329000EAD130461021002210244FF00009FDF73A
:1032A000A5FB40F210689420C2F200088DF81B00C4
:1032B0004FF0640A0DF11B010DF11A024046012383
:1032C000CDF800A0FEF7D8FA0DF11B010DF11A029E
:1032D000404601238DF81B90CDF800A0FEF7CCFAF4
:1032E0009DF81A70304610210122FDF77FFB304611
:1032F00010210022FDF77AFB98208DF81B000DF1BC
:103300001B010DF11A0240460123CDF800A0FEF783
:10331000B3FA0DF11B010DF11A02404601238DF89D
:103320001B90CDF800A0FEF7A7FA9DF81A80304652
:1033300010210122FDF75AFB18F0070040EAC700F0
:10334000A0F1080008BFF800102F38BF3C46002F3E
:10335000109908BF0124002C086085D0029840F223
:10336000106BA0F10108C2F2000B0DF11B074FF02A
:10337000640A0DF11A090595304610210022FDF767
:1033800035FB92208DF81B00584639464A460123EA
:10339000CDF800A0FEF770FA00208DF81B0058460B
:1033A00039464A460123CDF800A0FEF765FA9DF89C
:1033B0001A50304610210122FDF718FB013C08F895
:1033C000015FD9D1059D284607B0BDE8F08F000008
:1033D00080B543F62D304AF29812C0F60000C0F6D0
:1033E0000002002102F028FE40F2B851C2F20001B2
:1033F000086080BD2DE9F04F87B0002643F630000D
:10340000CDE905660196C4F20200016840F6004469
:1034100041F0100101600168C4F2020401F01001E2
:10342000019101990196016804F5006741F02001BE
:1034300001600168002201F02001019101990196CB
:1034400001684FF03C0B41F080010160016801F020
:103450008001019101990196016841F00401016028
:10346000016801F00401019101990196016841F0A0
:1034700001010160016801F00101019101990196CA
:10348000016841F002010160016801F0020101914F
:1034900001990196016841F00801016000683C2132
:1034A00000F00800019001983846FDF79FFAA4F556
:1034B00040684046102101224FF00109FDF796FABD
:1034C00020464FF4F0410022FDF790FA782002AD3B
:1034D00002904FF4881A04F580602946CDE903A6CE
:1034E000FDF7AAF938462946CDE902B9CDE90466C7
:1034F000FDF7A2F94FF4F06002A981E841023846D5
:103500002946FDF799F90227A4F580602946CDE9FF
:10351000029A0497FDF790F91020CDE90209404680
:103520002946CDE90466FDF787F94FF40410CDE98B
:103530000309A4F5006029460297FDF77DF94FF4D1
:103540006050CDE9020920462946CDE90466FDF721
:1035500073F94FF4804002901120CDE90306204614
:1035600029460596FDF768F9042002904FF44410AF
:10357000CDE9030920462946FDF75EF9062005211D
:103580000022FDF7E5FD0620FDF7CEFD0720052111
:103590000022FDF7DDFD0720FDF7C6FD082005210F
:1035A0000022FDF7D5FD0820FDF7BEFD092005210D
:1035B0000022FDF7CDFD0920FDF7B6FD0A2005210B
:1035C0000022FDF7C5FD0A20FDF7AEFD17200521FD
:1035D0000022FDF7BDFD1720FDF7A6FD07B0BDE8F1
:1035E000F08F000080B540F2BC5045F20041C2F2BD
:1035F0000000C4F2000148F2A06200234FF4804CA6
:10360000C0F2010280E80E00C0E9033CC0E90533C6
:10361000C0E90733FDF734FA002818BFFDF71EF89C
:1036200040F2BC50C2F200000021FDF7EBF9002887
:1036300018BFFDF713F840F2BC50C2F200000021A1
:10364000FDF7FEF9002808BF80BDBDE88040FDF70A
:1036500005B8000080B540F2106043F20001C2F2EC
:103660000000C4F201014FF4827200234FF4007C89
:1036700080E80E000A21C0E90333C0E9053CC361BC
:10368000C0E90833C0E90A31FEF766F8002808BF30
:1036900080BDBDE88040FCF7E1BF000080B540F28E
:1036A000686044F20041C2F20000C4F2000100234D
:1036B0004FF00C0C4FF4E13280E80E00C0E9033308
:1036C000C0E905C3C361FEF75BFD002808BF80BDEC
:1036D000BDE88040FCF7C2BF80B540F2B06044F660
:1036E0000001C2F20000C4F2000100234FF00C0CF4
:1036F0004FF4E13280E80E00C0E90333C0E905C3AE
:10370000C361FEF73DFD002808BF80BDBDE88040D5
:10371000FCF7A4BFFEE70000FEE700000000000089
:10372000EFF30980BFF36F8F154B1A681EF0100F6F
:1037300008BF20ED108A20E9F04F10602DE9090044
:103740004FF0500080F31188BFF34F8FBFF36F8F9E
:1037500005F086FA4FF0000080F31188BDE80900FB
:1037600019680868B0E8F04F1EF0100F08BFB0EC01
:10377000108A80F30988BFF36F8F704700BF00BFC6
:10378000980200202DE9F04381B0089C9846154628
:103790000E468146FDF730F9201A00EB0804FDF7CC
:1037A0002BF940F20C01C2F200010968C1F3CB31E0
:1037B00061430091D9F800108A683240921BB2FA36
:1037C00082F25209AA4203D1002001B0BDE8F08381
:1037D000074618F101000ED130E000BF0098013813
:1037E0000090D9F8000080683040801BB0FA80F06B
:1037F0004009A842E8D0FDF7FFF8C01BA04227D23D
:1038000000980028EAD10024EBE700BF8868304028
:10381000801BB0FA80F04009A842D5D088683040BB
:10382000801BB0FA80F04009A842CDD088683040B3
:10383000801BB0FA80F04009A842C5D088683040AB
:10384000801BB0FA80F04009A842DFD1BCE700BF7E
:10385000D9E900014268B1F5827F22F0E0024260BE
:103860000BD1D9F80810B1F5004F02D0B1F5806F37
:1038700003D1016821F040010160D9F82810B1F5A9
:10388000005F07D1016821F400510160016841F433
:1038900000510160012089F85100002089F8500092
:1038A000032001B0BDE8F08300000000000000002C
:1038B000074B19680868B0E8F04F80F30988BFF338
:1038C0006F8F4FF0000080F31188704700BF00BF7A
:1038D0009802002010B594B001AC20464C21FCF7B2
:1038E000CDFC40F274300221C2F20000C0F20501AA
:1038F0004068029121460022002305F09DFB14B090
:1039000010BD0000B0B594B001AD044628464C216E
:10391000FCF7B4FC0220C0F20100029005F108009F
:1039200021461022FCF7B5FC40F27430C2F20000D0
:10393000406829460022002305F07EFB14B0B0BD8C
:10394000B0B594B001AD044628464C21FCF796FC76
:103950004FF00210029005F1080021461022FCF7FA
:1039600098FC40F27430C2F2000040682946002200
:10397000002305F061FB14B0B0BD000070B594B039
:1039800001AE0C46054630464C21FCF777FC022080
:10399000C0F204000290042C28BF042406F10A009F
:1039A00029462246ADF80C40FCF74FFC40F274303B
:1039B000C2F20000406831460022002305F03CFBC3
:1039C00014B070BD70B594B001AE0C4605463046DB
:1039D0004C21FCF753FC0220C0F203000290042C9F
:1039E00028BF042406F10A0029462246ADF80C40FF
:1039F000FCF72BFC40F27430C2F200004068314604
:103A00000022002305F018FB14B070BDB0B594B0CF
:103A10000C46054601A84C21FCF730FC0220ADF80D
:103A200008001DB1012D0ED1072100E0062140F252
:103A30007430C2F200004068ADF80A1001A92246B5
:103A4000002305F00FFC14B0B0BD000040F2AC3113
:103A5000C2F20001B1F80021B1F802310132D2B254
:103A60009A4208BF7047B1F80031C854A1F800214C
:103A7000704700002DE9F04784B040F20008C4F21E
:103A800002088A4606464046102100224FF00009EF
:103A9000FCF7ACFF802040F2106540EA4600C2F21D
:103AA00000058DF8090064240DF1090102AA2846D9
:103AB00001230094FDF7E0FE0DF10B010DF10A0268
:103AC000284601238DF80B900094FDF7D5FE9DF854
:103AD0000A70404610210122FCF788FF4046102161
:103AE000002247EA0A07FCF781FF7E2000EA460031
:103AF0008DF80D000DF10D0103AA28460123009455
:103B0000FDF7BAFE0DF10F010DF10E02284601235B
:103B10008DF80F700094FDF7AFFE40461021012292
:103B2000FCF764FF04B0BDE8F0870000012002F05C
:103B300041FAFBE7C4B004A840F2100511300DF1C2
:103B4000C40BC2F200054AF2243840F25C2A02900B
:103B50000BF1090005F1FE0711AC0DAEC0F600082F
:103B6000C2F2000A01900EE059208DF81000DAF838
:103B7000000004A94FF0FF32002305F05DFA00BFFA
:103B8000052004F023FF284600F0A4FA0028F7D00F
:103B900095F82492B9F1FE0F28BF4FF0FE09B9F154
:103BA000000FEDD0204639464A46FCF74EFB304622
:103BB00021464A4603F068F958464C21FCF75EFB63
:103BC000304641465A4602F043FB0028D8D0BDF8A3
:103BD000C8000328D4D1BDF8CA00032826D0022883
:103BE00018D00128CCD101208DF8100040F25820C7
:103BF000C2F20000006847218DF8331004A94FF08D
:103C0000FF32002305F018FADAF800000DF1330155
:103C1000B0E700BF9DF8CC109DF8CD00002918BF7B
:103C20000028A1D100294FD052209EE79DF8CC005A
:103C3000022815D0012839D147208DF8330047F2EA
:103C40007350C6F26330049047F26530C6F2736079
:103C5000059047F26650C0F26C00CDF817000DE0F9
:103C600052208DF8330046F26610C6F66940049083
:103C700046F26C50C0F26400CDF81300DDE901108B
:103C8000FCF71AFBDAF800000DF133014FF0FF32B8
:103C9000002305F0D1F940F25420C2F20000006880
:103CA00004A94FF0FF32002305F0C6F940F24C2082
:103CB000C2F20000006800218DF80F100DF10F0115
:103CC0000022022359E700BF10B147204DE700BF93
:103CD0009DF8CE0000283FF453AF422045E7000096
:103CE000BAB040F274364AF2243A40F21008C2F2F6
:103CF000000607AC02AD0DF1680BC0F6000AC2F277
:103D000000080DF1060906E0404649460022ADF8DC
:103D1000067000F0BDF9706821464FF0FF3205F0E3
:103D20001FFC0128F7D1B06859460130B0600790F8
:103D30002846802203F07EF928465146224602F0AA
:103D40005BFD0028E7D0BDF81470FE2F28BFFE27CA
:103D5000002FD9D0404659463A46FCF776FAD3E7C9
:103D600080B5FDF771F905F08BFD012808BF80BD16
:103D7000BDE8804005F094B84EF68850CEF20000C1
:103D8000016841F47001016070470000806B002100
:103D9000C185FDF731BF000081B090F842102229A3
:103DA00021D183680246B3F5805F09D152F8281FFC
:103DB00052F8183C002B63D003685B680AE000BF30
:103DC00052F8281F13B90369002BF5D003685B680C
:103DD00003F07F030B70116801311160C18D01394F
:103DE0000A04C18502D001B0704700BF0168CA68EB
:103DF00022F02002CA60CA6822F48072CA604A694E
:103E000022F001024A61202180F842100021416322
:103E1000026B012A3CD10163016851E8031F02686B
:103E200021F0100142E80313DBB1016851E8031FE0
:103E3000026821F0100142E8031393B1016851E8D0
:103E4000031F026821F0100142E803134BB101681F
:103E500051E8031F026821F0100142E80313002B10
:103E6000DAD101680A68D20606D5002200920A68F3
:103E70000092496800910099818D01B0FDF7BABEAA
:103E8000026852686FF35F2221F8022B8162A5E776
:103E900001B0FEF743BA000010B504460068D4E94B
:103EA00002C22369016921F4405111430161626931
:103EB00043EA0C01E3691143C268194349F20C63F8
:103EC0009A431143C1604169A26921F4407141F2F2
:103ED0000043114340F48062C4F201039A424161FD
:103EE00002D1FDF735FA01E0FDF71EFAE1696368DA
:103EF0001922B1F5004FA0FB020123D15A00DB0FBC
:103F0000FCF772F948F21F51C5F2EB11A0FB012337
:103F10005A094FF69C73C0F6FF7303F1805302FBFE
:103F20000300322303EBC000A0FB01014FF4F87043
:103F300000EA111000EB0210C1F34211084421689D
:103F4000886010BD9A009B0FFCF74EF948F21F5194
:103F5000C5F2EB11A0FB01235A094FF69C73C0F682
:103F6000FF7302FB0300322303EB0010A0FB0101EF
:103F7000F02000EA511000EB0210C1F34311084495
:103F80002168886010BD000040F26860C2F2000045
:103F9000FDF734BEFEE7000070B540F2B04CC2F24F
:103FA000000C08209B218CF804004FF48070002244
:103FB00002238CF80010ACF8020000BF10069C1E13
:103FC00001EAE07E8EEA040081EA4004050658BF5B
:103FD000440081EA4400250658BF600081EA40049D
:103FE000050658BF440081EA4400250658BF60001A
:103FF00081EA4004050658BF440081EA44002506D2
:1040000058BF600081EA4004050658BF44000CEB2D
:1040100002068EEA0305747181EA4504280658BF3A
:104020006C0081EA4400250658BF600081EA400523
:10403000040658BF450081EA45002C0658BF6800B9
:1040400081EA4005040658BF450081EA45002C0678
:1040500058BF680081EA4005040602F1020258BF19
:104060004500B2F5807F03F10403B571A6D170BDA0
:1040700080B582B09C46049B8DF80720C0E98A1366
:104080000DF1070104AB624600F08CFA02B080BD6E
:10409000B0B582B08DF807200DF10702044600F09C
:1040A0008DF80546D4E98A0304F5FE710422FEF773
:1040B0004DF9D4E98A0321462A46FEF747F9D4E9A7
:1040C0008A0304F500710222FEF740F9284602B087
:1040D000B0BD0000F0B581B00446002040F2AC371E
:1040E00084F82402C2F20007B7F80011B7F80221E1
:1040F000914201D101B0F0BD01208DF80300B7F865
:104100000001B7F80211884202D1002001B0F0BDD1
:104110000DF102050DF10306B7F80001B7F8021121
:10412000884201D1002008E0B7F80201385CB7F8F6
:1041300002110131C9B2A7F802118DF80200204620
:104140002946324600F038FA94F9031284F8240222
:10415000CAB2032A84F825120AD1002084F8240266
:10416000B7F80011B7F802219142D5D1C2E700BFDC
:104170000029BFDC204600F0FDFB94F8031294F800
:10418000240284F8251201B0F0BD0000B0B590F80B
:104190001422002A08BFB0BDD0F8105265B10846FD
:1041A0000C46FCF782F882B2284621466423BDE81B
:1041B000B040FEF7CBB800BFB0BD00002DE9F04F16
:1041C000B1F800E0BEF1FF0F10D3FF2180F8181204
:1041D000002100BF435C7E2B37D043185B787E2BD9
:1041E00032D00231FE29F5D1FF2130E04FF0FF0C33
:1041F0005FEA0E6880F818C200F09080CEF10003EC
:10420000AEF101054FF0000C10F80C607E2E00F0AE
:104210008380654514D000EB0C0677787E2F71D033
:1042200003EB0C07BC1C0BD0B4787E2C6ED0FC1CAE
:1042300006D0F4787E2C6DD00CF1040CE645E3D169
:104240004FF0FF0C6AE000BF013180F81812FE2722
:10425000C41914F8013C7E2B00F0B68014F8023C1F
:104260007E2B00F0B38014F8033C7E2B00F0B0806E
:1042700014F8043C7E2B00F0AD8014F8053C7E2B36
:1042800000F0AA8014F8063C7E2B00F0A78014F8FA
:10429000073C7E2B00F0A48014F8083C7E2B00F035
:1042A000A18014F8093C7E2B00F09E8014F80A3C93
:1042B0007E2B00F09B8014F80B3C7E2B00F0988046
:1042C00014F80C3C7E2B00F0958014F80D3C7E2BEE
:1042D00000F0928014F80E3C7E2B00F08F8014F8D2
:1042E0000F3C7E2B00F08C8014F8103C7E2B00F0ED
:1042F0008980102F00F09A8014F8113C113F7E2B1A
:10430000A6D180E00CF1010C06E000BF0CF1020C1C
:1043100002E000BF0CF1030C80F818C2851E734642
:10432000002B00F0DC80EE1874787E2C28D0012B56
:1043300000F0D580EC5C7E2C28D0022B00F0CF80E2
:1043400016F8014C7E2C27D0032B00F0C88016F8FD
:10435000024C043B7E2CE3D1B8F1000F14D01EF0C8
:104360000305AEF1010400F08B80E6B2875D7E2F7D
:1043700002BF1B1B83552346012D13D1A6467FE0A8
:10438000013BB8F1000FEAD10023FCE0023BB8F199
:10439000000FE4D1F8E700BF033BB8F1000FDED116
:1043A000F2E700BF661E5FFA86F810F808707E2FED
:1043B00002BF9B1B00F808303346022DAEF1020508
:1043C00054D1AE465CE000BF013F1CE0023F1AE062
:1043D000033F18E0043F16E0053F14E0063F12E0FB
:1043E000073F10E0083F0EE0093F0CE00A3F0AE0FB
:1043F0000B3F08E00C3F06E00D3F04E00E3F02E0FB
:104400000F3F00E0103FFE235D1EEEB2845D023BD5
:104410007E2C02BF7F1B87552F46DEB2855D7E2D29
:1044200002BFFF1A87551F461E06EDD140F2B04667
:10443000C2F2000600236FF001070536C519AC78FB
:10444000DBB26340ED78F35C02376B40F35CFC2F2A
:10445000F4D1127880F8FE11FE2180F8FD2180F859
:10446000FF1180F80032C8B2BDE8F08F013DEEB216
:10447000875DAEF1030E7E2F02BF5B1B83552B467B
:10448000E4B2032C29D300BFAEF10104E5B2465DCE
:104490007E2E02BF1B1B43552346AEF10204E5B23C
:1044A000465D7E2E02BF1B1B43552346AEF103041F
:1044B000E5B2465DAEF1040E7E2E02BF1B1B4355D6
:1044C00023465FFA8EF4055D7E2D02BFA3EB0E033B
:1044D000035573465FEA0E64D6D191F800E05FEAB7
:1044E0000E6311D04FF0FF3353FA8EF340F2B04811
:1044F0000EF00309032BC2F2000807D200270023A5
:10450000B9F1000F2AD13EE000233CE05FFA8EF3C0
:1045100003F0FC03C3F1000E00F1010A00236FF069
:10452000030708F1050400BF0AEB0705EE78DBB2CC
:10453000734095F804B0E35C6E7983EA0B03E35CA7
:10454000AD797340E35C04376B40E35C0EEB070529
:104550000435E9D10437B9F1000F14D0C65DB9F1C3
:10456000010F83EA060343445B790CD007447E784D
:10457000B9F1020F83EA060343445B7903D0BF78A5
:104580007B4043445B79127880F8FEC180F8FD21BE
:104590000A7880F8003280F8FF210978C8B2BDE8B7
:1045A000F08F0000C0F8102209781A6880F8141201
:1045B000C0F82022704700002DE9F04190B0044679
:1045C000D0F81C021646884630B1FCF715FAD4E93B
:1045D0008712401A90421BD23078002830D094F8CD
:1045E0000422062A36D8DFE802F0055D6369879B5E
:1045F000AB0000BF98F800007E2840F03A8101200F
:1046000084F80402FCF7F8F9C4F81C0231E100BF99
:1046100094F8140238B1D4F8100220B1B1A11522D7
:104620006423FDF793FE4FF47D400025A4F80202B9
:1046300084F80452C4F81C52284610B0BDE8F0813A
:104640004FF48070A4F802020025284610B0BDE89F
:10465000F08100BF94F81402B0B14AF28651C0F65E
:104660000001684605F020FB94F8140260B1D4F80C
:1046700010524DB16E463046FBF717FE82B2284607
:1046800031466423FDF762FE002520464FF4FE719B
:1046900084F80252C4F81C52FBF7F0FD84F804526F
:1046A000E7E000BF98F8000084F817020220DEE07F
:1046B00098F8000084F819020320D8E098F8000068
:1046C00010B1FF2840F092804FF47F40A4F802021E
:1046D00094F814020025002884F8045200F0DE80CB
:1046E000D4F81002002800F0D9809CA1162264237F
:1046F000FDF72CFED2E000BF94F8150294F81612D4
:10470000814280F0B68098F8002063180131814220
:1047100083F8FE2084F8161240F0AB800520A6E056
:1047200094F8150200285FD0421E40F2B04C00F011
:10473000030E032AC2F2000C60D20022002377E0AD
:10474000002084F8040298F8000081283ED194F8F3
:104750001932FF2B24D004F1FE00C65CC118EEB163
:104760007E2233440A70D9B2465C50FA83F1AEB16E
:104770003344DFB2C65D0A7050FA83F176B1334438
:10478000DFB2C65D0A7050FA83F13EB13344DFB246
:10479000C65D0A70002E50FA83F1E2D17E200870C7
:1047A00094F81502022184F80202D4F8080284F871
:1047B0000312002800F08C8094F80C1294F8172251
:1047C0008A4279D250F82200804781E094F814029E
:1047D0004FF47E41A4F8021218B148A12046FFF719
:1047E000D5FC00255AE000BF00223BE084F815020A
:1047F000002084F81602042039E000BF00F0FC0617
:1048000000230CF105000022E11891F8FE7091F8E8
:10481000FF507A40825C91F800716A40825C91F8A6
:1048200001117A40825C04335140425C9E42EBD1DC
:10483000BEF1000F16D004F1FE00C15CBEF1010F05
:1048400081EA020161444A790CD018444178BEF1F2
:10485000020F81EA020161444A7903D08078504016
:104860006044427998F8000082420BD1062084F817
:1048700004024FF440700025A4F80202284610B04C
:10488000BDE8F08194F814020025A4F8025284F8DF
:10489000045218B12CA12046FFF778FC20464FF4B3
:1048A000FE7184F80252C4F81C52FBF7E7FC28465C
:1048B00010B0BDE8F08100BF94F8140240B16D461D
:1048C00015A1284605F0F0F920462946FFF75EFCC1
:1048D000002094F81552C4F81C02284610B0BDE818
:1048E000F08100BF4552524F523A205354414C453B
:1048F000205041434B45540D0A0000004552524F91
:10490000523A2053544F505F425954455F455252DA
:104910004F520D0A000000004552524F523A204EAD
:104920006F2063616C6C6261636B20617661696C9E
:1049300061626C6520666F72207061636B657420C4
:1049400049442025640D0A004552524F523A2043F3
:1049500052435F4552524F520D0A00004552524F8A
:10496000523A205041594C4F41445F4552524F52A8
:104970000D0A000080B5002180F80212C0F81C1258
:104980004FF4FE71FBF77AFC80BD000080B54368F0
:1049900003EB020CC0F804C019B108461946FBF736
:1049A00054FC012080BD000080B5D0F804C00CEBA1
:1049B000020343606046FBF748FC012080BD000015
:1049C0002DE9F04786B09146927D824602F00F02B3
:1049D0000B2A00F22381DFE812F099000D000D0090
:1049E0000D00B100D300E3000101210021002101ED
:1049F000310100BF481EFD2836D8DAF80C004AF213
:104A0000AE41C0F60001002818BF0146CAF80C10DC
:104A10000026304606B0BDE8F08700BF022940F00E
:104A2000258105A95046002201F07EFDB0B1DAF8DB
:104A30000C209AE80B00CDE90232059A01919342CD
:104A4000009080F0DB81DAF80C004AF21051C0F6D9
:104A50000001002818BF0146CAF80C100026304695
:104A600006B0BDE8F08700BF032A00F00F81022ADC
:104A700040F05281DAF808000025E84600270026B9
:104A8000002800F0DD81DAF800305046414601226E
:104A90009847002800F0EC81DAF808009DF8001033
:104AA00001383F2DCAF8080028BF022980F0308263
:104AB00001F07F02C5F1200422FA04F4B5F12003CD
:104AC00058BF02FA03F402FA05F249B258BF0022B5
:104AD00026431743B1F1FF3F05F10705D0DDB9F8D3
:104AE00012000138072800F25982DFE810F00900AF
:104AF000930257029902570257025702B30200BFAE
:104B0000D9F81C00FF2107708FE200BF481EFD2866
:104B100040F2AC80D9F81C5069465046002201F0A2
:104B200003FD064600283FF474AF0098002818BF24
:104B300001202870304606B0BDE8F087052902D074
:104B4000FF2940F09380DAF80800032821D9DAF829
:104B50000030D9F81C506946504604229847002876
:104B600000F04481DAF808000126043838BF00203C
:104B70000099CAF808002960304606B0BDE8F08701
:104B8000012901D0FF2971D1DAF80800072800F2C5
:104B90001381DAF80C004AF2E241C0F600016BE042
:104BA000022963D1694650460022002601F0BCFC70
:104BB00000283FF42EAF009EB6F5803F80F0E781DD
:104BC00099F8160000F0C000802840F0DB81DAF888
:104BD0000C004AF22851C0F600014DE0022945D1EF
:104BE000D9F81C70694650460022002601F09CFC52
:104BF00000283FF40EAF009A501C00F0AB8199F8EA
:104C0000160000F0C000802840F0AC81DAF80C00FB
:104C10004AF22851C0F600012EE000BFDAF80C007D
:104C20004AF29B41C0F600010026002818BF014649
:104C3000CAF80C10304606B0BDE8F087022915D13D
:104C4000694650460022002601F06EFC00283FF421
:104C5000E0AE009AB2F5803FC0F05081DAF80C0067
:104C60004AF23A51C0F6000106E000BFDAF80C0043
:104C70004AF2AE41C0F60001002818BF0146CAF84A
:104C80000C100026304606B0BDE8F087DAF80800C0
:104C90000025E84600270026002800F0D980DAF831
:104CA00000305046414601229847002800F0E88035
:104CB000DAF808009DF8001001383F2DCAF8080006
:104CC00028BF022980F02C8101F07F02C5F1200469
:104CD00022FA04F4B5F1200358BF02FA03F402FAF1
:104CE00005F249B258BF002226431743002905F1B7
:104CF0000705D1D45FEA560007F001024FEA3701F9
:104D000052424FF0000363F1000380EA0307B9F851
:104D1000120081EA02063AE0DAF808000025E846C7
:104D200000260027002800F09B80DAF8003050466B
:104D3000414601229847002800F0AA80DAF80800CE
:104D40009DF8001001383F2DCAF8080028BF02293D
:104D500080F0EE8001F07F02C5F1200422FA04F415
:104D6000B5F1200358BF02FA03F402FA05F249B282
:104D700058BF002227431643B1F1FF3F05F1070555
:104D8000D0DDB9F81200082800F0DA80F7170138F2
:104D9000072800F20381DFE810F009001D0101017E
:104DA0002301010101010101D30000BFD9F81C005A
:104DB00071B20670C81718E1DAF80030D9F81C5043
:104DC000694650460822984780B1DAF80800012663
:104DD000083838BF0020DDE90012CAF80800C5E92C
:104DE0000012304606B0BDE8F08700BFDAF80C00CC
:104DF0004AF2F041C0F600013EE700BFDAF80800D1
:104E00000292801ACAF80800D9F82400002800F09D
:104E1000A58099F8160000F00F00092840D1D9F8B4
:104E20002000E8B350F8083CD3B3021F6846494657
:104E30009847029A0746B2FA82F0400932E000BF72
:104E4000DAF80C004AF2E241C0F6000114E700BFB4
:104E5000DAF80C004AF2E241C0F600010CE700BFAC
:104E6000DAF80C004AF2E241C0F6000104E700BFA4
:104E7000DAF80C004AF2F041C0F60001FCE600BF8F
:104E8000DAF80C004AF2F041C0F60001F4E600BF87
:104E9000DAF80C004AF2F041C0F60001ECE600BF7F
:104EA00000200127AFB1A0B999F8160000234028CF
:104EB00000F0300038BF0123203818BF0120D9F896
:104EC0002410D9F81C200340684601F0C5F9029A65
:104ED00007463AB168460021002602F0B7F80028DC
:104EE0003FF497AD01980399CAF80400CAF80C1072
:104EF0003E46304606B0BDE8F08700BF002A55D0D8
:104F0000B9F8120082425DD1D9F81C10504631E048
:104F1000DAF80C004AF24951C0F60001ACE600BFD5
:104F2000DAF80C004AF24951C0F60001A4E600BFCD
:104F3000DAF80C004AF24951C0F600019CE600BFC5
:104F4000D9F81C00C0E900670126304606B0BDE86C
:104F5000F08700BFDAF80C0064A18DE6DAF80C00E7
:104F600057A189E6B9F8120082422FD20020B85426
:104F70005046394602F06AF80646304606B0BDE8AB
:104F8000F08700BFB9F81200B11C814232D9DAF8BB
:104F90000C004AF23A51C0F600016DE6DAF80C0056
:104FA0004AF2D041C0F6000166E600BFD9F81C0005
:104FB000B9F81210FBF762F90126304606B0BDE8D9
:104FC000F08700BFDAF80C0034A155E6DAF80C00DF
:104FD00042A151E6D9F81C0031B20680C81704E09E
:104FE000D9F81C0031460660F0177140784008433C
:104FF00028D121E0D9F81C1021F8026BE6B1DAF8CB
:105000000800B04230D2DAF80C004AF2E241C0F6B1
:10501000000131E6D9F81C004FF6FF71078004E06B
:10502000D9F81C004FF0FF310760002027EA01018A
:1050300026EA0000084305D10126304606B0BDE847
:10504000F08700BFDAF80C004AF28941C0F600018F
:1050500012E600BFD9F81C00C0E9007601263046F0
:1050600006B0BDE8F08700BFDAF80030504632469F
:10507000984758B1DAF80800801B38BF0020CAF8FA
:1050800008000126304606B0BDE8F087DAF80C00CB
:105090004AF2F041C0F60001EEE500BF696E636FB1
:1050A0007272656374206669786564206C656E67EA
:1050B00074682062797465732073697A65000000F2
:1050C000696E76616C6964206669656C64206465EC
:1050D0007363726970746F72000000007374726998
:1050E0006E67206F766572666C6F770073697A659C
:1050F00020746F6F206C617267650000F0B587B037
:10510000154612680446D268F2B1022922D16946D6
:105110002046002201F008FA90B1009FE26894E86E
:105120000B00BB42CDE905320491039044D2E06804
:105130004AF21051C0F60001002818BF0146E16094
:105140000025284607B0F0BD204607B0BDE8F04076
:1051500001F0C8BF052951D001291BD0002957D122
:10516000274657F8080F00284BD023686E46204684
:10517000314601229847002800F0448138689DF9A3
:105180000020411E38BF0021B2F1FF3F396075DDBC
:1051900001205FE0A068072833D9236869462046CC
:1051A00008229847002800F02D81A068083838BFF1
:1051B0000020A06008204DE0A06803AEC01B05974A
:1051C000A06000BF28680021C36830462A4698477F
:1051D00020B3059A12B1BA421746F3D332B103A8ED
:1051E0000021002501F032FF0028AAD0049806997A
:1051F0006060E1600125284607B0F0BDA068032883
:105200001AD8E0684AF2E241C0F60001FFE000BFB0
:10521000E0684AF2BE41C0F60001F8E00699E06895
:1052200082A2002918BF0A46002818BF0246E26081
:105230000025284607B0F0BD2368694620460422B1
:105240009847002800F0DE80A068043838BF0020AE
:10525000A060042044F68D11C0F600010391694658
:10526000049100212A680691D368059003A80021C3
:105270002A4698470546284607B0F0BD0228C0D305
:105280002368711C204601229847002800F0BA804C
:1052900038689DF90120411E38BF0021B2F1FF3F5F
:1052A000396001DD0220D5E70228AAD32368B11CAA
:1052B000204601229847002800F0A48038689DF914
:1052C0000220411E38BF0021B2F1FF3F396001DDED
:1052D0000320BFE7022894D32368F11C2046012253
:1052E0009847002800F08E8038689DF90320411E01
:1052F00038BF0021B2F1FF3F3960AADC0228FFF479
:1053000080AF2368311D204601229847002879D0BC
:1053100038689DF90420411E38BF0021B2F1FF3FDB
:10532000396001DD052095E70228FFF46AAF2368A4
:10533000711D204601229847002863D038689DF9E6
:105340000520411E38BF0021B2F1FF3F396001DD69
:1053500006207FE70228FFF454AF2368B11D2046E2
:105360000122984700284DD038689DF90620411E3B
:1053700038BF0021B2F1FF3F396001DD072069E746
:105380000228FFF43EAF2368F11D20460122984712
:10539000C0B338689DF90720411E38BF0021B2F123
:1053A000FF3F396002DD082054E700BF0228FFF408
:1053B00028AF236806F1080120460122984708B368
:1053C00038689DF90820411E38BF0021B2F1FF3F27
:1053D000396001DD09203DE70228FFF412AF2368A0
:1053E00006F1090120460122984758B138689DF915
:1053F0000910013838BF0020B1F1FF3F38600FDDE0
:105400000A2027E7E0684AF2F041C0F600010028D0
:1054100018BF0146E1600025284607B0F0BD00BF77
:10542000E0684AF24951C0F60001F0E763616C6C34
:105430006261636B206661696C656400F0B58BB076
:105440000E46917D0446C1F301101546DFE800F0D9
:1054500068020832286A00281CBF012101705FE041
:10546000022E51D101F00E0005284DD82F6AA869EF
:10547000698A3A8802FB01000AA9E86120460022F5
:1054800001F052F890B1E06894E80E00CDE90230E6
:105490000A980192834200914AD2E0684AF2105180
:1054A000C0F60001002818BF0146E16000200BB0E3
:1054B000F0BD00BF01F00E0008281AD1286A298A21
:1054C0000088884215D0E869698AFAF7D7FE696AC8
:1054D000886820B9C86810B94868006848B1EA69A6
:1054E000684601F0A7FB20B1684601F0D9FC00280E
:1054F0003CD0288A296A2A46088020463146FFF790
:105500005FFA0BB0F0BD00BF296AA8696A8A0B88F0
:1055100003FB0200E861581C0880A88A834235D248
:10552000204631462A460BB0BDE8F040FFF748BAA6
:10553000A168A1EB00010290A160E8B138886E4635
:10554000A98A80B2884221D23046FF212A46FFF73D
:1055500037FAC8B1388801303880E9696A8A029B15
:105560001144002BE961EBD1012006E0E0684AF22A
:10557000F941C0F600010EE001200199039A616033
:10558000E2600BB0F0BD00BF029858B1E0684AF28B
:105590005951C0F60001002818BF0146E160002003
:1055A0000BB0F0BD0020E8E72DE9F04182B00F46D6
:1055B000C969C9B10446B87D00F00F000C2804D2B7
:1055C00040F6FF31C140C90714D120694AF29B411E
:1055D000C0F60001002818BF0146216100263046B0
:1055E00002B0BDE8F08100BF0126304602B0BDE840
:1055F000F08100BF4AF27211C0F60001085C398ADE
:10560000002340EAC1022046002601F025FA0028C6
:10561000E5D0B87D00F00F020B2A59D8DFE802F080
:10562000300606060E0E3C4C1616586620463946C5
:1056300002B0BDE8F04101F083B800BF2046394612
:1056400002B0BDE8F04101F033B800BF796A00292B
:1056500072D0092A0CD1386A50B150F8083C3BB1DD
:10566000021F204639469847002800F0FD80796ADD
:10567000FA69204602B0BDE8F04101F001B900BF6F
:10568000F869002302782046002A18BF012202B0E0
:10569000BDE8F04101F0E0B9FD69002D00F0A28005
:1056A000B5F800803F2877D8788A0238404573D211
:1056B0002069A6A104E100BFFD6900F0C0008028B8
:1056C0003ED1002D00F0A6804FF0FF3041E000BF3A
:1056D00020694AF29B41C0F600010026002818BF4D
:1056E00001462161304602B0BDE8F0817D8AFF6944
:1056F00020462A460023002601F0AEF900283FF498
:105700006EAF85B1236873B1E068401980F0D38033
:10571000A168884200F2CF80204639462A46984741
:10572000002800F0EB80E06801262844E060304665
:1057300002B0BDE8F08100BF206973A1C0E000BFE6
:10574000788A002800F08080002D63D0013800F0B6
:10575000918005EB000C42420027EB5D002B00F02E
:105760009880D3195E1C00F08780EE1971780029AB
:1057700000F08A80991C00F07F80B178002900F049
:105780008580D91C78D0F178002900F08180043719
:10579000D119E2D170E000BF204642460023002626
:1057A00001F05AF900283FF41AAFB8F1000F10D0F9
:1057B000236873B1E06810EB080080F07C80A1687A
:1057C000884278D8A91C204642469847002800F015
:1057D0009580E06801264044E060304602B0BDE8B4
:1057E000F08100BF236800208DF8060023B3E06835
:1057F000411C2DD0A16888422AD20DF10601204615
:1058000001229847C0B920694AF2F041C0F6000170
:1058100056E000BF236800208DF8070063B1E06800
:10582000411C1BD0A168884218D20DF10701204607
:105830000122984700284DD0E06801260130E06041
:10584000304602B0BDE8F081206936A138E000BFE3
:1058500020694AF26851C0F6000131E020694AF23D
:105860006851C0F600012BE00026304602B0BDE8CA
:10587000F08100BF0020AC469CF80010074641B103
:1058800020692DA11CE000BF013702E0023700E0D3
:10589000033720463A460023002601F0DDF80028B1
:1058A0003FF49DAE0FB32368FBB1E068C01902D28C
:1058B000A168884214D920694AF26851C0F60001F3
:1058C000002818BF014621610026304602B0BDE81D
:1058D000F08100BF20694AF2F041C0F60001EFE715
:1058E000204629463A46984740B1E06801263844A8
:1058F000E060304602B0BDE8F08100BF20694AF2A6
:10590000F041C0F60001DBE7696E76616C696420E6
:105910006669656C642064657363726970746F7224
:10592000000000007A65726F2D6C656E67746820E8
:10593000737472696E670000756E7465726D696E5E
:105940006174656420737472696E6700627974654E
:10595000732073697A6520657863656564656400A2
:105960002DE9F04F85B00D46897D044601F03002E7
:10597000102A0BD0302A15D1286A298A008888423B
:1059800010D00127384605B0BDE8F08F286A18B15D
:10599000007838B940E000BF3F2903D8284600F01E
:1059A000A3FBC8BBEE69A87DB6B100F0C0014029D9
:1059B00020D12868C3687BB3002021462A46984737
:1059C00050BB20699DA1002818BF01462161002716
:1059D000384605B0BDE8F08F10F0300F1CD12069BB
:1059E0009AA10027002818BF01462161384605B05A
:1059F000BDE8F08F00F03002202A13D12A6AB2F8F5
:105A00000090B9F1000F07D0802913D0A98A8945E9
:105A100010D9206981A1D6E70127384605B0BDE835
:105A2000F08F00BF2046294605B0BDE8F04FFFF7D4
:105A3000BBBD00BF00F00E00062815D2288A002347
:105A4000C000821C2046002701F006F800283FF421
:105A500099AFA87D00F00F00052859D004285BD12C
:105A60004FEA890872E000BF4AF2721840F6FF3B25
:105A7000C0F600084FF0000A012712E03168E96122
:105A8000E1B120462946FFF78FFD0028EE6100F0C6
:105A90008580688A0AF1010A0644CA45EE61BFF4AE
:105AA00071AFA87D00F0CE018629E7D020462946B7
:105AB000FFF77AFD002871D0EE69EAE700F00F00E9
:105AC0000C2871D22BFA00F1C9076DD018F800002C
:105AD000298A002340EAC102204600F0BDFF0028C9
