:020000040800F2
:10000000084F0020C1010008712D00088D22000852
:100010006D2D0008010300080132000800000000F7
:10002000000000000000000000000000D12E0008C9
:100030009105000800000000812D0008CD2F000868
:10004000DB010008DB010008DB010008DB01000820
:10005000DB010008DB010008DB0100089D0500084A
:10006000DB010008A5050008AD050008DB0100085C
:10007000DB010008DB010008DB010008DB010008F0
:10008000DB010008DB010008DB010008DB010008E0
:10009000DB010008DB010008DB010008B5050008F2
:1000A000DB010008DB010008DB010008DB010008C0
:1000B000DB010008DB010008DB010008DB010008B0
:1000C000DB010008DB010008DB010008DB010008A0
:1000D000DB010008DB010008F5310008DB01000846
:1000E00095050008DB010008DB010008DB010008C2
:1000F000DB010008DB010008DB010008DB01000870
:10010000DB010008DB010008DB010008DB0100085F
:10011000DB010008DB010008DB010008DB0100084F
:10012000DB010008DB010008DB010008DB0100083F
:10013000DB010008DB010008DB010008DB0100082F
:10014000DB010008DB010008DB010008DB0100081F
:10015000DB010008DB010008DB010008DB0100080F
:10016000DB010008DB010008DB010008DB010008FF
:10017000DB010008DB010008DB01000800000000D3
:10018000DB010008DB010008DB010008DB010008DF
:10019000DB010008DB010008DB010008DB010008CF
:1001A000DB010008DB010008DB010008DFF80CD0F0
:1001B00000F094F80048004741340008084F002040
:1001C0000648804706480047FEE7FEE7FEE7FEE7F1
:1001D000FEE7FEE7FEE7FEE7FEE7FEE7E52F0008A5
:1001E000AD0100082DE9F05F0546002092469B46D0
:1001F00088460646814640241BE02846414647463D
:10020000224600F05AF853465A46C01A914110D37C
:1002100011461846224600F041F82D1A67EB0108F6
:100220004F4622460120002100F038F817EB000964
:100230004E41201EA4F10104DFDC484631462A4627
:100240004346BDE8F09F40EA01039B0703D009E065
:1002500008C9121F08C0042AFAD203E011F8013BB2
:1002600000F8013B521EF9D27047D2B201E000F80B
:10027000012B491EFBD270470022F6E710B513464A
:100280000A4604461946FFF7F0FF204610BD421CFF
:1002900010F8011B0029FBD1801A7047202A04DBCB
:1002A000203A00FA02F1002070479140C2F1200389
:1002B00020FA03F3194390407047202A04DB203AC8
:1002C00021FA02F00021704721FA02F3D040C2F176
:1002D000200291400843194670470000064C074D24
:1002E00006E0E06840F0010394E807009847103406
:1002F000AC42F6D3FFF75EFFAC630008CC630008A6
:10030000FEE700002DE9F04F83B00E46044640F2B0
:100310000009052004210192C4F2020900F0DCF872
:100320000A20802102F0E6FD6EB340F2DC1A013CA7
:100330004FF06408C2F2000A0DF10B070DF10A0537
:1003400014F801BF48461021002200F00FFB1220D4
:100350008DF80B00504639462A460123CDF800801F
:1003600001F094FA504639462A4601238DF80BB025
:10037000CDF8008001F08AFA48461021012200F0F1
:10038000F5FA013EDCD148461021002200F0EEFAD9
:1003900040F2DC160220C2F200060DF10B070DF14F
:1003A0000A048DF80B004FF06408304639462246A7
:1003B0000123CDF8008001F069FA03208DF80B00CD
:1003C0000DF10B010DF10A0230460123CDF800803A
:1003D00001F05CFA48461021012200F0C7FAFF251F
:1003E0004FF08A0B48461021002200F0BFFA304639
:1003F0003946224601238DF80BB0CDF8008001F07C
:1004000045FA00208DF80B0030463946224601237C
:10041000CDF8008001F03AFA9DF80AA04846102174
:10042000012200F0A3FA013D280602D01AF00400D0
:10043000D8D04846102100224FF0000800F096FA6C
:1004400040F2DC14C420C2F200048DF80B006425D5
:100450000DF10B010DF10A0220460123009501F078
:1004600015FA0DF10B010DF10A02204601238DF85A
:100470000B80009501F00AFA9DF80A704846102199
:10048000012200F073FA019E4846102100223770C5
:1004900000F06CFAC2208DF80B000DF10B010DF18C
:1004A0000A0220460123009501F0F0F90DF10B013D
:1004B0000DF10A02204601238DF80B80009501F012
:1004C000E5F99DF80A4048461021012200F04EFA55
:1004D000747003B0BDE8F08F2DE9F04784B040F2AE
:1004E0000008C4F202088A4606464046102100224F
:1004F0004FF0000900F03AFA802040F2DC1540EAA3
:100500004600C2F200058DF8090064240DF10901CE
:1005100002AA28460123009401F0B8F90DF10B015D
:100520000DF10A02284601238DF80B90009401F08A
:10053000ADF99DF80A7040461021012200F016FA2C
:1005400040461021002227EA0A0700F00FFA7E2019
:1005500000EA46008DF80D000DF10D0103AA2846B2
:100560000123009401F092F90DF10F010DF10E023B
:10057000284601238DF80F70009401F087F940465A
:100580001021012200F0F2F904B0BDE8F08700006C
:10059000704700004FF4806000F002B9022000F0C4
:1005A000FFB80000082000F0FBB80000102000F0A9
:1005B000F7B8000080B5202000F0F2F84020BDE838
:1005C000804000F0EDB80000EFF3108072B600BF7D
:1005D000FEE7000070B5866D044600F0CDF994F892
:1005E0003510022928D105462068216C026822F0C6
:1005F00016020260426922F08002426109B9A16CD0
:1006000019B1016821F008010160016821F00101C0
:10061000016000BF20680068C00715D000F0ACF989
:10062000401B0628F6D320206065032084F835009F
:10063000002184F8341070BD802060650120002105
:1006400084F8341070BD00BFE06D3F2101FA00F066
:10065000B060012084F835000020002184F83410B7
:1006600070BD000090F83510022909D1052180F8ED
:1006700035100068016821F0010101600020704719
:100680008021416501207047B0B5044600F074F93F
:10069000054640F20400C2F200000078611C18BF59
:1006A000044400BF00F068F9401BA042FAD3B0BD7B
:1006B00010B582B00446B0F5806F16D140F2180034
:1006C000C2F2000000218068019101A904F0CCFE73
:1006D000019850B14EF60450CEF200004FF0805118
:1006E0000160BFF34F8FBFF36F8FA4F108004FEA93
:1006F000F00007282ED8DFE800F005152D252D2D58
:100700002D2F00BF41F20000C4F20200082100F0CA
:1007100027F901281ED100211AA005F0BBFB02B069
:1007200010BD00BF41F20000C4F20200102100F031
:1007300017F901280ED1012112A005F0ABFB02B080
:1007400010BD00BF41F20000C4F20200202100F001
:1007500007F988B102B010BD41F20000C4F20200F6
:10076000402100F0FDF80028F4D1032105A005F098
:1007700091FB02B010BD00BF022102A005F08AFB70
:1007800002B010BD427574746F6E20507265737341
:1007900065643A204D6F64652025640D0A000000F1
:1007A00043F61441C4F201010A68024214BF086012
:1007B0007047FFF77DBF00002DE9F04F82B000F1D8
:1007C0003E4242F2004502F1FF77C4F202050A22DE
:1007D00043F6004E4FEAB726A84208BF0922C4F2EA
:1007E000010E092E38BF4FEAB72201250026002747
:1007F0004FF00008009208E008F101080437B8F152
:10080000100F06F1020600F0A7800C6805FA08F93F
:1008100014EA090FF0D0D1F804B003220BF0030C56
:10082000ACF10104B240012C6FEA020A10D88268D0
:10083000CC6802EA0A02B440224382604268CBF3E9
:10084000001422EA090204FA08F42243426005E097
:10085000BCF1030F02D14FF0030C20E0C2688C689A
:1008600002EA0A02B4402243BCF1020FC26016D170
:100870006FF0030202EA58020244D2F820C007F0E7
:100880001C050F230C69AB402CEA030304FA05F5A1
:100890002B431362D1F804B001250BF0030C02685E
:1008A0000CFA06F302EA0A021A431BF4403F026004
:1008B000A2D0002243F644030192C4F202031A6854
:1008C0004FF6084C42F480421A601A68CFF6FF7C5B
:1008D00002F480420192019A28F00302724452F815
:1008E0000C3007F00C050F24AC40A343009C04FA25
:1008F00005F52B4342F80C30DEF808204B6842EA3D
:10090000090543F60C4CDC0258BF22EA0905CEF873
:100910000850C4F2010CDCF800209C0242EA0905F0
:1009200058BF22EA0905CCF80050DEF804209C03E9
:1009300042EA090558BF22EA0905CEF80450DEF85C
:100940000020DB0342EA090558BF22EA0905CEF878
:100950000050012550E700BF02B0BDE8F08F000055
:100960000069084018BF012070470000002A08BF36
:10097000090481617047000044F20C40C2F200009B
:100980000068704790F83D20202A1CBF0220704765
:10099000242280F83D200268136823F001031360CD
:1009A000536A23F010035362536A1943516211686A
:1009B00041F001011160202180F83D1000207047B6
:1009C00090F83D20202A1CBF02207047242280F886
:1009D0003D20026889B2136823F001031360D2F846
:1009E00024C04FF6F07303EA0C03194351621168F7
:1009F00041F001011160202180F83D100020704776
:100A000070B5B8B3044690F83D0028B9002084F8CA
:100A10003C00204600F0ECFA242084F83D002068D9
:100A2000016821F001010160016841F400410160A9
:100A3000016821F40041016000F080FC48F280412F
:100A4000C0F21E0140F60013D4F804E088424FF0D3
:100A50000001C0F23D0348F2A16C4FF0000238BF24
:100A600001219842C0F2010C38BF0122E64538BF8F
:100A70000A460AB1012070BD4DF68361C4F21B31F4
:100A8000A0FB01122168950C4B684FF4967623F079
:100A90003F0343EA9243754344F6D3564B60C1F299
:100AA00062060B6AA5FB0656B50923F03F03E6452F
:100AB00038BF950C6A1C1A430A62CA6948F2A066DC
:100AC0004CF6FF73C0F20106B64522EA03020BD8CA
:100AD00001384FEA4E03B0FBF3F001306FF31F30E3
:100AE000042898BF04201EE0A368013863B11923CD
:100AF0000EFB03F3B0FBF3F001306FF31F3078B15E
:100B000000F5804008E000BF0EEB4E03B0FBF3F0B1
:100B100001306FF31F3028B100F5004003E000BF43
:100B2000012000E001201043C8610868D4E90723D0
:100B300020F0C000104318430860886848F2FF3274
:100B400004F10C0690434CCE18431043A56988600D
:100B5000C86820F0FF0030432843C860086840F0B0
:100B60000100086000202021206484F83D102063EB
:100B700084F83E0070BD00002DE9F04381B01F46AF
:100B8000164688460446FFF7F7FE94F83D102029E4
:100B900020D1054620688169890717D5FFF7ECFE4B
:100BA000401B1928F6D900202021206384F83D102D
:100BB00084F83E00216C022641F02001216484F873
:100BC0003C00304601B0BDE8F08300BF94F83C1013
:100BD000012905D10226304601B0BDE8F08300BFEF
:100BE000012184F83C100168C90703D1016841F074
:100BF00001010160016821F400610160212184F894
:100C00003D10102184F83E10002121646662678542
:100C1000618D21850021CFF6FF71E162E16A11F556
:100C2000803F18BF012919D1016841F4807101602A
:100C30004169DDF82090C90723D119F1010116D0CF
:100C4000B9F1000F46D000BFFFF796FE401B4845A4
:100C500042D820684169C907F6D012E00829E3D0DC
:100C6000216B1229E0D0E3E74169C90709D1416945
:100C7000C90706D14169C90704BF41695FEAC1716B
:100C8000F2D02169B1F5804F02D1FE2161E000BFB1
:100C9000062101EAD811F03101614169090757D4F1
:100CA000416919F1010201F480612FD0002946D178
:100CB000B9F1000F00F04281FFF75EFE401B48458E
:100CC00000F23E8120684169090741D44169490524
:100CD000F2D534E0FFF750FE00202021206384F895
:100CE0003D1084F83E00216C012641F02001216472
:100CF000216884F83C000868C00544BF4FF40070C8
:100D00002064304601B0BDE8F08300BFB9B9416945
:100D100009071DD44169490511D44169090717D450
:100D2000416949050BD44169090711D44169490555
:100D300005D4416909070BD441694905E7D5016824
:100D400041F4007101606FF4806141610420F8E0BA
:100D5000FF2101EA08010161416989073AD441692B
:100D600019F1010201F4806112D051BBB9F1000FF9
:100D700000F0E080FFF700FE401B484500F2DC80F9
:100D800020684169890725D441694905F2D518E0F1
:100D9000B9B9416989071DD44169490511D441692F
:100DA000890717D4416949050BD44169890711D4D2
:100DB0004169490505D4416989070BD44169490551
:100DC000E7D5016841F4007101606FF48061416111
:100DD0000420B6E0002600964169009181690091E7
:100DE0000099218D002900F0958009F10108014644
:100DF00051F8142F120635D4B8F1000F16D0B9F1FE
:100E0000000F00F0AF8000BF0868400500F1B2801D
:100E1000FFF7B2FD401B484500F2A980206801465B
:100E200051F8142F1206EFD51CE000BF0A685205D6
:100E300000F1A0800A68120614D40A68520500F175
:100E400099800A6812060DD40A68520500F1928052
:100E50000A68120606D40A68520500F18B800A68F7
:100E60001206E3D5636A194611F8012B026161622B
:100E7000618D01396185278D0146A7F1010CA4F828
:100E800028C051F8142F52070DD55FEA0C420AD042
:100E90005A78A7F1020C02619A1C6262628D013AD3
:100EA0006285A4F828C00A6852072FD4B8F1000F51
:100EB00014D0B9F1000F7BD00868400500F18080A4
:100EC000FFF75AFD401B484577D82068014651F886
:100ED000142F5207F0D5B4F828C017E00A6852055D
:100EE0006ED40A68520711D40A68520568D40A6899
:100EF00052070BD40A68520562D40A68520705D417
:100F00000A6852055CD40A685207E7D55FEA0C41CB
:100F10007FF46DAF016841F400710160202084F816
:100F20003D0084F83E6084F83C60304601B0BDE886
:100F3000F08300BFFFF720FD202002E0FFF71CFD3B
:100F4000202000212022216384F83D2084F83E10D7
:100F5000226C01261043206484F83C10304601B016
:100F6000BDE8F0830868400504D4FFF705FD2020A4
:100F700004E000BF6FF4806008600420002120229C
:100F8000216384F83D2084F83E10226C10432064D5
:100F900084F83C10206C042825D1206801260168C3
:100FA00041F400710160304601B0BDE8F08300BF3C
:100FB0000868400504D4FFF7DFFC202004E000BFF0
:100FC0006FF480600860042000212022216384F8EF
:100FD0003D2084F83E10226C1043206484F83C10BD
:100FE000206C0428D9D00126304601B0BDE8F0833A
:100FF000B0B586B0016845F20040C4F200008142FD
:1010000002D006B0B0BD00BF002443F63005019405
:10101000C4F20205296800F5D83041F002012960C8
:10102000296801F00201019101994FF44071019189
:101030001221CDE90214032104910421059101A993
:10104000FFF7BAFB0094286940F400102861286972
:1010500000F400100090009806B0B0BD40F204000B
:1010600044F20C41C2F20000C2F2000100780A68AA
:10107000104408607047000080B543F60040C4F299
:101080000200016841F400710160016841F480616F
:101090000160016841F480710160032000F08EF866
:1010A0000F2000F005F800F027F8002080BD0000B8
:1010B00070B540F20406C2F2000640F20C0132782C
:1010C000C2F200014FF47A730968B3FBF2F20446EE
:1010D000B1FBF2F1084600F065FD0F2C4FF0010561
:1010E00008D838B94FF0FF3021460022002500F023
:1010F00039F87460284670BD82B0002043F6400184
:101100000190C4F202014A6842F480424A604A688F
:1011100002F480420192019A00900868002240F097
:101120008050086008680F2100F0805000900098FF
:101130006FF0010002B000F015B80000002848BFB1
:101140007047C1B200F01F00012202FA00F04EF217
:101150000012CEF2000242EAD10121F00301086040
:101160007047000010B54EF60C5CCEF2000CDCF8B7
:101170000030C3F3022E8EF00704042C28BF042491
:10118000BEF103034FF0FF3E0EFA04F438BF002314
:10119000A14399400EFA03F39A43114300F00F0262
:1011A00000F160430901043A03F5644362440028F6
:1011B00048BF02F10C03197010BD00004EF60C512F
:1011C000CEF200010A684FF6FF031A4060F30A22CC
:1011D00042F0806040F0FD70086070472DE9F041FA
:1011E000002800F08B8043F60808C4F20208044689
:1011F000D8F8F8030D4600F00F00884207D288F8AF
:10120000F853D8F8F80300F00F00A84276D1206810
:10121000810717D5410705D5D8F8001041F4E051F2
:10122000C8F80010010705D5D8F8001041F4604156
:10123000C8F80010D8F80010A26821F0F00111439E
:10124000C8F80010C0073FD1D8F8F80300F00F002D
:10125000A84207D988F8F853D8F8F80300F00F002F
:10126000A8424BD12068410707D5D8F80010E268A2
:1012700021F4E0511143C8F80010000708D5D8F850
:101280000000216920F4604040EAC100C8F8000075
:1012900000F07CF8D8F8001046F25C32C1F303117C
:1012A000C0F60002515C40F20C0220FA01F140F25B
:1012B0000800C2F200000068C2F200021160FFF7ED
:1012C000F7FE0020BDE8F0816068811E022907D288
:1012D00058F8081C89015CBF0120BDE8F08111E0CD
:1012E000012807D158F8081C89035CBF0120BDE81C
:1012F000F08107E058F8081C890703D40120BDE8F5
:10130000F08100BFD8F8001021F003010843C8F8AD
:101310000000FFF731FB064641F28837D8F800009D
:10132000616800F00C00B0EB810F8DD0FFF724FB5B
:10133000801BB842F2D90320BDE8F08140F20C00D6
:1013400043F60801C2F20000C4F202010068096815
:1013500046F26C32C1F38221C0F60002515CC840F3
:101360007047000040F20C0043F60801C2F2000092
:10137000C4F202010068096846F26C32C1F34231DE
:10138000C0F60002515CC8407047000010B543F63B
:101390000404C4F20204606800F00C0008280BD0BA
:1013A000042819BF42F20040C0F2F40047F64000A2
:1013B000C0F27D1010BD00BF20682168236849027B
:1013C00047F64001C0F27D1100F03F02C3F38810E0
:1013D0005CBF42F20041C0F2F401A1FB0001002316
:1013E000FEF700FF21680222C1F3014102EB410137
:1013F000B0FBF1F010BD00002DE9F04182B00028F3
:1014000068D00446007843F60006C007C4F202061E
:101410000BD0B06800F00C00042840F09F803068CA
:10142000800302D56068002854D0207880071AD540
:10143000B06810F00C0F09D0B06800F00C0008285C
:1014400040F0A6807068400200F1A28030688007FA
:1014500002D5E06801283DD13068216920F0F8000C
:1014600040EAC10030602078000737D42078400778
:101470004CD4A56955B3B06800F00C00082840F0C2
:10148000BB80012D26D07068E16900F480028A4299
:1014900020D1216A00F03F028A421BD147F6C07179
:1014A000626A0140B1EB821F14D1A16A4FF6FF734B
:1014B000C903994300F44032A1F580318A4209D131
:1014C000E16A00F07060B0EB016F03D1002002B060
:1014D000BDE8F081012002B0BDE8F081606900281C
:1014E00040F20000C4F2472076D00121C0F8801EEF
:1014F000FFF742FA054600BF706F8007B6D4FFF7CA
:101500003BFA401B0228F7D9DDE000BF306C10F039
:1015100080580AD100200190306C40F08050306437
:10152000306C00F080500190019847F20007C4F23F
:1015300000073868C00541D4386840F480703860CE
:10154000FFF71AFA054600BF3868C00536D4FFF722
:1015500013FA401B0228F7D9B5E000BFB06800F0CD
:101560000C00082803D1706840023FF558AF60684E
:10157000B0F5803F07D0B0F5A02F40F08D803068E7
:1015800040F480203060306840F4803030608DE07E
:10159000E068002852D00020C4F2472001210160F9
:1015A000FFF7EAF9054600BF306880073FF554AF02
:1015B000FFF7E2F9401B0228F6D984E0A068012871
:1015C00005D005284ED1306F40F004003067306FF1
:1015D00040F0010030674FE00021C0F8801EFFF7A7
:1015E000CBF90546706F80077FF540AFFFF7C4F970
:1015F000401B0228F6D966E00027C4F247270020E6
:101600003866FFF7B9F9022D05460BD13068800125
:101610005ED5FFF7B1F9401B02284FF00300F5D962
:1016200055E700BF306880017FF550AFFFF7A4F9A0
:10163000401B02284FF00300F4D948E70020C4F211
:10164000472000210160FFF797F9054630688007C1
:101650007FF509AFFFF790F9401B02284FF0030018
:10166000F4D934E7316F002821F001013167316F7F
:1016700021F0040131674DD0FFF77EF9054641F2B4
:10168000883700BF306F800756D4FFF775F9401BCD
:10169000B842F7D917E000BF3168002821F4803143
:1016A0003160316821F4802131604FD0FFF764F957
:1016B000054600BF306880033FF5B7AEFFF75CF921
:1016C000401B6428F6D9032002B0BDE8F08100BFBA
:1016D00004F11C052FCD084340EA8210D9034FF6D0
:1016E000FF729143A1F5803140EA056008437060C4
:1016F00001203866FFF740F9044600BF30688001DA
:101700003FF5E4AEFFF738F9001B02284FF0030065
:10171000F4D9DCE6FFF730F9054641F2883700BF1F
:10172000306F800708D5FFF727F9401BB8424FF00C
:101730000300F5D9CBE600BFB8F1000F7FF499AEF6
:10174000306C20F08050306493E600BFFFF714F94E
:10175000054600BF306880037FF567AEFFF70CF9E0
:10176000401B64284FF00300F4D9B0E670B538B1DF
:101770000446406A30B10020206104F1140007E003
:10178000012070BD6068B0F5827F03D004F11C00B9
:10179000002101600026A66294F8510020B920467D
:1017A00084F8506000F03CF8022084F8510094E87E
:1017B0000F0001F48271056802F4044225F040052F
:1017C0000560114403F400622369114403F002022E
:1017D0006369114403F00102A369E569114403F44C
:1017E0000072114405F03802256A114405F08002A8
:1017F000A56A114305F4005211430160626A042195
:1018000001EA134102F0100211444160C16921F460
:101810000061C1610120666584F85100304670BDE9
:1018200080B586B0016843F20000C4F20100814235
:1018300002D006B080BD00BF002143F63002019106
:10184000C4F20202536900F5504043F480535361DF
:10185000536903F480530193019B0191136843F092
:1018600001031360126802F001020192019AE02262
:1018700001920222CDE90221032104910521059163
:1018800001A9FEF799FF06B080BD00002DE9F043E5
:1018900083B0044690F85000012803D1022003B021
:1018A000BDE8F08301201E4615460F4684F850001F
:1018B000FFF762F894F851108146012940F09880B2
:1018C000002F4FF0010018BF002D00F09E80002E69
:1018D00000F09B8094F85100002104281CBF0520D3
:1018E00084F851006165A563E687A6872763E686CD
:1018F0002068A686216461640168490603D40168F2
:1019000041F0400101606168731EE268B1FA81F143
:10191000B3FA83F3DDF8288049095B09B2F5006F5B
:1019200041EA03017AD131B137F8021BC160276364
:10193000E08E0138E086012518F1010031D101E087
:10194000FFF71AF8E08E18B9E08F002800F0D08079
:101950002068816889070CD5E18E51B1012D08D12D
:10196000216B002531F8022BC2602163E18E013921
:10197000E1868168C907E3D0E18F0029E0D0C06823
:10198000A16B012521F8020BA163E08F0138E087EC
:10199000D6E700BFFEF7F0FFA0EB0900404580F05E
:1019A000FD80E08E18B9E08F002800F0A18020684B
:1019B000816889070CD5E18E51B1012D08D1216BC9
:1019C000002531F8022BC2602163E18E0139E186E6
:1019D0008168C907DED0E18F0029DBD0C068A16B28
:1019E000012521F8020BA163E08F0138E087D1E7E0
:1019F0006068B0F5827F07D1A06800284FF0020030
:101A000008BF042901D15BE70220012184F85110AD
:101A1000002184F8501003B0BDE8F08339B1397863
:101A20000173206B01302063E08E0138E0860125D0
:101A300018F1010033D101E0FEF79EFFE08E10B9EE
:101A4000E08F002854D02068816889070ED5E18E88
:101A500061B1012D0AD1216B002509780173216B39
:101A6000206801312163E18E0139E1868168C9076F
:101A7000E2D0E18F0029DFD0C068A16B012508709A
:101A8000A06B0130A063E08F0138E087D4E700BF8E
:101A9000FEF772FFA0EB0900404580F08180E08EE8
:101AA00008B9E08F20B32068816889070ED5E18EE0
:101AB00061B1012D0AD1216B002509780173216BD9
:101AC000206801312163E18E0139E1868168C9070F
:101AD000DED0E18F0029DBD0C068A16B0125087042
:101AE000A06B0130A063E08F0138E087D0E700BF32
:101AF00040F20C00C2F20000006849F68171C1F2A8
:101B00005E61A0FB0101480D4FF47A7148430290D9
:101B10006068B0F5827F0FD12046802142464B4657
:101B200001F060F960B3606D40F020006065202036
:101B30006065012069E700BF029808B30298013888
:101B400002902068806800061AD50298C0B10298F9
:101B50000138029020688068000611D5029878B19B
:101B600002980138029020688068000608D5029823
:101B700030B1029801380290206880680006DBD4FA
:101B8000A06800284FF000007FF43FAF019021686B
:101B9000CA68019289680191019936E7032034E708
:101BA000032032E7411E0020B0EB116F1CBF012063
:101BB00070474EF21002CEF2000251604EF62351F1
:101BC000CEF20001F0230B70072190601160704786
:101BD0007047000070470000B0B582B0044600684E
:101BE0000168C368426901F02F05202D03F020052C
:101BF00006D12DB1204602B0BDE8B04001F002BAD6
:101C00005FEA017C1EBF02F0010E03F4907212EB3A
:101C10000E0253D1226B012A05D111F0100218BF18
:101C200013F0100236D10A0622D513F080021FD01D
:101C300094F83D1021293FD1A168B1F5805F03D10F
:101C40002169002900F07282216A4A1C2262097807
:101C50004160E18C01390A04E1842DD1C16821F091
:101C60008001C160C16841F04001C16002B0B0BDF7
:101C7000490621D513F040011ED0C16821F0400172
:101C8000C1602021204684F83D1002B0BDE8B0407C
:101C900000F0FABA002101910168019141680191B7
:101CA00001994069400613D4A08DE18DE28D002A90
:101CB00018BF884240F0BE8102B0B0BDCA0718BF4D
:101CC00013F4807240F0BA804A0700F1BD80C2E090
:101CD000A16B0868426893B2002BEDD0A08D8342BF
:101CE000EAD2E285C969B1F5807F00F09D80206865
:101CF00050E8030F216820F4807041E80302DAB154
:101D0000206850E8030F216820F4807041E8030246
:101D100092B1206850E8030F216820F4807041E8F8
:101D200003024AB1206850E8030F216820F4807054
:101D300041E80302002ADAD1206850E8050F216843
:101D400020F0010041E80502DAB1206850E8050FF3
:101D5000216820F0010041E8050292B1206850E8B6
:101D6000050F216820F0010041E805024AB1206812
:101D700050E8050F216820F0010041E80502002A23
:101D8000DAD1206850E8050F216820F0400041E8D2
:101D90000502DAB1206850E8050F216820F0400004
:101DA00041E8050292B1206850E8050F216820F053
:101DB000400041E805024AB1206850E8050F21685B
:101DC00020F0400041E80502002ADAD1202084F802
:101DD0003E0000202063206850E8030F216820F0B7
:101DE000100041E80302DAB1206850E8030F2168CF
:101DF00020F0100041E8030292B1206850E8030F80
:101E0000216820F0100041E803024AB1206850E840
:101E1000030F216820F0100041E80302002ADAD104
:101E2000A06BFEF7D7FBA08DE18D401A81B2204652
:101E300002B0BDE8B040FFF7CBBE00BF226C42F05D
:101E4000010222644A0706D5BEF1000F03D0226CBE
:101E500042F0020222648A0706D5BEF1000F03D0C9
:101E6000226C42F004022264BCF1000F09D545EA5D
:101E70000E02B2FA82F2520903D1226C42F0080239
:101E80002264226C002A3FF417AF11F0200118BF22
:101E9000002D03D0204601F0B5F820684069216C80
:101EA00000F0400001F00801401800F0B58000BFCC
:101EB000206850E8030F216820F4907041E8030285
:101EC000BAB3206850E8030F216820F4907041E80D
:101ED000030272B3206850E8030F216820F4907069
:101EE00041E803022AB3206850E8030F216820F478
:101EF000907041E80302002ADAD11AE0206850E825
:101F0000050F216820F0010041E80502DAB12068E0
:101F100050E8050F216820F0010041E8050292B168
:101F2000206850E8050F216820F0010041E8050213
:101F30004AB1206850E8050F216820F0010041E80F
:101F40000502002ADAD1206B012824D1206850E84C
:101F5000030F216820F0100041E80302DAB1206885
:101F600050E8030F216820F0100041E8030292B10D
:101F7000206850E8030F216820F0100041E80302B8
:101F80004AB1206850E8030F216820F0100041E8B2
:101F90000302002ADAD1202084F83E0000202063CA
:101FA0002068406940063FD5206850E8050F216849
:101FB00020F0400041E80502DAB1206850E8050F42
:101FC000216820F0400041E8050292B1206850E805
:101FD000050F216820F0400041E805024AB1206861
:101FE00050E8050F216820F0400041E80502002A72
:101FF000DAD1A06BC0B142F6F971C0F600010165FB
:10200000FEF730FB00283FF457AEA06B016D02B025
:10201000BDE8B040084700BF2046FFF7DBFD0020C9
:10202000206402B0B0BD00BF204602B0BDE8B040A1
:10203000FFF7D0BD401A216851E8031F226821F440
:10204000907142E80313DBB1216851E8031F226855
:1020500021F4907142E8031393B1216851E8031F02
:10206000226821F4907142E803134BB1216851E8D2
:10207000031F226821F4907142E80313002BDAD188
:10208000216851E8051F226821F0010142E805138B
:10209000DBB1216851E8051F226821F0010142E807
:1020A000051393B1216851E8051F226821F0010151
:1020B00042E805134BB1216851E8051F226821F061
:1020C000010142E80513002BDAD1202184F83E10EB
:1020D00000212163216851E8031F226821F01001CB
:1020E00042E80313002B3FF4A1AE216851E8031F1F
:1020F000226821F0100142E80313002B3FF496AE52
:10210000216851E8031F226821F0100142E80313FF
:10211000002B3FF48BAE216851E8031F226821F0A9
:10212000100142E80313002BD4D17FE6216A31F875
:10213000022B6FF35F22426021628AE5002804BF10
:102140000120704710B5044690F83D0028B90020E2
:1021500084F83C00204600F021F8242084F83D005B
:102160002068C16821F40051C160204600F0CAFF18
:102170002068016921F490410161416921F02A013F
:102180004161C16841F40051C160002020212064F8
:1021900084F83D1084F83E1010BD000080B586B074
:1021A000006844F60002C4F2000200219042CDE92A
:1021B0000411CDE90211019138D044F20041C4F27A
:1021C000000188425BD1002043F630010090C4F248
:1021D00002010A6942F400320A610A6902F400321B
:1021E0000092009A00900A6842F008020A600968AA
:1021F00001F0080100910099602101910221CDE9CF
:102200000210032004900720059040F60040C4F21D
:10221000020001A9FEF7D0FA262005210022FEF7D0
:10222000A1FF2620FEF78AFF06B080BD43F63000EE
:102230000091C4F20200026942F480220261026944
:1022400002F480220092009A0091026842F0080293
:102250000260006800F00800009000984FF44070A1
:1022600001900220CDE9020103200490072005908F
:1022700040F60040C4F2020001A9FEF79DFA06B044
:1022800080BD00007047000070470000FEE70000BE
:102290002DE9F04184B00025C4F202050446284629
:1022A000102100224FF00008FEF760FB40F2DC1620
:1022B0001A20C2F200068DF80D0064270DF10D0101
:1022C00003AA304601230097FFF7E0FA0DF10F0152
:1022D0000DF10E02304601238DF80F800097FFF7B5
:1022E000D5FA284610210122FEF740FB42F2930066
:1022F000208002AF0C20214602222346009700F0E6
:10230000C1F918B104B0BDE8F08100BF2078617850
:10231000A278E3784840504021795840401A18BFCD
:102320000120400004B0BDE8F081000010B584B089
:10233000502002ACADF80800A21C20460221FDF797
:10234000E1FF0DF10C0C0C20214604222346CDF8B0
:1023500000C000F097F904B010BD0000F0B583B0E4
:102360000024C4F20204204610210122FEF7FEFAE6
:1023700004F5806001210122FEF7F8FA20461021C1
:1023800000220027FEF7F2FA40F2DC150220C2F22A
:1023900000058DF80B0064260DF10B010DF10A020A
:1023A000284601230096FFF771FA0F208DF80B00E5
:1023B0000DF10B010DF10A02284601230096FFF7EB
:1023C00065FA204610210122FEF7D0FA204610219E
:1023D0000022FEF7CBFA54208DF80B000DF10B0113
:1023E0000DF10A02284601230096FFF74FFA8D20CF
:1023F0008DF80B000DF10B010DF10A0228460123A7
:102400000096FFF743FA204610210122FEF7AEFAAC
:10241000204610210022FEF7A9FA56208DF80B0065
:102420000DF10B010DF10A02284601230096FFF77A
:102430002DFA3E208DF80B000DF10B010DF10A0273
:10244000284601230096FFF721FA20461021012299
:10245000FEF78CFA204610210022FEF787FA5A2058
:102460008DF80B000DF10B010DF10A022846012336
:102470000096FFF70BFA1E208DF80B000DF10B01F3
:102480000DF10A02284601230096FFF7FFF92046C6
:1024900010210122FEF76AFA204610210022FEF7E1
:1024A00065FA58208DF80B000DF10B010DF10A02B1
:1024B000284601230096FFF7E9F90DF10B010DF114
:1024C0000A02284601238DF80B700096FFF7DEF90B
:1024D000204610210122FEF749FA20461021002251
:1024E000FEF744FA2A208DF80B000DF10B010DF1D7
:1024F0000A02284601230096FFF7C8F940208DF80C
:102500000B000DF10B010DF10A0228460123009684
:10251000FFF7BCF9204610210122FEF727FA2046DA
:1025200010210022FEF722FA22208DF80B000DF177
:102530000B010DF10A02284601230096FFF7A6F9C8
:102540003D208DF80B000DF10B010DF10A0228461C
:1025500001230096FFF79AF9204610210122FEF789
:1025600005FA204610210022FEF700FAA8208DF877
:102570000B000DF10B010DF10A0228460123009614
:10258000FFF784F90DF10B010DF10A022846012332
:102590008DF80B700096FFF779F920461021012283
:1025A000FEF7E4F91420032100F0A4FC20461021DA
:1025B0000022FEF7DBF904208DF80B000DF10B0172
:1025C0000DF10A02284601230096FFF75FF9A020CB
:1025D0008DF80B000DF10B010DF10A0228460123C5
:1025E0000096FFF753F9204610210122FEF7BEF9AD
:1025F00004208021FDF770FF03B0F0BD2DE9F0410C
:1026000084B040F20008C4F202080C460546404679
:1026100010210022FEF7AAF940F2DC171A20C2F2BC
:1026200000078DF80D0064260DF10D0103AA384650
:1026300001230096FFF72AF907208DF80F000DF10E
:102640000F010DF10E02384601230096FFF71EF927
:10265000404610210122FEF789F902AF0C202146E5
:10266000012223462570009700F00CF802991029EA
:10267000014618BF0221002818BF0221084604B0F5
:10268000BDE8F0812DE9F04F87B017460C28884649
:102690000293049006D00E2808D111200590122034
:1026A00007E000BF31200590772002E0012005906F
:1026B00000200026C4F20206039000F18005304697
:1026C000102100224FF00009FEF750F940F2DC1A09
:1026D0000420C2F2000A8DF81B0064240DF11B01D6
:1026E0000DF11A02504601230094FFF7CFF80DF1C7
:1026F0001B010DF11A02504601238DF81B50009466
:10270000FFF7C4F8304610210122FEF72FF904200C
:102710008021FDF7E1FE0A20802100F0EBFB30462E
:1027200010210022FEF722F902208DF81B000DF186
:102730001B010DF11A02504601230094FFF7A6F881
:102740000DF11B010DF11A02504601238DF81B906B
:102750000094FFF79BF8304610210122FEF706F99E
:102760006FB340F2DC1AA8F10105C2F2000A0DF1C4
:102770001B090DF11A0800BF15F801BF30461021E2
:1027800000226424FEF7F2F812208DF81B00504658
:102790004946424601230094FFF778F864245046E6
:1027A0004946424601238DF81BB00094FFF76EF8AE
:1027B000304610210122FEF7D9F8013FDCD1304626
:1027C00010210022FEF7D2F840F2DC170220C2F2FC
:1027D00000078DF81B000DF11B010DF11A023846A0
:1027E00001230094FFF752F8049D0DF11B010DF138
:1027F0001A02384601238DF81B500094FFF746F863
:10280000304610210122FEF7B1F80C2D03D10D2026
:10281000802100F06FFB4FF6300540F2DC19CFF657
:10282000FF754FF088084FF0640AC2F200090DF1FD
:102830001B0B0DF11A0400BF304610210022FEF7D9
:1028400095F848465946224601238DF81B80CDF85D
:1028500000A0FFF71BF800208DF81B0048465946E2
:1028600022460123CDF800A0FFF710F89DF81A705A
:10287000304610210122FEF779F8013538D205984B
:102880003842D9D00D208021FDF726FE3046102198
:1028900000224FF00008FEF769F840F2DC148C20AB
:1028A000C2F200048DF81B0064250DF11B010DF12F
:1028B0001A02204601230095FEF7E8FF0DF11B01E7
:1028C0000DF11A02204601238DF81B800095FEF7BA
:1028D000DDFF9DF81A40304610210122FEF746F830
:1028E00014F01B0F0ED00225284607B0BDE8F08F6C
:1028F0000D208021FDF7F0FD0225284607B0BDE838
:10290000F08F00BF0398049938400C2900F00105AE
:10291000EAD130461021002210244FF00009FEF7C2
:1029200025F840F2DC189420C2F200088DF81B0054
:102930004FF0640A0DF11B010DF11A02404601230C
:10294000CDF800A0FEF7A2FF0DF11B010DF11A0258
:10295000404601238DF81B90CDF800A0FEF796FFAE
:102960009DF81A70304610210122FDF7FFFF304616
:1029700010210022FDF7FAFF98208DF81B000DF1C1
:102980001B010DF11A0240460123CDF800A0FEF70D
:102990007DFF0DF11B010DF11A02404601238DF858
:1029A0001B90CDF800A0FEF771FF9DF81A8030460D
:1029B00010210122FDF7DAFF18F0070040EAC700F6
:1029C000A0F1080008BFF800102F38BF3C46002FC8
:1029D000109908BF0124002C086085D0029840F2AD
:1029E000DC1BA0F10108C2F2000B0DF11B074FF038
:1029F000640A0DF11A090595304610210022FDF7F1
:102A0000B5FF92208DF81B00584639464A460123EF
:102A1000CDF800A0FEF73AFF00208DF81B005846C5
:102A200039464A460123CDF800A0FEF72FFF9DF856
:102A30001A50304610210122FDF798FF013C08F89A
:102A4000015FD9D1059D284607B0BDE8F08F000091
:102A500080B542F6AD7046F27432C0F60000C0F6A2
:102A60000002002100F05AFE40F28411C2F200017F
:102A7000086080BD2DE9F04F87B0002443F6300098
:102A8000CDE905440194C4F20200016840F6004813
:102A900041F0100101600168C4F2020801F0100168
:102AA000019101990194016808F5006741F0200146
:102AB00001600168002201F0200101910199019457
:102AC00001684FF03C0B41F080010160016801F0AA
:102AD0008001019101990194016841F001010160B7
:102AE000016801F00101019101990194016841F02F
:102AF00002010160016801F0020101910199019454
:102B0000016841F008010160016801F008010191CC
:102B100001990194016841F00401016000683C21C1
:102B200000F00400019001983846FDF71FFFA8F55A
:102B300040663046102101224FF00109FDF716FFD3
:102B400040464FF4F0410022FDF710FF782002AD1F
:102B500002904FF4881A08F580602946CDE903A455
:102B6000FDF72AFE38462946CDE902B9CDE90444ED
:102B7000FDF722FE4FF4F06002A981E81102384609
:102B80002946FDF719FE1020CDE9020930462946F5
:102B9000CDE90444FDF710FE4FF404100226CDE900
:102BA0000309A8F5006029460296FDF705FE4FF4DB
:102BB000F040CDE9020940462946CDE90444FDF73D
:102BC000FBFD4FF48060CDE9020AA8F5806029463C
:102BD0000494FDF7F1FD40462946CDE902640496D0
:102BE000FDF7EAFD072005210022FEF7BBFA0720CA
:102BF000FEF7A4FA092005210022FEF7B3FA092006
:102C0000FEF79CFA0A2005210022FEF7ABFA0A2003
:102C1000FEF794FA172005210022FEF7A3FA1720E9
:102C2000FEF78CFA282005210022FEF79BFA2820C7
:102C3000FEF784FA07B0BDE8F08F000080B540F2DF
:102C4000881045F20041C2F20000C4F2000148F2CF
:102C5000A06200234FF4804CC0F2010280E80E0015
:102C6000C0E9033CC0E90533C0E90733FDF7C8FEFE
:102C7000002818BFFDF7A8FC40F28810C2F200003F
:102C80000021FDF77FFE002818BFFDF79DFC40F2F4
:102C90008810C2F200000021FDF792FE002808BF54
:102CA00080BDBDE88040FDF78FBC000080B540F2DC
:102CB000DC1043F20001C2F20000C4F201014FF443
:102CC000827200234FF4007C80E80E000A21C0E9E4
:102CD0000333C0E9053CC361C0E90833C0E90A31E8
:102CE000FEF744FD002808BF80BDBDE88040FDF729
:102CF0006BBC000080B540F2342044F20041C2F2C7
:102D00000000C4F2000100234FF00C0C4FF4E1323C
:102D100080E80E00C0E90333C0E905C3C361FFF7D3
:102D20000DFA002808BF80BDBDE88040FDF74CBC0F
:102D300080B540F2782044F60001C2F20000C4F2EF
:102D4000000100234FF00C0C4FF4E13280E80E003C
:102D5000C0E90333C0E905C3C361FFF7EFF90028F9
:102D600008BF80BDBDE88040FDF72EBCFEE7000037
:102D7000FEE700000000000000000000000000006E
:102D8000EFF30980BFF36F8F154B1A681EF0100F19
:102D900008BF20ED108A20E9F04F10602DE90900EE
:102DA0004FF0500080F31188BFF34F8FBFF36F8F48
:102DB00002F058F84FF0000080F31188BDE80900D8
:102DC00019680868B0E8F04F1EF0100F08BFB0ECAB
:102DD000108A80F30988BFF36F8F704700BF00BF70
:102DE0007C0000202DE9F04182B01E4690460D4641
:102DF0000446FDF7C1FD301A00EB0807FDF7BCFDE6
:102E000040F20C01C2F200010968C1F3CB317943F1
:102E1000019121688A682A40AA4227D1064618F102
:102E200001001FD0FDF7A8FD801BB84222D20198F7
:102E300001990028A1F1010101912168896808BF69
:102E4000074601EA0500A842ECD00FE08868284058
:102E5000A8420BD188682840A84207D1886828403A
:102E6000A84203D188682840A842EFD0002002B0D1
:102E7000BDE8F081D4E900014268B1F5827F22F01B
:102E8000E00242600AD1A168B1F5004F02D0B1F56D
:102E9000806F03D1016821F040010160A16AB1F5A2
:102EA000005F07D1016821F400510160016841F41D
:102EB00000510160012084F85100002084F8500086
:102EC000032002B0BDE8F081000000000000000017
:102ED000074B19680868B0E8F04F80F30988BFF322
:102EE0006F8F4FF0000080F31188704700BF00BF64
:102EF0007C0000202DE9F04784B040F20008C4F2C5
:102F000002088A4606464046102100224FF000097A
:102F1000FDF72CFD802040F2DC1540EA4600C2F2AD
:102F200000058DF8090064240DF1090102AA284664
:102F300001230094FEF7AAFC0DF10B010DF10A022A
:102F4000284601238DF80B900094FEF79FFC9DF816
:102F50000A70404610210122FDF708FD404610216D
:102F6000002247EA0A07FDF701FD7E2000EA46003D
:102F70008DF80D000DF10D0103AA284601230094E0
:102F8000FEF784FC0DF10F010DF10E02284601231E
:102F90008DF80F700094FEF779FC40461021012255
:102FA000FDF7E4FC04B0BDE8F0870000012000F06C
:102FB00073FBFBE74FF47A7001F0B8FDFAE700000D
:102FC0004FF47A7001F0B2FDFAE7000080B5FEF729
:102FD00045F802F02BFD012808BF80BDBDE8804008
:102FE00002F060B84EF68850CEF20000016841F45D
:102FF0007001016070470000806B0021C185C184B1
:10300000FEF7E8BD81B090F83E10222921D18368F7
:103010000246B3F5805F09D152F8281F52F8183CD8
:10302000002B63D003685B680AE000BF52F8281FDA
:1030300013B90369002BF5D003685B6803F07F03C5
:103040000B70116801311160C18D01390A04C1850D
:1030500002D001B0704700BF0168CA6822F02002A8
:10306000CA60CA6822F48072CA604A6922F001020A
:103070004A61202180F83E10016B01293ED10021D8
:10308000016300BF016851E8031F026821F01001CD
:1030900042E80313DBB1016851E8031F026821F025
:1030A000100142E8031393B1016851E8031F02685D
:1030B00021F0100142E803134BB1016851E8031FEE
:1030C000026821F0100142E80313002BDAD10168F5
:1030D0000A68D20606D5002200920A680092496862
:1030E00000910099818D01B0FEF772BD02685268AF
:1030F0006FF35F2221F8022B8162A5E701B0FFF791
:10310000C1B8000010B504460068D4E902C22369C2
:10311000016921F4405111430161626943EA0C01E4
:10312000E3691143C268194349F20C639A4311439E
:10313000C1604169A26921F4407141F20043114329
:1031400040F48062C4F201039A42416102D1FEF769
:1031500009F901E0FEF7F2F8E16963681922B1F5B7
:10316000004FA0FB020123D15A00DB0FFDF73AF814
:1031700048F21F51C5F2EB11A0FB01235A094FF68B
:103180009C73C0F6FF7303F1805302FB03003223EC
:1031900003EBC000A0FB01014FF4F87000EA11102E
:1031A00000EB0210C1F3421108442168886010BD91
:1031B0009A009B0FFDF716F848F21F51C5F2EB116C
:1031C000A0FB01235A094FF69C73C0F6FF7302FB64
:1031D0000300322303EB0010A0FB0101F02000EA02
:1031E000511000EB0210C1F34311084421688860BC
:1031F00010BD000040F23420C2F20000FEF7ECBC2B
:10320000FEE7000044F60001C4F200010A6852061D
:1032100009D40A6852065CBF0A685FEA426202D4B7
:103220000A685206F2D5C2B24A6070472DE9F041F1
:1032300084B0044648F68C02C0F60C02006821797E
:1032400002924FF0640802AA0423CDF80080FDF733
:1032500093FC42F62D165027C0F60D1603AD00BFA5
:10326000206821792A4604230396CDF80080FDF7D3
:1032700083FC013FF4D104B0BDE8F081032A88BF8C
:103280007047DFE802F0030B070900BF6FF07F0211
:10329000514004E06C3902E02C3900E0403980B53F
:1032A00082B021F00F02090102F10C0308328DF8FF
:1032B00004308DF8052001F10C0203688DF806201A
:1032C00001F1080201798DF807204FF0640C01AA82
:1032D00018460423CDF800C0FDF74EFC02B0BDE84F
:1032E0008040704770B582B004463220FDF7CCF9BB
:1032F00043F63C0620682179C0F60C06642501AA35
:10330000042301960095FDF737FC0520FDF7BCF975
:103310002068217901AA042301960095FDF72CFC71
:103320000120FDF7B1F92068217901AA0423019653
:103330000095FDF721FC0A20FDF7A6F942F62C02C4
:10334000C0F60C0220682179019201AA042300959D
:10335000FDF712FC0A20FDF797F942F62C02C8F699
:103360008C0220682179019201AA04230095FDF7BF
:1033700003FC0120FDF788F940F60C02C8F68C0228
:1033800020682179019201AA04230095FDF7F4FB3E
:103390000120FDF779F940F60C02C1F61C02206805
:1033A0002179019201AA04230095FDF7E5FB022093
:1033B000FDF76AF940F60C02C6F66C022068217926
:1033C000019201AA04230095FDF7D6FB0120FDF729
:1033D0005BF940F60C02CCF6CC0220682179019210
:1033E00001AA04230095FDF7C7FB02B070BD0000E1
:1033F000F0B583B00A7802B304464E1E642702ADCE
:1034000022F00F00110100F10D0209308DF80900C2
:1034100001F10D008DF808208DF80A0001F1090274
:10342000206821798DF80B202A4604230097FDF7A8
:10343000A3FBB2780136002AE2D103B0F0BD000050
:1034400094B0FDF719FE08AC201D2C21FCF714FFE9
:10345000002543F640000795CDE90555CDE9035514
:103460000295C4F202000168012241F0805101601E
:10347000006800F080500290029847F20000029528
:10348000C4F20000016862F38F310160006800F44B
:103490004040029002980220089010200C90204694
:1034A0000B920E95FDF7A8FF20B1EFF3108072B6D6
:1034B000FEE700BF0F20CDE9030503A80021CDE9F9
:1034C00005550795FDF78AFE20B1EFF3108072B61F
:1034D000FEE700BFFFF7CEFAFFF72AFCFFF7E6FB97
:1034E000FFF7ACFBFFF706FC0320012100224FF0A1
:1034F0000308012401F0EEFD40F21805C2F20005B8
:10350000286103200121002201F0E4FD68610A2006
:103510000121002201F0DEFDA8610A201121002214
:1035200001F0D8FD686005203021002201F0D2FDB5
:10353000286001200021032201F0CCFDA8600120B9
:103540000021032201F0C6FDE86005F11C00019096
:1035500044F2BD200427C0F6000040A180220023D1
:10356000009702F0F7F944F2C95005F12006C0F6C1
:1035700000003CA14FF4807200230097019602F0F6
:10358000E9F944F2296005F12407C0F6000036A1EC
:103590004FF480720023CDF80080019702F0DAF931
:1035A00005F12800019044F2D9200226C0F600005F
:1035B0002FA14FF480720023009602F0CBF944F261
:1035C000F16005F12C07C0F600002BA1802200233A
:1035D0000096019702F0BEF905F13000019044F227
:1035E0009150C0F6000026A180220023009402F032
:1035F000B1F905F13400019044F2C140C0F6000079
:1036000020A14FF480720023009402F0A3F905F189
:103610003800019042F6C170C0F600001AA14FF4C4
:1036200000720023009402F095F942F6B57005F19E
:103630003C07C0F6000016A14FF40072002300946E
:10364000019702F087F901F08DFB00F035F8FFF7E4
:10365000FFF900F045F800BFFEE700BF49734F7067
:10366000656E000050495200524649440000000077
:103670004B6579706164000052656C6179000000EF
:103680004C4544004C43440054785461736B000033
:1036900052785461736B0000EFF3058100291CBF61
:1036A0006FF005007047002804BF0020704780B508
:1036B00001F03CFA002080BDEFF3058000281CBF1C
:1036C0006FF00500704740F28010C2F20000016800
:1036D000002911BF4FF0FF30012101600020704729
:1036E00010B5EFF3058000281CBF6FF0050010BD7A
:1036F00040F28010C2F20000016801291CBF4FF0A7
:10370000FF3010BD4EF61F51CEF2000100240C70A8
:103710000221016001F026FB204610BD2DE9F04199
:1037200084B08E4600240394EFF3058150B149B96B
:103730004FF0000452B19369002B08BF1823382BB7
:1037400016D90024204604B0BDE8F0818025182356
:10375000002103AF0093AAB27346019702F0FAF872
:103760000399012808BF0C46204604B0BDE8F0814B
:103770001179C90724D15769D2E902864FEA970C1B
:103780001168002F654608BF8025B8F1000F13D0DF
:103790005C2E15D312690024002A18BF002FD1D047
:1037A000CDE9003262467346CDF8088002F002F996
:1037B00004B0BDE8F08100BF16B91269002AC8D074
:1037C0000024204604B0BDE8F08100002DE9F0415E
:1037D000044601F039F840F27C06C2F20006F068B7
:1037E00040F2AC350130F0603068C2F2000558B1EB
:1037F0003069002840F007813068E16AC06A884279
:1038000098BF3460FFE000BF3460F068012840F0EA
:10381000FA80284600F0BEFF05F1140000F0BAFF60
:1038200005F1280000F0B6FF05F13C0000F0B2FF02
:1038300005F1500000F0AEFF05F1640000F0AAFFB2
:1038400005F1780000F0A6FF05F18C0000F0A2FF62
:1038500005F1A00000F09EFF05F1B40000F09AFF12
:1038600005F1C80000F096FF05F1DC0000F092FFC2
:1038700005F1F00000F08EFF05F5827000F08AFF80
:1038800005F58C7000F086FF05F5967000F082FF5C
:1038900005F5A07000F07EFF05F5AA7000F07AFF34
:1038A00005F5B47000F076FF05F5BE7000F072FF0C
:1038B00005F5C87000F06EFF05F5D27000F06AFFE4
:1038C00005F5DC7000F066FF05F5E67000F062FFBC
:1038D00005F5F07000F05EFF05F5FA7000F05AFF94
:1038E00005F5027000F056FF05F5077000F052FF75
:1038F00005F50C7000F04EFF05F5117000F04AFF61
:1039000005F5167000F046FF05F51B7000F042FF4C
:1039100005F5207000F03EFF05F5257000F03AFF38
:1039200005F52A7000F036FF05F52F7000F032FF24
:1039300005F5347000F02EFF05F5397000F02AFF10
:1039400005F53E7000F026FF05F5437000F022FFFC
:1039500005F5487000F01EFF05F54D7000F01AFFE8
:1039600005F5527000F016FF05F5577000F012FFD4
:1039700005F55C7000F00EFF05F5617000F00AFFC0
:1039800005F5667000F006FF05F56B7000F002FFAC
:1039900005F5707000F0FEFE05F5757000F0FAFE9A
:1039A00005F57A7000F0F6FE05F57F7000F0F2FE86
:1039B00005F5826000F0EEFE05F2244000F0EAFE1C
:1039C00005F5876000F0E6FE05F24C4000F0E2FEEF
:1039D00040F25818C2F20008404600F0DBFE08F141
:1039E0001407384600F0D6FE06F1640000F0D2FE5F
:1039F00006F13C0000F0CEFE06F1500000F0CAFED9
:103A0000C6F81C8037627068716A421CE06A726096
:103A10008842626488BF706200EB800005EB800022
:103A2000211D00F0F9FE00F033FF306988B13068E5
:103A3000E16AC06A884228BFBDE8F0814EF60450B2
:103A4000CEF200004FF080510160BFF34F8FBFF303
:103A50006F8FBDE8F081000040F27C0540F2AC368B
:103A60004EF60458C2F20005C2F20006CEF200087B
:103A70004FF0805703E000BF204600F021FFA86808
:103A8000D0B100F0E1FEA86CC468201D00F054FE27
:103A9000E8680138E860A8680138A86000F0F8FE1E
:103AA00094F859000228EAD00128E5D070B9206BBB
:103AB00000F006FFE0E700BF30680228DFD3C8F857
:103AC0000070BFF34F8FBFF36F8FD8E74FF05000F8
:103AD00080F31188BFF36F8FBFF34F8FFEE70000B5
:103AE0002DE9F0470A9C8246206B16460F46DDE919
:103AF00008599100A5229846FCF7B7FB206B002FD0
:103B000000EB8600A0F1040020F0070656D03878BC
:103B100084F83400387800284BD0787884F8350061
:103B20007878002845D0B87884F83600B87800282E
:103B30003FD0F87884F83700F878D0B3387984F833
:103B400038003879A8B3787984F83900787980B367
:103B5000B87984F83A00B87958B3F87984F83B001A
:103B6000F87930B3387A84F83C00387A08B3787A38
:103B700084F83D00787AE0B1B87A84F83E00B87AEB
:103B8000B8B1F87A84F83F00F87A90B1387B84F8BD
:103B90004000387B68B1787B84F84100787B40B185
:103BA000B87B84F84200B87B00281CBFF87B84F8FF
:103BB0004300002084F8430003E000BF002084F8A5
:103BC00034000027201D372D28BF3725E562C4E9C2
:103BD000135700F0EBFD04F1180000F0E7FDC5F10C
:103BE0003800A061304651464246246164626765F0
:103BF00084F8587000F04EFBB9F1000F206018BF38
:103C0000C9F80040BDE8F08708480068006880F304
:103C100008884FF0000080F3148862B661B6BFF3E5
:103C20004F8FBFF36F8F00DF00BF000008ED00E093
:103C300081B00020009040F21000C2F20000006845
:103C40004FF0500181F31188BFF36F8FBFF34F8F97
:103C5000013007D0FEE700BF009830B9009820B9C6
:103C6000009810B900980028F6D001B07047000005
:103C700088B040F2F40AC2F2000A0DF11009EB46D6
:103C8000DAF8080005681DB1C068046801E000BFEB
:103C9000002401F0DFF801F0D9FEDAF81010064632
:103CA000884220D3002DCAF8106051D0A6424FD3CD
:103CB00002F01EF8DAF80800C068C7683D1D284603
:103CC00000F03AFD97F82800410745D400F0FE00C7
:103CD00087F8280084E000BF6860DAF808003946F9
:103CE0002D6100F067FDDAF80800016831B3C068A3
:103CF000C56804682F1D384600F01EFD296A284655
:103D0000884795F828004007EDD5A8692044A042CF
:103D1000E2D8DAF80000002800F04881002004A969
:103D200031C101F083FEDAF8000049460022002389
:103D300001F084FA0028D6D138E100BFDAF80C107F
:103D4000CAF81060CAE9021001F0D2FF1AE100BF00
:103D500065B1002210E000BFB8693F610119B142AE
:103D600079601FD90AF1080021E000BFDAF80C00E1
:103D70000068B0FA80F04209DAF80000A11B00F0F8
:103D8000ABFE01F0B5FF002840F0FC804EF6045079
:103D9000CEF200004FF080510160BFF34F8FBFF3B0
:103DA0006F8FEFE0311B814206D20AF10C000068F0
:103DB000294600F0FFFC13E0DAF80000002800F0CC
:103DC0001381002004A991C101F030FEDAF800004F
:103DD00049460022002301F031FA002800F0048156
:103DE000396A38468847CDE00098B0F1FF3F07DCDC
:103DF000DDE90120039990470098002800F1C28076
:103E0000029E706910B1301D00F096FC01F01EFE9C
:103E1000DAF81010074688420DD30098CAF81070DF
:103E200009283FD9AEE000BF6860DAF808002146F3
:103E30002D6100F0BFFCDAF80800016841B3C068EA
:103E4000C568D0F800802C1D204600F075FC296A5A
:103E50002846884795F828004007ECD5A8694044D3
:103E60004045E1D8DAF80000002800F095800020F5
:103E7000CDE90408069501F0D9FDDAF800004946BD
:103E80000022002301F0DAF90028D4D184E000BF39
:103E9000DAF80C10CAE902100098CAF81070092864
:103EA00000F27080DFE800F006060644486206066D
:103EB000444800BF96F82800019A40F00101B0691B
:103EC00086F828108318314641F8043FBB4236611A
:103ED00006D997420AF1080007D293420AD204E0B9
:103EE000BA1A824206D20AF10C00006800F062FCA5
:103EF00048E000BF316A3046884796F828004007FE
:103F000040D5DAF8000000285AD00198B169069629
:103F100008440021CDE9041001F088FDDAF8000022
:103F200049460022002301F089F958BB48E000BF50
:103F300096F8280022E000BF96F8280040F0010122
:103F4000019886F828100028B06143D038443146E3
:103F50000AF10C0241F8040F3661B84288BF0AF139
:103F60000802106800F026FC0CE000BF96F828005C
:103F7000810703D4304600F0A3FC03E000F0FE000C
:103F800086F82800DAF800005946002201F0D0FA3D
:103F900000287FF429AF73E64FF0500080F31188BA
:103FA000BFF36F8FBFF34F8FFEE700BF4FF050009E
:103FB00080F31188BFF36F8FBFF34F8FFEE700BF11
:103FC0004FF0500080F31188BFF36F8FBFF34F8F16
:103FD000FEE700BF4FF0500080F31188BFF36F8FF2
:103FE000BFF34F8FFEE700BF4FF0500080F3118802
:103FF000BFF36F8FBFF34F8FFEE70000F0B581B0C6
:10400000044600F021FC94F94560012E0FDB04F119
:10401000240500BF286850B1284601F02FFE002873
:1040200018BF00F0CDFDF0B2013E0128F2D8FF2606
:1040300084F8456000F02CFC00F006FC94F9447014
:10404000012F0EDB04F11005286850B1284601F05D
:1040500015FE002818BF00F0B3FDF8B2013F01289B
:10406000F2D884F8446001B0BDE8F04000F010BC24
:1040700070B5044600F0EEFE40F2301CC2F2000CB7
:10408000DCF8040050B19CF80000002818BF4FF085
:1040900000404FF0000574BB8DE000BF40F60C00FF
:1040A000C2F20000C21D22F0070210F00701A0EBCF
:1040B000020318BF104600224FF47055CCE90602E7
:1040C000002918BF03F57055411921F00701A1F12E
:1040D0000803CCF8043041E90222191AC0E9003182
:1040E00001208CF800004FF00040CCE90211002CB8
:1040F0004FF000055FD020405DD124F0070000F1B3
:104100001002600708BF04F10802002A4FF0000502
:1041100051D0DCF8080082424DD8604650F818EFC4
:10412000DEF8045095422CD2DEF80010C1B174467E
:104130004D68954218D20B68B3B15D68954217D2AD
:104140001868A8B14568954216D20468A4B165689C
:10415000954215D22168A6460029E9D111E000BF99
:104160000CF118000DE000BF8E46204609E000BFAC
:104170009E46084605E000BF8646184601E000BF9F
:10418000A646DCF804108E4514D00168DEF8004025
:10419000AB1A112B04604DD30EEB0205680719D042
:1041A0004FF0500080F31188BFF36F8FBFF34F8F34
:1041B000FEE700BF002501F09BFD68075BD04FF0D4
:1041C000500080F31188BFF36F8FBFF34F8F00BF94
:1041D000FEE700BF0CF118006B60CEF8042000BFB2
:1041E0000368AB420AD21868A8420BD20368AB42FC
:1041F00004D218681A46A842F2D304E002461846D0
:1042000001E000BF1A4653686C68D618AE4202D16E
:104210001C44154654602B19834207D1DCF8043046
:10422000984203D0D0E9000323446B60AA4228607F
:1042300018BF156001F10805DEF80400DCE9021280
:10424000091A9142CCF8081038BFCCF80C109CF831
:104250000010002918BF40F00040CEF80400DCF840
:10426000100000210130CEF80010CCF8100001F051
:104270003FFD6807A3D1284670BD000040F27C00D6
:10428000C2F20000016819B101680A6D01320A65C5
:1042900000687047034643F63140C0F600004FF017
:1042A000807C21F0010103E903106FF0020043F864
:1042B000240CA3F1440043F8202C704740F600443E
:1042C000C4F2020420460221FCF74AFB4FF47A7044
:1042D00000F02CFCF6E7000041F2004465A0C4F2B7
:1042E000020402F029F820463C2101224FF0010887
:1042F000FCF73CFB40F2180BC2F2000B63A60BF17B
:1043000050054FF0000A0BE020463C210022FCF74C
:104310002DFB322000F00AFC4FF0000A4FF001089C
:1043200020463C210122FCF721FB36F81A102046DA
:104330000022FCF71BFB012000F0F8FB2046802147
:10434000FCF70EFB48B9052000F0F0FB2046802169
:104350008027FCF705FB002840D020464FF48071F1
:10436000FCF7FEFA50B9052000F0E0FB20464FF4C0
:1043700080714FF48077FCF7F3FA98B320464FF43E
:104380000071FCF7EDFA50B9052000F0CFFB204694
:104390004FF400714FF40077FCF7E2FA30B3204697
:1043A0004FF48061FCF7DCFA50B9052000F0BEFB49
:1043B00020464FF480614FF48067FCF7D1FAC8B112
:1043C000BAF1030F0AF1010A4FF0000838BF4FF0AD
:1043D0000108BAF1040FA3D196E700BF4FF000091E
:1043E0000FE000BF4FF001090BE000BF4FF00209E2
:1043F00007E000BF4FF0030903E000BF0A2000F010
:1044000095FB20463946FCF7ABFA0028F6D020464B
:104410003C210022FCF7AAFA5FEAC8703FF479AFAA
:104420001CA000EB890010F80A702846FBF72FFF4C
:10443000232F07D02A2F07D101280DDB58444F30F6
:1044400008E000BF284605E00F2805DC584480F846
:104450005070513000210170DBF8040029464FF004
:10446000FF32002300F0EAFE0EA0294601F012FD03
:104470004FE700BF4B6579706164205461736B2016
:10448000537461727465640D00000000040008003C
:104490001000200031323341343536423738394349
:1044A0002A30234443757272656E74204B657920FF
:1044B0004275666665723A2025730D0A0000000099
:1044C00086B0642000F032FB40F21806C2F200060B
:1044D00040F28810C2F20000344644F8400F4E20EB
:1044E00020712046FEF7FEFE2046FEF79FFE1CA12F
:1044F0002046FEF77DFF002001AC06F140050FF2DB
:1045000070081DA78DF81400CDE90300CDE9010066
:1045100003E000BF0A2000F009FB706821464FF05D
:10452000FF3201F005F80128F4D12846FEF77EFE9F
:10453000284600210022FEF7A1FE28464146FEF74C
:1045400057FF284600210122FEF798FE2846214603
:10455000FEF74EFF3846214601F09CFCDAE700BF2B
:1045600053797374656D20526561647900000000B1
:104570006B65797061643A00446973706C61796944
:104580006E67206F6E204C43443A2025730D0A005D
:1045900040F60044C4F2020420464FF400510022C9
:1045A000FCF7E4F920464FF400610022FCF7DEF945
:1045B00020464FF480510122FCF7D8F94FF47A706D
:1045C00000F0B4FAE8E700000DA001F0B5FE40F2FB
:1045D0001805C2F200050FA4A8684FF0FF3101F0E2
:1045E00079F80128F8D1204601F0A6FEA86800213C
:1045F00001F070F84FF4FA6000F098FAECE700BFB1
:1046000052756E6E696E6720504952205461736B0B
:104610000D0000004D6F74696F6E20446574656312
:104620007465640D0000000086B0FDF797FE02ACD3
:1046300017A51EA60FF2940803E000BFC82000F0E3
:1046400075FA26202146FDF7D9FF0028F6D1284625
:1046500001F072FE9DF808109DF80920304601F027
:1046600019FC2046FDF714FE58B99DF808109DF876
:1046700009209DF80A309DF80B704046009701F024
:1046800009FCFDF753FE4FF47A7000F04FFAD8E7BB
:104690000D0A5B524649445D2043617264204465C3
:1046A000746563746564210D000000005B52464927
:1046B000445D205479706520436F64653A203078FA
:1046C00025303258253032580D0A00005B524649D9
:1046D000445D205549443A20253032583A2530323D
:1046E000583A253032583A253032580D0A00000029
:1046F00040F6004440F21805C4F20204C2F200057C
:10470000E8684FF0FF3100F0E5FF0128F8D12046BE
:104710004FF480410122FCF729F941F2883000F082
:1047200005FA20464FF480410022FCF71FF941F2C0
:10473000883000F0FBF9E3E7D0E9013201699A60C3
:10474000D1F804C082688445536008BF4A600022E3
:1047500002610868013808600868704744F2106315
:10476000C2F20003036044F21040C2F2000008608D
:10477000802010607047000044F66C23C2F20003F2
:10478000036044F26C60C2F2000008604FF4807075
:10479000106070474FF0FF31024642F8081F0021B9
:1047A0004260C0E9032201607047000000210161FE
:1047B0007047000010B5D1F800E01EF1010213D0DF
:1047C00000F1080462681368734511D853681C68C7
:1047D000744511D85A68146874450FD85468236812
:1047E000A4467345EED90BE00269D2F804C007E095
:1047F0009446224604E000BF9C4601E094461A46D7
:10480000C1F804C0CCF808108A60516008610168E2
:104810000131016010BD0000D0F800C0436808619C
:104820009A684B608A609A68996051600CF1010146
:1048300001607047DFF80C00016841F4700101600D
:104840007047000088ED00E04FF0500080F31188C1
:10485000BFF36F8FBFF34F8F40F21000C2F2000022
:1048600001684A1C026009B1704700BF4EF604504F
:10487000CEF200000068000608BF70474FF05000FD
:1048800080F31188BFF36F8FBFF34F8FFEE70000F7
:1048900040F21000C2F20000016839B10139016034
:1048A00018BF7047002080F3118870474FF0500008
:1048B00080F31188BFF36F8FBFF34F8FFEE70000C7
:1048C00070B5002808BF70BD40F23015C2F2000577
:1048D0000446287854F8041C002818BF4FF0004004
:1048E00008420DD0A4F1080632689AB14FF050008A
:1048F00080F31188BFF36F8FBFF34F8FFEE700BFC8
:104900004FF0500080F31188BFF36F8FBFF34F8FCC
:10491000FEE700BF21EA000044F8040C00F09AFA18
:1049200054F8041CA8680844A86005F1180000BFEA
:104930000368B3420AD21868B04225D20368B34272
:1049400004D218681A46B042F2D301E00246184673
:104950005368D418B44202D11944164651607318F2
:10496000834206D16B68984203D0D0E90003194412
:104970007160B242306018BF1660686901306861CA
:10498000BDE8704001F0B4B91A465368D418B44277
:10499000E5D1E1E74EF21000CEF200000021016007
:1049A000816040F20C01C2F20001096844F6D35262
:1049B000C1F26202A1FB02124FF0FF3101EB921132
:1049C000416007210160704740F25010EFF305810C
:1049D0001029C2F2000011D34EF2F032CEF20002E2
:1049E000895C0278914209D24FF0500080F311881F
:1049F000BFF36F8FBFF34F8FFEE700BF4EF60C5132
:104A0000CEF200010968406801F4E061814298BF7C
:104A100070474FF0500080F31188BFF36F8FBFF3E2
:104A20004F8F00BFFEE7000044F6C82CC2F2000C16
:104A3000DCF8002022B3634653F8082F42B36346E4
:104A400053F8102F52B3634653F8182F62B36346DE
:104A500053F8202F72B3634653F8282F82B363466E
:104A600053F8302F92B3634653F8382F002A18BFFB
:104A70007047072219600CEBC2014860704700BF05
:104A80000022634619600CEBC2014860704700BF0A
:104A9000012219600CEBC2014860704702221960C4
:104AA0000CEBC20148607047032219600CEBC20195
:104AB00048607047042219600CEBC20148607047DF
:104AC000052219600CEBC20148607047062219608C
:104AD0000CEBC2014860704770B515460E4604469F
:104AE000FFF7B2FE94F84400FF2804BF002084F8CA
:104AF000440094F84500FF2804BF002084F84500D6
:104B0000FFF7C6FEA06B28B12046BDE87040FFF756
:104B100075BA00BF04F1240031462A4600F092F82D
:104B20002046BDE87040FFF769BA000070B588B351
:104B300040F27C05C2F200050446686950B14FF0AE
:104B4000500080F31188BFF36F8FBFF34F8F00BF0A
:104B5000FEE700BF686901306861AE69286804300B
:104B6000FFF7EAFD2868A419446005D3286A29687C
:104B70000431FFF71FFE08E0E86929680431FFF7F8
:104B800019FEE86A844238BFEC6201F0B1F80028EF
:104B900018BF70BD4EF60450CEF200004FF08051A9
:104BA0000160BFF34F8FBFF36F8F70BD40F27C0188
:104BB000C2F200018A6B026089694160704700009F
:104BC00040F27C00C2F20000012101637047000046
:104BD00070B5D8B140F27C04C2F200040D462168E1
:104BE0001831FFF7E7FDA66920680430FFF7A4FD40
:104BF000681C15D02068AD19456019D3206A21685A
:104C00000431BDE87040FFF7D5BD00BF4FF0500044
:104C100080F31188BFF36F8FBFF34F8FFEE700BFA4
:104C200054F8500B011D2046BDE87040FFF7F4BD5D
:104C3000E06921680431FFF7BDFDE06A854238BFB5
:104C4000E56270BDF0B581B0C0B140F27C04C2F243
:104C500000040D46216816461831FFF7DDFDA769EF
:104C600020680430FFF768FD96B154F8500B011D21
:104C7000204601B0BDE8F040FFF7CEBD4FF0500038
:104C800080F31188BFF36F8FBFF34F8FFEE700BF34
:104C90002068ED19456007D3206A2168043101B00E
:104CA000BDE8F040FFF786BDE06921680431FFF7F9
:104CB00081FDE06A854238BFE56201B0F0BD0000C9
:104CC000F0B581B020B3026D04461AB3E36CE06A1C
:104CD0008B4288BF194688421AD0012A18D140F267
:104CE0007C06C2F200063268A2421DD0A269E162CF
:104CF000002A5CBFC1F13801A16140F2AC376169A3
:104D000000EB8000C2F2000707EB8000814215D063
:104D100001B0F0BD4FF0500080F31188BFF36F8FEA
:104D2000BFF34F8FFEE700BF4FF0500080F31188B4
:104D3000BFF36F8FBFF34F8FFEE700BF251D2846DF
:104D4000FFF7FAFCE06A716A884288BF706200EB84
:104D5000800007EB8000294601B0BDE8F040FFF776
:104D60005BBD000010B588B00020CDE9050006A8A5
:104D700005A904AAFFF7F2FC059800283ED0069C7E
:104D8000002C45D05C21049A079107995C2949D1F0
:104D900007992063022084F8590007A80021CDE973
:104DA000001043F65920C0F6000028A10023029409
:104DB000FEF796FE2046FEF709FD079840F27C04B8
:104DC000C2F20004A062B0B101F00AF8411C33D075
:104DD000012810D14FF0500080F31188BFF36F8F7E
:104DE000BFF34F8F4FF0FF30E062012020610020C1
:104DF000A06100F095F808B010BD00BF4FF0500062
:104E000080F31188BFF36F8FBFF34F8FFEE700BFB2
:104E10004FF0500080F31188BFF36F8FBFF34F8FB7
:104E2000FEE700BF4FF0500080F31188BFF36F8F93
:104E3000BFF34F8FFEE700BF4FF0500080F31188A3
:104E4000BFF36F8FBFF34F8FFEE700BF49444C4560
:104E50000000000040F27C00C2F200004169013114
:104E60004161704780B540F27C0EC2F2000EDEF860
:104E7000141019B10121CEF8301080BD0021CEF8F8
:104E80003010DEF8241040F2AC3C01EB8103C2F29A
:104E9000000C5CF823208AB101EB81020CEB820349
:104EA00053F8042F5268181D82421A6020D0D0682F
:104EB000CEF80000CEF8241080BD00BF0CEB8302BA
:104EC000A2F12803E1B15A6922BB012918D01A685E
:104ED00012BB022914D053F8142CFAB903290FD0AD
:104EE00053F8282C0439002AA3F15003EAD0D3E761
:104EF00052681A60D068CEF80000CEF8241080BD49
:104F00004FF0500080F31188BFF36F8FBFF34F8FC6
:104F1000FEE700BF0139BFE70239BDE70339BBE750
:104F2000B0B584B04EF2004CCEF2000C4CF27021C1
:104F3000C4F20F11DCF800294B1C9A420AD14FF041
:104F4000500080F31188BFF36F8FBFF34F8F00BF06
:104F5000FEE700BFDCF800298A4209D14FF050007B
:104F600080F31188BFF36F8FBFF34F8FFEE700BF51
:104F70009CF800100291FF218CF800109CF80010A2
:104F80008DF807109DF8071001F0500240F2501103
:104F9000C2F200010A7007224A609DF90720B2F1AF
:104FA000FF3F69DC032200BFD31C4B609DF8070064
:104FB00040008DF807009DF90700B0F1FF3F23DCAA
:104FC000931C4B609DF8070040008DF807009DF989
:104FD0000700B0F1FF3F17DC531C4B609DF8070042
:104FE00040008DF807009DF90700B0F1FF3F0BDC92
:104FF0004A609DF80700043A40008DF807009DF9CB
:1050000007000028D0D4131D032B35D14FF4407076
:10501000486002988CF80000DCF8200940F4700029
:10502000CCF82009DCF8200940F07040CCF82009C9
:10503000FFF7B0FC40F21004C2F200040025256026
:10504000FFF7F8FB4EF63470CEF20000016841F035
:1050500040410160FEF7D8FDFFF704FF039520688B
:105060004FF0500181F31188BFF36F8FBFF34F8F63
:10507000013011D0FEE700BF4FF0500080F31188DF
:10508000BFF36F8FBFF34F8FFEE700BF039830B9B8
:10509000039820B9039810B903980028F6D000208F
:1050A00004B0B0BD80B54FF0500080F31188BFF35D
:1050B0006F8FBFF34F8F00F0CFFC30B14EF604502E
:1050C000CEF200004FF080510160002080F3118883
:1050D00080BD00002DE9F041B0B306464843503092
:1050E00014460F46FEF7C4FF054650B34FF00008C4
:1050F000284685F84680002F18BF50302860C5E943
:105100000F67FFF7A1FB2868D5E90F12C5F83880B3
:1051100002FB0103013901FB0201C5E90103FF2084
:10512000E96085F8440085F8450005F11000FFF7B7
:1051300031FB05F12400FFF72DFBFFF7A9FB85F8F4
:105140004C402846BDE8F0814FF0500080F31188B4
:10515000BFF36F8FBFF34F8FFEE7000070B582B0D3
:1051600070B11C46B3B1F9B9F2B14FF0500080F301
:105170001188BFF36F8FBFF34F8F00BFFEE700BFF3
:105180004FF0500080F31188BFF36F8FBFF34F8F44
:10519000FEE700BF4FF0500080F31188BFF36F8F20
:1051A000BFF34F8FFEE700BF51B14AB94FF0500037
:1051B00080F31188BFF36F8FBFF34F8FFEE700BFFF
:1051C00050230193019B502B2ED1019B069E01235E
:1051D00084F84630002908BF22462260C4E90F0146
:1051E000FFF732FB2068D4E90F12002502FB010310
:1051F000013901FB0201A563C4E90103FF20E1605D
:1052000084F8440084F8450004F11000FFF7C2FA66
:1052100004F12400FFF7BEFAFFF73AFB204684F8BA
:105220004C6002B070BD00BF4FF0500080F3118899
:10523000BFF36F8FBFF34F8FFEE700002DE9F04FF4
:1052400083B00292C0B11D4617460E460446E9B12E
:10525000022D03D1E06B012840F0888000F0E6FBCE
:1052600010BB0FB34FF0500080F31188BFF36F8F66
:10527000BFF34F8FFEE700BF4FF0500080F311885F
:10528000BFF36F8FBFF34F8FFEE700BF206C002886
:10529000DED04FF0500080F31188BFF36F8FBFF363
:1052A0004F8F00BFFEE700BFFFF7CEFAA06B022DC5
:1052B00066D0E16B884263D304F1100801206F4689
:1052C0000DF108090DE000BF2046FEF797FE00F043
:1052D0000FFDFFF7B9FAA06BE16B88424FF00000B9
:1052E0004ED30299002973D0C00702D03846FFF789
:1052F0005DFCFFF7CDFAFFF7ADFDFFF7A5FA94F8D7
:105300004400FF2804BF002084F8440094F84500BE
:10531000FF2804BF002084F84500FFF7B9FA38469B
:10532000494600F0C5FA002858D1FFF78DFAD4F8A5
:1053300038A0D4F83CB0FFF7ABFADA45C4D10299F3
:105340004046FFF745FC2046FEF758FE00F0D0FC33
:105350000028BED14EF60450CEF200004FF080512E
:105360000160BFF34F8FBFF36F8FB2E74FF0500074
:1053700080F31188BFF36F8FBFF34F8FFEE700BF3D
:10538000A76B226CD2B19DB3E0683146FAF75BFFA0
:10539000E168206C2268091A9142E16003D2A16899
:1053A00040420844E060A81EB0FA80F04009394647
:1053B000002F18BF012108403F1A26E02068002571
:1053C00020BBA06800F0CAFBA56005461EE000BF38
:1053D000FFF75EFA002003B0BDE8F08F2046FEF72D
:1053E0000DFE00F085FC002003B0BDE8F08F00BF8B
:1053F00060683146FAF727FF216CD4E901020844BE
:105400009042606001D3206860600025781CA06332
:1054100054F8240FA0B1204600F030FC50B14EF6F5
:105420000450CEF200004FF080510160BFF34F8F67
:10543000BFF36F8FFFF72CFA012003B0BDE8F08FA8
:10544000002DF7D04EF60450CEF200004FF0805100
:105450000160BFF34F8FBFF36F8FFFF719FA012081
:1054600003B0BDE8F08F000070B568B10546006C70
:10547000A0B14FF0500080F31188BFF36F8FBFF3DE
:105480004F8F00BFFEE700BF4FF0500080F3118840
:10549000BFF36F8FBFF34F8FFEE700BF28680C4646
:1054A00060B3FFF791FAEFF311864FF0500080F3ED
:1054B0001188BFF36F8FBFF34F8FA96BE86B8142E9
:1054C00018D295F845000131FF28A96324D155F879
:1054D000240F48B3284600F0D1FB0146002C4FF0C2
:1054E000010018BF00291BD00120206086F311881D
:1054F00070BD00BF002086F3118870BDA868002829
:10550000CFD04FF0500080F31188BFF36F8FBFF3FF
:105510004F8F00BFFEE700BF013085F84500012036
:1055200086F3118870BD00BF012086F3118870BD1D
:105530002DE9F04F83B0029290B116460D46044615
:10554000002947D000F072FAA0B99EB14FF0500088
:1055500080F31188BFF36F8FBFF34F8FFEE700BF5B
:105560004FF0500080F31188BFF36F8FBFF34F8F60
:10557000FEE700BFFFF768F9D4F838A0BAF1000FD2
:1055800036D0226C52B1D4E902308118E1609942E0
:1055900024BF2168E1602846FAF755FEAAF1010010
:1055A000A06354F8100F70B1204600F067FB50B1B3
:1055B0004EF60450CEF200004FF080510160BFF370
:1055C0004F8FBFF36F8F0124FFF762F9204603B0BE
:1055D000BDE8F08F206C0028B4D04FF0500080F36D
:1055E0001188BFF36F8FBFF34F8F00BFFEE700BF7F
:1055F00004F1240801206F464FF000090DF1080B5B
:105600002EE000BFFFF744F9FFF724FCFFF71CF979
:1056100094F84400FF2808BF84F8449094F84500AB
:10562000FF2808BF84F84590FFF732F938465946FD
:1056300000F03EF9E0B12046FEF7E0FC00F058FB38
:10564000FFF702F9A66BFFF723F9002E3CD0FFF716
:10565000FBF8D4F838A00020BAF1000F7FF491AF26
:10566000029949B3C007CDD03846FFF79FFAC9E782
:10567000FFF7EAF8A66BFFF70BF92EB12046FEF70D
:10568000BDFC00F035FBE2E702994046FFF7A0FAC7
:105690002046FEF7B3FC00F02BFB0028D7D14EF6D6
:1056A0000450CEF200004FF080510160BFF34F8FE5
:1056B000BFF36F8FCBE700BF0024FFF7E9F8204668
:1056C00003B0BDE8F08F00BF0024204603B0BDE862
:1056D000F08F00002DE9F04F83B0029160B10446D5
:1056E000006C98B14FF0500080F31188BFF36F8FBA
:1056F000BFF34F8FFEE700BF4FF0500080F31188DB
:10570000BFF36F8FBFF34F8FFEE700BF0D4600F072
:105710008DF958B955B14FF0500080F31188BFF39F
:105720006F8FBFF34F8F00BFFEE700BFFFF78CF80E
:10573000A16BF9B1481EA063206810B9FEF79EFD69
:10574000A06054F8100F70B1204600F097FA50B1E5
:105750004EF60450CEF200004FF080510160BFF3CE
:105760004F8FBFF36F8F0124FFF792F8204603B0ED
:10577000BDE8F08F04F124094FF0000B01206E46C4
:1057800002AF4FF000082AE0FFF782F8FFF762FB54
:10579000FFF75AF894F84400FF2808BF84F844B093
:1057A00094F84500FF2808BF84F845B0FFF770F86B
:1057B0003046394600F07CF8D0B12046FEF71EFC9A
:1057C00000F096FAFFF740F8A56BFFF761F8002D9F
:1057D0004ED0FFF739F8A16B00200029AAD1029919
:1057E000C1B3C007D0D03046FFF7E0F9CCE700BF27
:1057F000FFF72AF8D4F838A0FFF74AF8BAF1000FFB
:1058000006D02046FEF7FAFB00F072FAE1E700BF8F
:10581000206838B9FFF718F8A06800F0E5F980466D
:10582000FFF736F802994846FFF7D2F92046FEF70F
:10583000E5FB00F05DFA0028CBD14EF60450CEF225
:1058400000004FF080510160BFF34F8FBFF36F8FA7
:10585000BFE700BFB8F1000F22D04FF0500080F337
:105860001188BFF36F8FBFF34F8F00BFFEE700BFFC
:10587000B8F1000F0AD0FEF7E7FFD9F8000058B1E1
:10588000206B0068C0F1380107E000BF002420460B
:1058900003B0BDE8F08F00BF0021A068FFF710FA49
:1058A0000024FEF7F5FF204603B0BDE8F08F0000AE
:1058B000B0B5D8B10D4619B30446FEF7C5FF40F2A6
:1058C0007C0CC2F2000CDCF8182029684B1C21D09B
:1058D000D4E9000EDCF83830834221D072451FD362
:1058E0000124FEF7D5FF2046B0BD00BF4FF05000A9
:1058F00080F31188BFF36F8FBFF34F8FFEE700BFB8
:105900004FF0500080F31188BFF36F8FBFF34F8FBC
:10591000FEE700BF0024FEF7BBFF2046B0BD00BF7E
:10592000A2EB0E0291420DD9881A2860DCF83800EB
:105930002060DCF8180060600024FEF7A9FF204614
:10594000B0BD00BF002001242860FEF7A1FF204663
:10595000B0BD00002DE9F04383B0074690009846A3
:1059600015468946FEF784FBF8B106465C20FEF733
:105970007FFBB8B10446DDE90A100022266384F8F3
:105980005920CDE90010384649462A46434602943C
:10599000FEF7A6F82046FDF719FF012003B0BDE889
:1059A000F08300BF3046FEF78BFF4FF0FF3003B0AF
:1059B000BDE8F08370B586B00B9CCCB10C9E0EB3E5
:1059C0005C250495049D5C2D26D1049DDDF828C03E
:1059D000022586F8595005AD3463CDE900C502961D
:1059E000FEF77EF83046FDF7F1FE059806B070BD73
:1059F0004FF0500080F31188BFF36F8FBFF34F8FCC
:105A0000FEE700BF4FF0500080F31188BFF36F8FA7
:105A1000BFF34F8FFEE700BF4FF0500080F31188B7
:105A2000BFF36F8FBFF34F8FFEE7000040F27C00A3
:105A3000C2F20000016900290FBF01204069B0FADD
:105A400080F0400918BF40007047000040F27C0021
:105A5000C2F20000806970472DE9F04381B040F246
:105A60007C06C2F20006706940B1706B0024013000
:105A70007063204601B0BDE8F08300BFB06910F14B
:105A80000109C6F8189020D3F069006850B14FF0B2
:105A9000500080F31188BFF36F8FBFF34F8F00BFAB
:105AA000FEE700BFF069316AF1613062B06B01302E
:105AB000B063F069006828B1F069C068C0684068E8
:105AC00002E000BF4FF0FF30F062F06A40F2AC3805
:105AD0008145C2F2000801D200242EE0F0690024C2
