:020000040800F2
:1000000048530020C50100083137000815250008B5
:100010002D370008A1030008513F00080000000030
:10002000000000000000000000000000D1380008BF
:10003000310600080000000041370008253D000897
:10004000DF010008DF010008DF010008DF01000810
:10005000DF010008DF010008350600083D06000842
:10006000450600084D06000855060008DF01000897
:10007000DF010008DF010008DF010008DF010008E0
:10008000DF010008DF010008DF010008DF010008D0
:10009000DF010008DF010008DF0100085D0600083D
:1000A000DF010008DF010008DF010008DF010008B0
:1000B000DF010008DF010008DF010008DF010008A0
:1000C000DF010008DF010008DF010008DF01000890
:1000D000DF010008DF010008453F0008DF010008DC
:1000E000DF010008DF010008DF010008DF01000870
:1000F000DF010008DF010008DF010008DF01000860
:10010000DF010008DF010008DF010008DF0100084F
:10011000DF010008DF010008DF010008DF0100083F
:10012000DF010008DF010008DF010008DF0100082F
:10013000DF010008DF010008DF010008DF0100081F
:10014000DF010008DF010008DF010008DF0100080F
:10015000DF010008DF010008DF010008DF010008FF
:10016000DF010008DF010008DF010008DF010008EF
:10017000DF010008DF010008DF01000800000000C7
:10018000DF010008DF010008DF010008DF010008CF
:10019000DF010008DF010008DF010008DF010008BF
:1001A000DF010008DF010008DF010008DFF810D0E0
:1001B00000F0C0F800F08AF8004800475D5C0008D5
:1001C000485300200648804706480047FEE7FEE700
:1001D000FEE7FEE7FEE7FEE7FEE7FEE7FEE7FEE7F7
:1001E0003D3D0008AD0100082DE9F05F0546002007
:1001F00092469B4688460646814640241BE0284698
:1002000041464746224600F084F853465A46C01AF3
:10021000914110D311461846224600F06BF82D1A72
:1002200067EB01084F4622460120002100F062F8EA
:1002300017EB00094E41201EA4F10104DFDC484603
:1002400031462A464346BDE8F09F40EA01039B073A
:1002500003D009E008C9121F08C0042AFAD203E03B
:1002600011F8013B00F8013B521EF9D27047D2B29F
:1002700001E000F8012B491EFBD270470022F6E78F
:1002800010B513460A4604461946FFF7F0FF20460C
:1002900010BD10B5044604E00B7800F8013B03B133
:1002A000491C521EF8D2204610BD421C10F8011BFA
:1002B0000029FBD1801A7047034611F8012B00F882
:1002C000012B002AF9D11846704700007CB5074879
:1002D0000090074801900546009C04E02046016814
:1002E00008448047241DAC42F8D17CBDD0A600084C
:1002F000D4A60008202A04DB203A00FA02F10020EC
:1003000070479140C2F1200320FA03F31943904053
:100310007047202A04DB203A21FA02F000217047BE
:1003200021FA02F3D040C2F120029140084319465D
:10033000704700001CB50948009009480190054627
:10034000009C06E0E06840F0010394E8070098474D
:100350001034AC42F6D3FFF72DFF0000B0A6000822
:10036000D0A6000830B58C1810F8012B12F00F033E
:1003700001D110F8013B120906D110F8012B03E05E
:1003800010F8015B01F8015B5B1EF9D101E001F897
:10039000013B521EFBD1A142E6D3002030BD00003C
:1003A000FEE700002DE9F04F83B00E46044640F210
:1003B0000009052004210192C4F2020900F0DCF8D2
:1003C0000A20802103F048FB6EB340F2106A013C22
:1003D0004FF06408C2F2000A0DF10B070DF10A0597
:1003E00014F801BF48461021002200F0F3FA122051
:1003F0008DF80B00504639462A460123CDF800807F
:1004000001F050FA504639462A4601238DF80BB0C8
:10041000CDF8008001F046FA48461021012200F094
:10042000D9FA013EDCD148461021002200F0D2FA70
:1004300040F210660220C2F200060DF10B070DF12A
:100440000A048DF80B004FF0640830463946224606
:100450000123CDF8008001F025FA03208DF80B0070
:100460000DF10B010DF10A0230460123CDF8008099
:1004700001F018FA48461021012200F0ABFAFF25DE
:100480004FF08A0B48461021002200F0A3FA3046B4
:100490003946224601238DF80BB0CDF8008001F0DB
:1004A00001FA00208DF80B00304639462246012320
:1004B000CDF8008001F0F6F99DF80AA04846102119
:1004C000012200F087FA013D280602D01AF004004C
:1004D000D8D04846102100224FF0000800F07AFAE8
:1004E00040F21064C420C2F200048DF80B006425B1
:1004F0000DF10B010DF10A0220460123009501F0D8
:10050000D1F90DF10B010DF10A02204601238DF8FE
:100510000B80009501F0C6F99DF80A70484610213D
:10052000012200F057FA019E484610210022377040
:1005300000F050FAC2208DF80B000DF10B010DF107
:100540000A0220460123009501F0ACF90DF10B01E0
:100550000DF10A02204601238DF80B80009501F071
:10056000A1F99DF80A4048461021012200F032FA14
:10057000747003B0BDE8F08F2DE9F04784B040F20D
:100580000008C4F202088A460646404610210022AE
:100590004FF0000900F01EFA802040F2106540EA9A
:1005A0004600C2F200058DF8090064240DF109012E
:1005B00002AA28460123009401F074F90DF10B0101
:1005C0000DF10A02284601238DF80B90009401F0EA
:1005D00069F99DF80A7040461021012200F0FAF9ED
:1005E00040461021002227EA0A0700F0F3F97E2096
:1005F00000EA46008DF80D000DF10D0103AA284612
:100600000123009401F04EF90DF10F010DF10E02DE
:10061000284601238DF80F70009401F043F94046FD
:100620001021012200F0D6F904B0BDE8F0870000E7
:1006300070470000012000F0EBB80000022000F03D
:10064000E7B80000042000F0E3B80000082000F044
:10065000DFB80000102000F0DBB8000080B52020DB
:1006600000F0D6F84020BDE8804000F0D1B800008E
:1006700072B600BFFEE7000070B5866D044600F05C
:10068000AFF994F83510022928D105462068216C6D
:10069000026822F016020260426922F08002426182
:1006A00009B9A16C19B1016821F008010160016864
:1006B00021F00101016000BF20680068C00715D06B
:1006C00000F08EF9401B0628F6D320206065032039
:1006D00084F83500002184F8341070BD80206065F6
:1006E0000120002184F8341070BD00BFE06D3F216F
:1006F00001FA00F0B060012084F8350000200021EC
:1007000084F8341070BD000090F83510022909D12A
:10071000052180F835100068016821F001010160B1
:1007200000207047802141650120704780B582B06C
:10073000013800210F2801915AD8DFE800F009594B
:1007400059275959590D595959595959593F00BFA4
:1007500001A900203DE000BF41F20000C4F2020008
:10076000082100F031F9012842D140F24820C2F2BC
:100770000000006900218DF803100DF1030101AAAA
:10078000002308F083FD019838BB31E041F20000FE
:10079000C4F20200A0F58060042100F015F90146C2
:1007A00040F24820C2F200000068012922D1002155
:1007B0008DF802100DF1020121E000BF41F20000AE
:1007C000C4F20200102100F0FFF8012810D101A9A5
:1007D000012003F00DF9019850B14EF60450CEF20D
:1007E00000004FF080510160BFF34F8FBFF36F8F58
:1007F00002B080BD01218DF801100DF1010101AAA7
:10080000022308F043FD01980028E6D1F0E700003C
:1008100043F61441C4F201010A68024214BF0860A1
:100820007047FFF783BF00002DE9F04F83B000F160
:10083000200200F13E4742F20045009207F1FF77A7
:10084000C4F202050A224FEAB726A84208BF0922CD
:1008500000254FF000084FF00009092E38BF4FEA7D
:10086000B72201920AE000BF09F1010908F102086C
:10087000B9F1100F05F1040500F0A2800F68012204
:1008800002FA09FE17EA0E0AEED0D1F804C00322DC
:100890000CF003077E1E02FA08F4012E6FEA040B27
:1008A00012D88468CE6804EA0B0406FA08F63443CA
:1008B0008460446824EA0E06CCF3001404FA09F4B8
:1008C0002643466004E000BF032F01D103271EE04A
:1008D000C6688C6806EA0B0604FA08F42643022F61
:1008E000C66014D16FF00302009E02EA590756F861
:1008F00007C005F01C040F220B69A2402CEA02027B
:10090000A3401A43F251D1F804C00CF00307026867
:1009100007FA08F302EA0B021A431CF4403F026094
:10092000A2D0002243F644030292C4F202031A68E2
:1009300043F6004442F480421A601A68C4F201048B
:1009400002F480420292029A29F003024FF6084C08
:100950002244CFF6FF7C52F80C3005F00C070F262E
:10096000BE40B343019E06FA07F73B4342F80C3002
:10097000A2684B6842EA0A0743F60C4CDE0258BFF5
:1009800022EA0A07A760C4F2010CDCF800209E02EC
:1009900042EA0A0758BF22EA0A07CCF800706268E8
:1009A0009E0342EA0A0758BF22EA0A0767602268E4
:1009B000DB0342EA0A0758BF22EA0A07276053E727
:1009C00003B0BDE8F08F00000069084018BF0120A7
:1009D00070470000002A08BF0904816170470000C9
:1009E00044F64800C2F200000068704790F83D20CD
:1009F000202A1CBF02207047242280F83D20026874
:100A0000136823F001031360536A23F01003536249
:100A1000536A19435162116841F0010111602021AC
:100A200080F83D100020704790F83D20202A1CBF20
:100A300002207047242280F83D20026889B21368A2
:100A400023F001031360D2F824C04FF6F07303EAD9
:100A50000C0319435162116841F00101116020211A
:100A600080F83D1000207047002804BF0120704727
:100A7000F0B581B0044690F83D0028B9002084F814
:100A80003C00204600F09AFA242084F83D002068BB
:100A9000016821F001010160016841F40041016039
:100AA000016821F40041016000F034FC636848F201
:100AB000A16CC0F2010C40F60011C0F23D0163458B
:100AC0003CBF48F28041C0F21E01884202D20120A0
:100AD00001B0F0BD4DF68361C4F21B31A0FB0112E1
:100AE0002168970CD1F804E04FF496762EF03F057C
:100AF00045EA92454D60774348F638160D6AC0F2D4
:100B00004106A7FB067625F03F07634538BF960CE4
:100B1000721C3A430A62CA6948F2A0664CF6FF7733
:100B2000C0F20106B34222EA07020BD801385B008B
:100B3000B0FBF3F001306FF31F30042898BF04209E
:100B40001BE000BFA768013857B119277B43B0FBF2
:100B5000F3F001306FF31F3070B100F5804007E013
:100B600003EB4303B0FBF3F001306FF31F3018B118
:100B700000F5004001E000BF01201043C861086893
:100B8000D4E9072320F0C0001043184308608868A8
:100B900048F2FF3204F10C0790438CCF1843104306
:100BA000A6698860C86820F0FF0038433043C860F9
:100BB000086840F00100086000202021206484F8CB
:100BC0003D10206384F83E0001B0F0BD2DE9F04FE8
:100BD00083B01E46924688460446FFF701FF94F80C
:100BE0003D10202924D12168054600BF886980076F
:100BF0001AD5FFF7F5FE401B21681A28F6D388693D
:100C00008007F3D500202021206384F83D1084F86C
:100C10003E00216C41F02001216484F83C00022058
:100C200003B0BDE8F08F00BF94F83C00012803D169
:100C3000022003B0BDE8F08F4FF0010984F83C902A
:100C40000868C00703D1086840F001000860086820
:100C5000002720F400600860242084F83D00002074
:100C6000CFF6FF702764E06208F0FE08BAF1010FCA
:100C700088BFD1464FF0A00A4FF0200B04E000BF20
:100C800001374F4500F0A2800868002240F48070D0
:100C9000086020464FF001113346009501F004FD35
:100CA0002168002856D1C1F81080FFF799FE21680D
:100CB0004B694A6994F83D50A02D054605D013F0C4
:100CC000020008BF12F480601AD084F83DB0486971
:100CD0000A68800742F400720A6045D46FF48060AD
:100CE000486100BF88698007CAD5FFF779FE401BBD
:100CF00021681A28F6D388698007F3D54AE000BF37
:100D0000B6B100BFFFF76CFE401BB04288BF84F84D
:100D10003DA021684A69486994F83D30A02BD4D0A1
:100D200012F0020208BF10F48060EBD0CDE700BFE4
:100D3000FFF756FE84F83DA021684A69486994F897
:100D40003D30A02BC1D012F00202BED110F4806061
:100D5000EED0BAE70868C00544BF4FF400702064C5
:100D6000032003B0BDE8F08F002002904869029094
:100D7000886902900298886901E000BF8069800755
:100D80001AD5FFF72DFE411B20681A29F6D3816979
:100D90008907F3D500202021206384F83D1084F8D2
:100DA0003E00216C41F02001216484F83C000120C8
:100DB00003B0BDE8F08F00BF202084F83D00002084
:100DC00084F83C0003B0BDE8F08F00BF202084F819
:100DD0003D00002084F83C00012003B0BDE8F08F06
:100DE0002DE9F04383B01E46174689460446FFF7B7
:100DF000F7FD94F83D10202924D10546206800BF56
:100E0000816989071AD5FFF7EBFD411B20681A2974
:100E1000F6D381698907F3D500202021206384F867
:100E20003D1084F83E00216C41F02001216484F8DB
:100E30003C00022003B0BDE8F08300BF94F83C10F2
:100E4000012903D1022003B0BDE8F083012184F819
:100E50003C100168C90703D1016841F0010101603C
:100E6000016840F2020821F400610160212184F848
:100E70003D10102184F83E100021216467626685D0
:100E8000618DC0F201082185A8F10211E162E16AD9
:100E90000A9E11F5803F18BF01291DD1016841F458
:100EA0008071016020464FF0011100223346009509
:100EB00001F0FAFB50B120680068C00544BF4FF450
:100EC00000702064012003B0BDE8F0832069B0F514
:100ED000804F07D1FE2015E00829DFD0216B1229B1
:100EE000DCD0DFE7062000EAD9102168F030086185
:100EF00008F10601204632462B4601F0BBFC0028D3
:100F0000E0D1FF20216800EA09000861204641463F
:100F100032462B4601F0AEFC0028D3D100200290CF
:100F200020684169029180690290029806E000BF42
:100F3000204631462A4601F059FB18BB208D68B384
:100F4000204631462A4601F001FDD8B9606A216881
:100F5000024612F8013B0B616262628D013A6285C2
:100F6000228D531E23854F697F07E1D51B04DFD0F7
:100F7000437802300B616062608D01386085901E9D
:100F80002085D5E7206C04289CD12068016841F4B5
:100F900000710160012003B0BDE8F08320680168A2
:100FA00041F400710160202084F83D00002084F8A5
:100FB0003E0084F83C0003B0BDE8F083B0B586B0D5
:100FC00045F200410068C4F2000100248842059403
:100FD000CDE903440294019402D006B0B0BD00BF35
:100FE00043F630050094C4F20205286840F0020080
:100FF0002860286800F00200009000984FF44070CC
:1010000001901220CDE902040320049004200590F1
:1010100001F5D83001A9FFF707FC0094286940F4D6
:1010200000102861286900F400100090009806B0B4
:10103000B0BD000040F2040044F64801C2F20000D6
:10104000C2F2000100780A6810440860704700008E
:1010500080B543F60040C4F20200016841F400711B
:101060000160016841F480610160016841F48071B0
:101070000160032000F08CF80F2000F005F800F06C
:1010800027F8002080BD000070B540F20406C2F2CF
:10109000000640F20C013278C2F200014FF47A737C
:1010A0000968B3FBF2F20446B1FBF2F1084600F026
:1010B00099FD0F2C4FF0010508D838B94FF0FF30DB
:1010C00021460022002500F037F87460284670BDE4
:1010D00082B0002043F640010190C4F202014A6848
:1010E00042F480424A604A6802F480420192019AC6
:1010F00000900868002240F08050086008680F21C6
:1011000000F08050009000986FF0010002B000F0F5
:1011100013B80000002848BF704700F01F010122EB
:1011200002FA01F11C2202EAD0004EF20012CEF2C5
:10113000000281507047000010B54EF60C5CCEF2F4
:10114000000CDCF80030C3F3022E8EF00704042CF0
:1011500028BF0424BEF103034FF0FF3E0EFA04F44F
:1011600038BF0023A14399400EFA03F39A43114379
:1011700000F00F0200F160430901043A03F56443F3
:101180006244002848BF02F10C03197010BD000032
:101190004EF60C51CEF200010A684FF6FF031A40DA
:1011A00060F30A2242F0806040F0FD7008607047F2
:1011B000002804BF012070472DE9F04143F60808DC
:1011C000C4F202080446D8F8F8030D4600F00F00F8
:1011D000814207D988F8F853D8F8F80300F00F00D7
:1011E000A84277D12068810717D5410705D5D8F8DF
:1011F000001041F4E051C8F80010010705D5D8F8F7
:10120000001041F46041C8F80010D8F80010A2683E
:1012100021F0F0011143C8F80010C00740D1D8F800
:10122000F80300F00F00854207D288F8F853D8F889
:10123000F80300F00F00A8424CD12068410707D501
:10124000D8F80010E26821F4E0511143C8F800100A
:10125000000708D5D8F80000216920F4604040EA72
:10126000C100C8F8000000F07DF8D8F800104AF27C
:10127000BE22C1F30311C0F60002515C40F20C0221
:1012800020FA01F140F20800C2F200000068C2F248
:1012900000021160FFF7F8FE0020BDE8F08100BFFA
:1012A0006068811E022907D258F8081C89015CBFBA
:1012B0000120BDE8F08111E0012807D158F8081C91
:1012C00089035CBF0120BDE8F08107E058F8081CE5
:1012D000890703D40120BDE8F08100BFD8F80010D1
:1012E00021F003010843C8F80000FFF779FB064628
:1012F00041F28837D8F80000616800F00C00B0EBCC
:10130000810F8CD0FFF76CFB801BB842F2D9032011
:10131000BDE8F08140F20C0043F60801C2F2000083
:10132000C4F20201006809684AF2CE22C1F38221A8
:10133000C0F60002515CC8407047000040F20C004B
:1013400043F60801C2F20000C4F202010068096815
:101350004AF2CE22C1F34231C0F60002515CC840CD
:101360007047000010B543F60404C4F2020461683B
:10137000C1F3810142F20040C0F2F400DFE801F065
:1013800002040A0210BD00BF47F64000C0F27D1003
:1013900010BD00BF206821682368490247F640015C
:1013A000C0F27D1100F03F02C3F388105CBF42F22F
:1013B0000041C0F2F401A1FB00010023FEF714FF7D
:1013C00021680222C1F3014102EB4101B0FBF1F0BF
:1013D00010BD0000002804BF012070472DE9F04136
:1013E00082B00446007843F60006C007C4F2020645
:1013F0000CD0B06800F00C00042840F08180306808
:10140000800303D56068002800F068812078800799
:101410001BD5B06810F00C0F09D0B06800F00C00BC
:10142000082840F087807068400200F183803068AF
:10143000800703D5E068012840F0508130682169B9
:1014400020F0F80040EAC10030602078000713D493
:10145000207840072AD4A569002D00F03A81B068B1
:1014600000F00C00082840F0A580012D40F00E810E
:10147000012002B0BDE8F0816069002800F08280A0
:101480000020C4F247200121C0F8801EFFF7A8FA0F
:10149000054600BF706F8007DAD4FFF7A1FA401B42
:1014A0000228F7D9032002B0BDE8F081306C5FEA72
:1014B000C0080AD400200190306C40F080503064A5
:1014C000306C00F080500190019847F20007C4F2A0
:1014D00000073868C00547D4386840F48070386029
:1014E000FFF77EFA054600BF3868C0053CD4FFF719
:1014F00077FA401B0228F7D9032002B0BDE8F0813B
:10150000B06800F00C00082803D1706840023FF575
:1015100076AF61683068B1F5803F07D0B1F5A02F94
:1015200040F09A8040F480203060306840F4803091
:1015300030609AE0E068002840F20000C4F24720E2
:101540005CD001210160FFF74BFA05463068800747
:101550003FF574AFFFF744FA401B0228F6D9032089
:1015600002B0BDE8F08100BFA168306F012905D04D
:10157000052955D140F004003067306F40F001007C
:10158000306756E00020C4F247200021C0F8801EDA
:10159000FFF726FA054600BF706F80077FF558AF4A
:1015A000FFF71EFA401B0228F6D9032002B0BDE85F
:1015B000F08100BF0027C4F2472700203866FFF7FC
:1015C0000FFA022D05460DD13068800140F18A8066
:1015D000FFF706FA401B02284FF00300F4D902B0CF
:1015E000BDE8F0813068800173D5FFF7F9F9401B41
:1015F00002284FF00300F5D9F1E700BF0021016098
:10160000FFF7EEF9054600BF306880077FF51DAF94
:10161000FFF7E6F9401B02284FF00300F4D9DEE79C
:1016200020F001003067306F002920F0040030679F
:101630007AD0FFF7D5F9054641F28837306F800739
:1016400000F18480FFF7CCF9401BB842F6D90320A3
:1016500002B0BDE8F08100BF20F480303060306817
:10166000002920F4802030607AD0FFF7B9F90546D0
:10167000306880033FF5CAAEFFF7B2F9401B64281B
:10168000F6D9032002B0BDE8F08100BF7068E169BF
:1016900000F480028A4221D1216A00F03F028A428E
:1016A0001CD147F6C071626A0140B1EB821F15D1AF
:1016B000A16A4FF6FF73C903994300F44032A1F5C4
:1016C00080318A420AD1E16A00F07060B0EB016FAC
:1016D00004D1002002B0BDE8F08100BF012002B0BB
:1016E000BDE8F08104F11C052FCD084340EA8210CB
:1016F000D9034FF6FF729143A1F5803140EA0560AE
:101700000843706001203866FFF76AF9044600BF9D
:1017100030688001DDD4FFF763F9001B02284FF029
:101720000300F5D95BE700BFFFF75AF9054641F220
:10173000883700BF306F800708D5FFF751F9401B8D
:10174000B8424FF00300F5D949E700BFB8F1000FE8
:101750003FF581AE306C20F0805030647BE600BFF6
:10176000FFF73EF9054600BF306880037FF54EAEB7
:10177000FFF736F9401B64284FF00300F4D92EE739
:1017800070B528B1416A29B100210161142106E038
:10179000012070BD4168B1F5827F02D01C2100227A
:1017A00042500026866290F8511029B980F85060A6
:1017B000054600F03DF82846022180F8511090E8D7
:1017C0002E0002F482720C6803F4044324F04004F7
:1017D0000C601A4405F4006305691A4405F002031D
:1017E00045691A4405F001038569C4691A4405F482
:1017F00000731A4404F03803046A1A4404F08003A6
:10180000846A1A4304F400531A430A60436A0422A8
:1018100002EA154203F010031A444A60CA6922F42E
:101820000062CA610121466580F85110304670BDE2
:1018300080B586B043F200010068C4F201010022C5
:1018400088420592CDE903220292019202D006B0AD
:1018500080BD00BF43F630000092C4F2020043692D
:1018600043F480534361436903F480530093009B26
:101870000092036843F001030360006800F0010078
:1018800000900098E02001900220CDE902020320A0
:1018900004900520059001F5504001A9FEF7C4FF12
:1018A00006B080BD2DE9F04383B01E4615460F46B5
:1018B0000446FFF795F894F851108146012909D1A3
:1018C000002F4FF0010018BF002D0FD103B0BDE86D
:1018D000F08300BF6068B0F5827F0DD104294FF01E
:1018E0000200F3D1A1680029EAD0EFE7002EEDD085
:1018F00094F85000012803D1022003B0BDE8F08322
:10190000012084F8500094F85100002104281CBFE5
:10191000052084F851006165A563E687A6872763E3
:10192000E6862068A686216461640168490603D4BE
:10193000016841F0400101606168731EE268B1FA1C
:1019400081F1B3FA83F3DDF8288049095B09B2F528
:10195000006F41EA030165D131B137F8021BC16064
:101960002763E08E0138E086012518F1010032D1AD
:1019700002E000BFFFF734F8E08E18B9E08F0028CE
:1019800000F0B8802068816889070CD5E18E51B1DC
:10199000012D08D1216B002531F8022BC260216393
:1019A000E18E0139E1868168C907E3D0E18F002922
:1019B000E0D0C068A16B012521F8020BA163E08F84
:1019C0000138E087D6E700BFFFF70AF8A0EB09006F
:1019D000404580F0A580E08E18B9E08F002800F027
:1019E00089802068816889070CD5E18E51B1012D6D
:1019F00008D1216B002531F8022BC2602163E18EF2
:101A00000139E1868168C907DED0E18F0029DBD08A
:101A1000C068A16B012521F8020BA163E08F01389A
:101A2000E087D1E739B139780173206B0130206349
:101A3000E08E0138E086012518F1010032D101E085
:101A4000FEF7CEFFE08E10B9E08F002852D020685C
:101A5000816889070ED5E18E61B1012D0AD1216B14
:101A6000002509780173216B206801312163E18E23
:101A70000139E1868168C907E2D0E18F0029DFD012
:101A8000C068A16B01250870A06B0130A063E08FD6
:101A90000138E087D4E700BFFEF7A2FFA0EB090002
:101AA00040453DD2E08E08B9E08F18B320688168C8
:101AB00089070ED5E18E61B1012D0AD1216B002578
:101AC00009780173216B206801312163E18E0139AE
:101AD000E1868168C907DFD0E18F0029DCD0C068CA
:101AE000A16B01250870A06B0130A063E08F013865
:101AF000E087D1E72046022101224346CDF800903D
:101B000001F050FEB0B1606D40F020006065202013
:101B10006065002084F85000012003B0BDE8F08328
:101B2000012084F85100002084F85000032003B005
:101B3000BDE8F08340F20C00C2F20000006849F6F4
:101B40008171C1F25E61A0FB0101480D4FF47A7111
:101B5000484302906068B0F5827F0BD12046802117
:101B600000224346CDF8009001F01CFE0028CAD1A7
:101B700021E000BF0298F0B102980138029020687D
:101B80008168090617D50299A9B102990139029114
:101B9000816809060FD5029969B10299013902914C
:101BA0008168090607D5029929B102990139029184
:101BB00080680006DED4A06838B900200190206853
:101BC000C1680191806801900198012084F851005A
:101BD000002084F85000606D002818BF012003B079
:101BE000BDE8F083411E0020B0EB116F1CBF012047
:101BF00070474EF21002CEF2000251604EF62351B1
:101C0000CEF20001F0230B70072190601160704745
:101C10007047000070470000B0B582B001680A68E4
:101C2000CC684B6902F02F05202D04F0200505D16A
:101C300025B102B0BDE8B04002F090B85FEA027C86
:101C40001EBF03F0010E04F4907313EB0E0341D199
:101C5000036BD50618D5012B16D114F0100313D041
:101C6000002201920A6801924A680192019A496928
:101C700049064BD4818DC28DC38D002B18BF914274
:101C800040F0068202B0B0BD13062DD514F08003DB
:101C90002AD090F84120212AF4D18268B2F5805FE1
:101CA00003D10269002A00F07982026A531C0362A0
:101CB00012784A60C28C013A1304C284E2D1C86827
:101CC00020F08000C860C86840F04000C86002B0E2
:101CD000B0BD00BFD30718BF14F4807340F0E2809A
:101CE000530700F1E580EAE05206CBD514F040023C
:101CF000C8D0CA6822F04002CA60202180F8411092
:101D000002B0BDE8B04000F003BC00BFC26B116878
:101D10004B68858D99B2002900F0B480A94280F00B
:101D2000B180C385D169B1F5807F00F0A0800168E2
:101D300051E8031F026821F4807142E80313DBB10C
:101D4000016851E8031F026821F4807142E803131F
:101D500093B1016851E8031F026821F4807142E8E1
:101D600003134BB1016851E8031F026821F480712D
:101D700042E80313002BDAD1016851E8051F02681D
:101D800021F0010142E80513BBB3016851E8051FCA
:101D9000026821F0010142E8051373B3016851E8BC
:101DA000051F026821F0010142E805132BB3016809
:101DB00051E8051F026821F0010142E80513002BDC
:101DC000DAD11AE0016851E8051F026821F04001EC
:101DD00042E80513DBB1016851E8051F026821F0F4
:101DE000400142E8051393B1016851E8051F0268FC
:101DF00021F0400142E805134BB1016851E8051F8D
:101E0000026821F0400142E80513002BDAD12021BD
:101E100080F8421000210163016851E8031F026845
:101E200021F0100142E80313DBB1016851E8031F00
:101E3000026821F0100142E8031393B1016851E8F0
:101E4000031F026821F0100142E803134BB101683F
:101E500051E8031F026821F0100142E80313002B30
:101E6000DAD1C16B04460846FEF706FC2046022183
:101E70004163818DC28D891A89B202B0BDE8B0403C
:101E8000FFF7C6BE8D427FF4FDAED269B2F5807F0A
:101E90007FF4F8AE0222426302B0BDE8B040FFF723
:101EA000B7BE00BF436C43F001034364530706D53C
:101EB000BEF1000F03D0436C43F002034364930769
:101EC00006D5BEF1000F03D0436C43F00403436416
:101ED000BCF1000F06D55EEA050303D0436C43F066
:101EE00008034364436C002B3FF4CCAE920605D547
:101EF00025B1044601F032FF216820464969426C51
:101F000001F0400102F00802891800F0B98000BF1A
:101F1000016851E8031F026821F4907142E803133D
:101F2000BBB3016851E8031F026821F4907142E8D5
:101F3000031373B3016851E8031F026821F4907121
:101F400042E803132BB3016851E8031F026821F430
:101F5000907142E80313002BDAD11AE0016851E8CE
:101F6000051F026821F0010142E80513DBB1016899
:101F700051E8051F026821F0010142E8051393B101
:101F8000016851E8051F026821F0010142E80513CC
:101F90004BB1016851E8051F026821F0010142E8D8
:101FA0000513002BDAD1016B012924D1016851E816
:101FB000031F026821F0100142E80313DBB101683E
:101FC00051E8031F026821F0100142E8031393B1A6
:101FD000016851E8031F026821F0100142E8031371
:101FE0004BB1016851E8031F026821F0100142E87B
:101FF0000313002BDAD1202180F842100021016365
:1020000001684969490640F1C380016851E8051F2C
:10201000026821F0400142E80513DBB1016851E894
:10202000051F026821F0400142E8051393B10168E1
:1020300051E8051F026821F0400142E805134BB149
:10204000016851E8051F026821F0400142E80513CC
:10205000002BDAD1C16B002900F09A8043F651526F
:10206000C0F60002044608460A65FEF74DFB00284C
:102070003FF408AEE06B016D02B0BDE8B040084728
:102080000446FFF7C7FD0020606402B0B0BD00BF8A
:10209000891A00BF026852E8032F036822F4907285
:1020A00043E80325BDB3026852E8032F036822F416
:1020B000907243E8032575B3026852E8032F036862
:1020C00022F4907243E803252DB3026852E8032FEF
:1020D000036822F4907243E80325002DDAD11AE058
:1020E000026852E8052F036822F0010243E8052543
:1020F000DDB1026852E8052F036822F0010243E8CF
:10210000052595B1026852E8052F036822F0010207
:1021100043E805254DB1026852E8052F036822F017
:10212000010243E80525002DDAD1202280F8422063
:1021300000220263026852E8032F036822F01002B3
:1021400043E80325DDB1026852E8032F036822F05B
:10215000100243E8032595B1026852E8032F036893
:1021600022F0100243E803254DB1026852E8032F24
:10217000036822F0100243E80325002DDAD1022281
:1021800089B2426302B0BDE8B040FFF741BD00BF75
:1021900002B0BDE8B040FFF73DBD00BF026A32F8B3
:1021A000023B6FF35F234B60026283E5002804BFAC
:1021B0000120704710B5044690F8410028B900206E
:1021C00084F84000204600F021F8242084F84100E3
:1021D0002068C16821F40051C160204601F03EFE34
:1021E0002068016921F490410161416921F02A01CF
:1021F0004161C16841F40051C16000202021606448
:1022000084F8411084F84210606310BD80B586B038
:10221000006844F60002C4F2000200219042CDE9B9
:102220000411CDE90211019138D044F20041C4F209
:10223000000188425BD1002043F630010090C4F2D7
:1022400002010A6942F400320A610A6902F40032AA
:102250000092009A00900A6842F008020A60096839
:1022600001F0080100910099602101910221CDE95E
:102270000210032004900720059040F60040C4F2AD
:10228000020001A9FEF7D0FA262005210022FEF760
:1022900053FF2620FEF73EFF06B080BD43F6300018
:1022A0000091C4F20200026942F4802202610269D4
:1022B00002F480220092009A0091026842F0080223
:1022C0000260006800F00800009000984FF4407031
:1022D00001900220CDE9020103200490072005901F
:1022E00040F60040C4F2020001A9FEF79DFA06B0D4
:1022F00080BD000090F84230202B07D100294FF01C
:10230000010318BF002A05D118467047022318465A
:10231000704700BF00230363816222218285C2854A
:10232000436480F842100169006819B1C16841F442
:102330008071C160416941F001014161C16841F0B2
:102340002001C16018467047016844F20042C4F29F
:102350000002914218BF7047B0B540F27434C2F227
:10236000000421780546084601F062FB2846214614
:102370000122BDE8B040FFF7BDBF00002DE9F043EA
:1023800081B0044690F84100202809D100294FF07F
:10239000010018BF002A07D101B0BDE8F08300BFDB
:1023A000022001B0BDE8F0830020606421201D46BA
:1023B0000E4684F841001746FEF712FBA784E78417
:1023C000A1688146B1F5805F02D1206900285DD007
:1023D00037460020E28C2168002A5DD06A1C24D098
:1023E000002D4AD0804600BF0868000608D4FEF7DA
:1023F000F7FAA0EB0900A8427AD82168C868F3E789
:1024000017B117F8010B04E038F8020B00276FF33F
:102410005F204860E08C0138E084E08C0028E3D144
:102420003AE000BF0A68120609D40A68120606D408
:102430000A6812065CBF0A685FEA0262F2D51FB141
:1024400017F8012B05E000BF30F8022B00276FF3CF
:102450005F224A60E28C013AE284E28C002AE4D1F5
:102460001AE000BF30F8022B00276FF35F224A60AA
:10247000E28C013AE284E28C72B10A68120635D528
:10248000002FEFD017F8012BF1E700BF00273046EF
:10249000E28C2168002AA1D1086840061ED42DB321
:1024A000681C14D1086840062AD40868400627D45E
:1024B0000868400624D4086840064FF00000F1D5B3
:1024C0000DE000BF2068C1680068400618D4FEF720
:1024D00087FAA0EB0900A842F4D909E000202021E6
:1024E00084F8411001B0BDE8F08300BFFEF778FA30
:1024F0000320202184F8411001B0BDE8F08300BF23
:102500000020202184F8411001B0BDE8F0830000D4
:1025100070470000FEE700002DE9F04397B029481E
:1025200011AD119027A0071D40698ECF0DF1480C09
:10253000169028468CE88E00FDF7B7FE40F26864DE
:10254000C2F2000482B2204629464FF0FF33FFF763
:1025500015FF40F2BC560025C2F200060FF28008BB
:1025600001AF0FF2780909E02046494601224FF0F9
:10257000FF33FFF703FF0135802D15D0680081B2CE
:10258000304601220A23FEF721FB0028ECD1384611
:10259000402142462B4607F00DFC3846FDF785FEEC
:1025A00082B220463946E2E740F26860C2F200009B
:1025B0000DA102224FF0FF33FFF7E0FE17B0BDE898
:1025C000F08300BF5363616E6E696E6720493243CA
:1025D000206275732E2E2E0D0A0000002E000000C2
:1025E00030782530325800000D0A000070B50368BD
:1025F000044653F8140F400711D40E46481C29D046
:1026000086BB00BF1868400527D4FEF7E9F92368A8
:1026100053F8140F400737D518684007F2D500204B
:1026200070BD00BF18684007F9D41868400514D47D
:1026300018684007F3D4186840050ED4186840079E
:10264000EDD41868400508D4186840074FF0000022
:1026500048BF70BD18684005E4D56FF4806018600D
:10266000042012E0154603E053F8140F4007D6D4B7
:1026700018684005F1D4FEF7B3F9401B2368B04257
:10268000F2D958694007EFD420200021202221638D
:1026900084F83D2084F83E10226C10432064012011
:1026A00084F83C1070BD00002DE9F041054600683B
:1026B0001E46144601F47F0201338FB242D0DDF88A
:1026C0001880B2F5803F40F0878040693840C01BD9
:1026D000B0FA80F04009844240F0C8804EB924E04E
:1026E00040693840C01BB0FA80F04009844240F095
:1026F000BD80FEF775F9A0EB08012868B142EFD95B
:1027000041693940C91BB1FA81F149098C42E7D1CD
:102710009BE000BF40693840C01BB0FA80F0400920
:1027200084424FF0000040F0A280FEF759F928687B
:1027300041693940C91BB1FA81F149098C42E9D19B
:1027400083E000BFB2F5803F24D100BF416939402A
:10275000C91BB1FA81F149098C4240F08780416977
:102760003940C91BB1FA81F149098C4240F07E80A1
:1027700041693940C91BB1FA81F149098C4275D1CF
:1027800041693940C91BB1FA81F149098C42DDD058
:102790006CE000BF81693940C91BB1FA81F1490978
:1027A0008C4263D181693940C91BB1FA81F1490971
:1027B0008C425BD181693940C91BB1FA81F1490969
:1027C0008C4253D181693940C91BB1FA81F1490961
:1027D0008C42DFD04AE000BF80693840C01BB0FAAD
:1027E00080F04009844241D146B923E080693840F5
:1027F000C01BB0FA80F04009844237D1FEF7F0F8F0
:10280000A0EB08012868B142F0D981693940C91BA1
:10281000B1FA81F149098C42E8D116E0806938406B
:10282000C01BB0FA80F0400984424FF0000018BF8E
:10283000BDE8F081FEF7D4F8286881693940C91BEA
:10284000B1FA81F149098C42E8D1002020212863A6
:1028500085F83D1085F83E00296C41F0200129647F
:1028600085F83C000120BDE8F08100BF0020BDE8F4
:10287000F0810000F0B581B0044600681D46436950
:102880008FB203EA0701B94202D1002001B0F0BDC6
:102890004169164601323CD0490512D47EB300BFCF
:1028A000FEF79EF8411B2068B14203D941693940C7
:1028B000B9422BD141693940B942E6D04169490555
:1028C000EED5016841F4007101606FF480614161EF
:1028D000042000212022216384F83D2084F83E104A
:1028E000226C1043206484F83C10012001B0F0BD3C
:1028F00041693940B942C8D041694905E1D4FEF780
:102900006FF8206841693940B942F1D02020E0E7F2
:1029100041694905D5D441693940B942B5D04169C9
:102920004905CED441693940B942AED04169490523
:10293000C7D441693940B942A7D041694905C0D4DB
:1029400041693940B942E3D19FE7000070B503689F
:10295000044653F8140F000611D40E46481C29D023
:1029600086BB00BF1868400527D4FEF739F82368F6
:1029700053F8140F000637D518680006F2D500206A
:1029800070BD00BF18680006F9D41868400514D45B
:1029900018680006F3D4186840050ED418680006BD
:1029A000EDD41868400508D4186800064FF0000000
:1029B00048BF70BD18684005E4D56FF480601860AA
:1029C000042012E0154603E053F8140F0006D6D495
:1029D00018684005F1D4FEF703F8401B2368B042A5
:1029E000F2D958690006EFD420200021202221636B
:1029F00084F83D2084F83E10226C104320640120AE
:102A000084F83C1070BD0000B0B582B008204C21A5
:102A1000002206F02BFA40F27434C2F2000440F2B5
:102A20006865606040F21000C2F200054FF0320CA1
:102A3000C2F20000294601220023CDF800C001F0B7
:102A4000F5FA28462146012202B0BDE8B040FFF762
:102A500051BC0000B0B582B040F2BC550446C2F291
:102A6000000500BF2846214601224FF0FF33FEF744
:102A7000ADF80028F6D143F63C0040F2BC55C0F654
:102A80000C00C2F2000501904FF0FF3C01AA28465D
:102A900021460423CDF800C0FEF7A2F9052005F079
:102AA00059FF00BF2846214601224FF0FF33FEF7B1
:102AB0008DF80028F6D140F60C0040F2BC55C2F665
:102AC0002C00C2F2000501904FF0FF3C01AA2846FD
:102AD00021460423CDF800C0FEF782F9052005F059
:102AE00039FF00BF2846214601224FF0FF33FEF791
:102AF0006DF80028F6D140F60C0040F2BC55CCF63B
:102B0000CC00C2F2000501904FF0FF3C01AA28461C
:102B100021460423CDF800C0FEF762F9052005F038
:102B200019FF00BF2846214601224FF0FF33FEF770
:102B30004DF80028F6D140F60C00C1F61C000190BB
:102B400040F2BC504FF0FF35C2F2000001AA21460E
:102B500004230095FEF744F9052005F0FBFE02B0C2
:102B6000B0BD000070B582B040F2BC560D460446C0
:102B7000C2F200063046214601224FF0FF33FEF735
:102B800025F80028F6D105F0F000290100F108022F
:102B90000C308DF8040001F108000C318DF80700AD
:102BA00040F2BC508DF805208DF806104FF0FF362E
:102BB000C2F2000001AA214604230096FEF710F994
:102BC000052005F0C7FE02B070BD00002DE9F043FE
:102BD00083B00F789FB340F2BC560C460546C2F254
:102BE00000064FF0FF380DF1080900BF30462946B6
:102BF00001224FF0FF33FDF7E9FF0028F6D127F05F
:102C00000F00390100F109020D308DF8080001F1C3
:102C100009000D318DF809208DF80A108DF80B0090
:102C2000304629464A460423CDF80080FEF7D8F8FE
:102C3000052005F08FFE14F8017F002FD6D103B0D8
:102C4000BDE8F0832DE9F04184B00025C4F202050F
:102C500004462846102100224FF00008FDF7BAFE76
:102C600040F210661A20C2F200068DF80D006427AB
:102C70000DF10D0103AA304601230097FEF712FE65
:102C80000DF10F010DF10E02304601238DF80F807A
:102C90000097FEF707FE284610210122FDF79AFE55
:102CA00042F29300208002AF0C20214602222346EC
:102CB000009700F0C1F918B104B0BDE8F08100BF81
:102CC00020786178A278E3784840504021795840D4
:102CD000401A18BF0120400004B0BDE8F081000098
:102CE00010B584B0502002ACADF80800A21C2046FC
:102CF0000221FDF757FB0DF10C0C0C20214604229C
:102D00002346CDF800C000F097F904B010BD0000D4
:102D1000F0B583B00024C4F2020420461021012241
:102D2000FDF758FE04F5806001210122FDF752FEF7
:102D30002046102100220027FDF74CFE40F21065CE
:102D40000220C2F200058DF80B0064260DF10B0184
:102D50000DF10A02284601230096FEF7A3FD0F207D
:102D60008DF80B000DF10B010DF10A02284601232D
:102D70000096FEF797FD204610210122FDF72AFE5E
:102D8000204610210022FDF725FE54208DF80B006F
:102D90000DF10B010DF10A02284601230096FEF702
:102DA00081FD8D208DF80B000DF10B010DF10A0254
:102DB000284601230096FEF775FD204610210122CA
:102DC000FDF708FE204610210022FDF703FE5620E5
:102DD0008DF80B000DF10B010DF10A0228460123BD
:102DE0000096FEF75FFD3E208DF80B000DF10B0104
:102DF0000DF10A02284601230096FEF753FD2046F6
:102E000010210122FDF7E6FD204610210022FDF7EA
:102E1000E1FD5A208DF80B000DF10B010DF10A02B6
:102E2000284601230096FEF73DFD1E208DF80B007D
:102E30000DF10B010DF10A02284601230096FEF761
:102E400031FD204610210122FDF7C4FD204610214E
:102E50000022FDF7BFFD58208DF80B000DF10B018E
:102E60000DF10A02284601230096FEF71BFD0DF125
:102E70000B010DF10A02284601238DF80B70009614
:102E8000FEF710FD204610210122FDF7A3FD20468C
:102E900010210022FDF79EFD2A208DF80B000DF178
:102EA0000B010DF10A02284601230096FEF7FAFCF9
:102EB00040208DF80B000DF10B010DF10A022846A0
:102EC00001230096FEF7EEFC204610210122FDF7BB
:102ED00081FD204610210022FDF77CFD22208DF887
:102EE0000B000DF10B010DF10A022846012300969B
:102EF000FEF7D8FC3D208DF80B000DF10B010DF114
:102F00000A02284601230096FEF7CCFC2046102139
:102F10000122FDF75FFD204610210022FDF75AFD3A
:102F2000A8208DF80B000DF10B010DF10A022846C7
:102F300001230096FEF7B6FC0DF10B010DF10A021C
:102F4000284601238DF80B700096FEF7ABFC204657
:102F500010210122FDF73EFD1420032100F07CFD2D
:102F6000204610210022FDF735FD04208DF80B00CE
:102F70000DF10B010DF10A02284601230096FEF720
:102F800091FCA0208DF80B000DF10B010DF10A0250
:102F9000284601230096FEF785FC204610210122D9
:102FA000FDF718FD04208021FDF7E6FA03B0F0BD1F
:102FB0002DE9F04184B040F20008C4F202080C464A
:102FC0000546404610210022FDF704FD40F210673F
:102FD0001A20C2F200078DF80D0064260DF10D01D4
:102FE00003AA384601230096FEF75CFC07208DF803
:102FF0000F000DF10F010DF10E023846012300966E
:10300000FEF750FC404610210122FDF7E3FC02AF21
:103010000C202146012223462570009700F00CF871
:1030200002991029014618BF0221002818BF022169
:10303000084604B0BDE8F0812DE9F04F87B017468F
:103040000C2888460293049006D00E2808D111203F
:103050000590122007E000BF31200590772002E0A4
:103060000120059000200025C4F20205039000F124
:1030700080042846102100224FF00009FDF7AAFC29
:1030800040F2106A0420C2F2000A8DF81B00642688
:103090000DF11B010DF11A02504601230096FEF7B7
:1030A00001FC0DF11B010DF11A02504601238DF8B0
:1030B0001B400096FEF7F6FB284610210122FDF783
:1030C00089FC04208021FDF757FA0A20802100F0B6
:1030D000C3FC284610210022FDF77CFC02208DF85D
:1030E0001B000DF11B010DF11A0250460123009641
:1030F000FEF7D8FB0DF11B010DF11A02504601231A
:103100008DF81B900096FEF7CDFB2846102101227A
:10311000FDF760FC6FB340F21069A8F1010AC2F23A
:1031200000090DF11B080DF11A0400BF1AF801BFC8
:103130002846102100226426FDF74CFC12208DF851
:103140001B0048464146224601230096FEF7AAFB93
:10315000642648464146224601238DF81BB000965E
:10316000FEF7A0FB284610210122FDF733FC013FAA
:10317000DCD1284610210022FDF72CFC40F210641F
:103180000220C2F200048DF81B000DF11B010DF1AD
:103190001A02204601230096FEF784FB049F0DF1DE
:1031A0001B010DF11A02204601238DF81B700096B9
:1031B000FEF778FB284610210122FDF70BFC0C2FAF
:1031C00003D10D20802100F047FC4FF6300740F27C
:1031D000106BCFF6FF774FF088084FF0640AC2F209
:1031E000000B0DF11B060DF11A0400BF284610213B
:1031F0000022FDF7EFFB58463146224601238DF8A9
:103200001B80CDF800A0FEF74DFB00208DF81B00C1
:103210005846314622460123CDF800A0FEF742FB76
:103220009DF81A90284610210122FDF7D3FB0137A3
:1032300080F0D080059810EA090FD7D00D208021AA
:10324000FDF79AF92846102100220027FDF7C2FB5E
:1032500040F210648C20C2F200048DF81B0064263A
:103260000DF11B010DF11A02204601230096FEF715
:1032700019FB0DF11B010DF11A02204601238DF8F7
:103280001B700096FEF70EFB9DF81A402846102191
:103290000122FDF79FFB14F01B0F40F09F80039865
:1032A000049900EA09000C2900F0010040F0978021
:1032B000059028461021002210270026FDF78AFBE2
:1032C00040F210699420C2F200090DF11A0B8DF83A
:1032D0001B0064240DF11B0148465A46012300944B
:1032E0004FF0010AFEF7DEFA0DF11B010DF11A0293
:1032F000484601238DF81B600094FEF7D3FA9DF831
:103300001A80284610210122FDF764FB284610216F
:103310000022FDF75FFB98208DF81B000DF11B01CB
:103320000DF11A02484601230094FEF7BBFA0DF195
:103330001B010DF11A02484601238DF81B60009411
:10334000FEF7B0FA9DF81A60284610210122FDF719
:1033500041FB16F0070040EAC8001099A0F10800F0
:1033600008BF4FEAC8000860B8F1010F98BFD04607
:10337000B8F1100F28BFB84602984FF0920A461EC7
:10338000284610210022FDF725FB0DF11B074846BA
:1033900039465A4601238DF81BA00094FEF782FAA5
:1033A00000208DF81B00484639465A4601230094F8
:1033B000FEF778FA9DF81A70284610210122FDF7D1
:1033C00009FBB8F1010806F8017FD9D1059807B0CB
:1033D000BDE8F08F0D208021FDF7CEF8022007B068
:1033E000BDE8F08F80B543F611304AF2D822C0F61E
:1033F0000000C0F60002002102F07EFD40F2B8514C
:10340000C2F20001086080BD2DE9F04F87B00026B0
:1034100043F630000696CDE90466CDE902660196D2
:10342000C4F20200016840F6004441F0100101605E
:103430000168C4F2020401F01001019101990196A2
:10344000016804F5006741F0200101600168002275
:1034500001F0200101910199019601684FF03C0BA8
:1034600041F080010160016801F080010191019942
:103470000196016841F004010160016801F0040156
:10348000019101990196016841F001010160016813
:1034900001F00101019101990196016841F00201D9
:1034A0000160016801F00201019101990196016832
:1034B00041F00801016000683C2100F00800019023
:1034C00001983846FDF786FAA4F540684046102179
:1034D00001224FF00109FDF77DFA20464FF4F0413B
:1034E0000022FDF777FA782002AD02904FF4881A97
:1034F00004F580602946CDE903A6FDF795F9384625
:103500002946CDE902B9CDE90466FDF78DF94FF4FE
:10351000F06002A981E8410238462946FDF784F9A6
:103520000227A4F580602946CDE9029A0497FDF7A9
:103530007BF91020CDE9020940462946CDE9046611
:10354000FDF772F94FF40410CDE90309A4F500600A
:1035500029460297FDF768F94FF46050CDE902095A
:1035600020462946CDE90466FDF75EF94FF4804018
:1035700002901120CDE90306204629460596FDF765
:1035800053F9042002904FF44410CDE9030920467A
:103590002946FDF749F9062005210022FDF7CCFD5B
:1035A0000620FDF7B7FD072005210022FDF7C4FD29
:1035B0000720FDF7AFFD082005210022FDF7BCFD27
:1035C0000820FDF7A7FD092005210022FDF7B4FD25
:1035D0000920FDF79FFD0A2005210022FDF7ACFD23
:1035E0000A20FDF797FD172005210022FDF7A4FD15
:1035F0001720FDF78FFD07B0BDE8F08F80B540F2D2
:10360000BC5045F20041C2F20000C4F2000148F291
:10361000A06200234FF4804CC0F2010280E80E004B
:10362000C0E9033CC0E90533C0E90733FDF71CFAE4
:10363000002818BFFDF71CF840F2BC50C2F2000091
:103640000021FDF7D3F9002818BFFDF711F840F26B
:10365000BC50C2F200000021FDF7E6F9002808BFC7
:1036600080BDBDE88040FDF703B8000080B540F2A2
:10367000106043F20001C2F20000C4F201014FF4F5
:10368000827200234FF4007C80E80E000A21C0E91A
:103690000333C0E9053CC361C0E90833C0E90A311E
:1036A000FEF76EF8002808BF80BDBDE88040FCF73B
:1036B000DFBF000080B540F2686044F20041C2F212
:1036C0000000C4F2000100234FF00C0C4FF4E13273
:1036D00080E80E00C0E90333C0E905C3C361FEF70B
:1036E00065FD002808BF80BDBDE88040FCF7C0BF75
:1036F00080B540F2B06044F60001C2F20000C4F2AE
:10370000000100234FF00C0C4FF4E13280E80E0072
:10371000C0E90333C0E905C3C361FEF747FD0028D4
:1037200008BF80BDBDE88040FCF7A2BFFEE70000F7
:10373000FEE70000000000000000000000000000A4
:10374000EFF30980BFF36F8F154B1A681EF0100F4F
:1037500008BF20ED108A20E9F04F10602DE9090024
:103760004FF0500080F31188BFF34F8FBFF36F8F7E
:1037700005F03AFA4FF0000080F31188BDE8090027
:1037800019680868B0E8F04F1EF0100F08BFB0ECE1
:10379000108A80F30988BFF36F8F704700BF00BFA6
:1037A000980200202DE9F04381B0089C9846154608
:1037B0000E468146FDF714F9201A00EB0804FDF7C8
:1037C0000FF940F20C01C2F200010968C1F3CB31DC
:1037D00061430091D9F800108A683240921BB2FA16
:1037E00082F25209954203D1002001B0BDE8F08376
:1037F000074618F101000ED130E000BF00980138F3
:103800000090D9F8000080683040801BB0FA80F04A
:1038100040098542E8D0FDF7E3F8C01BA04227D25B
:1038200000980028EAD10024EBE700BF8868304008
:10383000801BB0FA80F040098542D5D088683040BE
:10384000801BB0FA80F040098542CDD088683040B6
:10385000801BB0FA80F040098542C5D088683040AE
:10386000801BB0FA80F040098542DFD1BCE700BF81
:10387000D9E900014268B1F5827F22F0E00242609E
:103880000BD1D9F80810B1F5004F02D0B1F5806F17
:1038900003D1016821F040010160D9F82810B1F589
:1038A000005F07D1016821F400510160016841F413
:1038B00000510160012089F85100002089F8500072
:1038C000032001B0BDE8F08300000000000000000C
:1038D000074B19680868B0E8F04F80F30988BFF318
:1038E0006F8F4FF0000080F31188704700BF00BF5A
:1038F0009802002010B594B001AC20464C21FCF792
:10390000BDFC40F274300221C2F20000C0F204019A
:103910004068029121460022002305F057FB14B0B5
:1039200010BD0000B0B594B001AD044628464C214E
:10393000FCF7A4FC0220C0F20100029005F108008F
:1039400021461022FCF7A5FC40F27430C2F20000C0
:10395000406829460022002305F038FB14B0B0BDB2
:1039600070B594B001AE0C46054630464C21FCF7CC
:1039700085FC0220C0F203000290042C28BF04241E
:1039800006F10A0029462246ADF80C40FCF75DFC22
:1039900040F27430C2F20000406831460022002339
:1039A00005F014FB14B070BD70B594B001AE0C46B8
:1039B000054630464C21FCF761FC4FF002100290A6
:1039C000042C28BF042406F10A0029462246ADF83B
:1039D0000C40FCF73AFC40F27430C2F20000406840
:1039E00031460022002305F0F1FA14B070BD00004A
:1039F000B0B594B00C46054601A84C21FCF73EFC3E
:103A00000220ADF808001DB1012D0ED1062100E005
:103A1000052140F27430C2F200004068ADF80A108F
:103A200001A92246002305F031FC14B0B0BD00000E
:103A300040F2AC31C2F20001B1F80021B1F802311C
:103A40000132D2B29A4208BF7047B1F80031C8546F
:103A5000A1F80021704700002DE9F04784B040F242
:103A60000008C4F202088A46064640461021002299
:103A70004FF00009FCF7AEFF802040F2106540EAED
:103A80004600C2F200058DF8090064240DF1090119
:103A900002AA284601230094FDF704FF0DF10B0153
:103AA0000DF10A02284601238DF80B900094FDF7D2
:103AB000F9FE9DF80A70404610210122FCF78AFFAA
:103AC00040461021002247EA0A07FCF783FF7E20C8
:103AD00000EA46008DF80D000DF10D0103AA2846FD
:103AE00001230094FDF7DEFE0DF10F010DF10E0232
:103AF000284601238DF80F700094FDF7D3FE404651
:103B000010210122FCF766FF04B0BDE8F087000039
:103B1000012002F0AFF9FBE7C4B004AF40F210059A
:103B200007F111000DF1C40BC2F200054AF23C4846
:103B300002900BF1090005F1FE0A11AC0DAEC0F6C2
:103B40000008019015E000BF5221002818BF59213C
:103B500040F25C20C2F2000000688DF81010394677
:103B60004FF0FF32002305F031FA00BF052004F0CA
:103B7000F1FE284600F08CFA0028F7D095F8249240
:103B8000B9F1000FF2D0B9F1FE0F28BF4FF0FE09D6
:103B9000204651464A46FCF758FB304621464A46E5
:103BA00003F096F958464C21FCF768FB3046414635
:103BB0005A4602F083FA0028D8D0BDF8C80003287E
:103BC000D4D1BDF8CA00032814D0022808D0012897
:103BD000CCD140F25820C2F2000000680121BCE7BD
:103BE0009DF8CC109DF8CD000129ADD000284FD014
:103BF0004721ADE79DF8CC00B946012812D147F224
:103C00006650C0F26C00CDF8170047F26530C6F27E
:103C10007360059047F27350C6F2633004904727F3
:103C20000CE000BF46F26C50C0F26400CDF8130007
:103C300046F26610C6F6694052270490DDE901108D
:103C4000FCF73AFB40F24C20C2F200000068002171
:103C50008DF80E100DF10E014FF0FF3200238DF89C
:103C60000F7005F0B3F940F25420C2F20000006872
:103C700049464FF0FF3200234F4605F0A7F940F2C6
:103C80005C20C2F2000000680DF10F0168E700BF80
:103C90009DF8CE0001287FF469AF422158E700006B
:103CA000BAB040F274364AF23C4A40F21008C2F20E
:103CB000000607AC02AD0DF1680BC0F6000AC2F2B7
:103CC00000080DF1060906E0404649460022ADF81D
:103CD000067000F0BBF9706821464FF0FF3205F026
:103CE00093FC0128F7D1B06859460130B0600790C5
:103CF0002846802203F0C2F928465146224602F0A7
:103D00009BFD0028E7D0BDF81400FE28074628BF19
:103D1000FE270028D8D0404659463A46FCF795FA87
:103D2000D2E7000080B5FDF785F905F047FE0128D0
:103D300008BF80BDBDE8804005F080B84EF68850D1
:103D4000CEF20000016841F470010160704700008C
:103D5000806B0021C185FDF75DBF000081B090F848
:103D60004210222921D183680246B3F5805F09D130
:103D700052F8281F52F8183C002B63D003685B6888
:103D80000AE000BF52F8281F13B90369002BF5D0D1
:103D900003685B6803F07F030B70116801311160E9
:103DA000C18D01390A04C18502D001B0704700BF3E
:103DB0000168CA6822F02002CA60CA6822F48072D0
:103DC000CA604A6922F001024A61202180F842104B
:103DD00000214163026B012A3CD10163016851E873
:103DE000031F026821F0100142E80313DBB10168F0
:103DF00051E8031F026821F0100142E8031393B158
:103E0000016851E8031F026821F0100142E8031322
:103E10004BB1016851E8031F026821F0100142E82C
:103E20000313002BDAD101680A68D20606D50022F6
:103E300000920A680092496800910099818D01B052
:103E4000FDF7E6BE026852686FF35F2221F8022B8D
:103E50008162A5E701B0FEF777BA0000B0B504466D
:103E6000006804F108030ECB0569194325F4405599
:103E70002A4302616269E3691143C268194349F246
:103E80000C639A431143C1604169A26921F44071F6
:103E900041F20043114340F48062C4F201039A42AC
:103EA000416103D1FDF74AFA02E000BFFDF732FAA3
:103EB000E1694FF69C7563681922C0F6FF75B1F58C
:103EC000004FA0FB02011FD15A00DB0FFCF78CF959
:103ED00048F21F51C5F2EB11A0FB01235A0905F16D
:103EE000805302FB0300322303EBC000A0FB01015F
:103EF0004FF4F87000EA111000EB0210C1F3421108
:103F0000084421688860B0BD9A009B0FFCF76CF9EB
:103F100048F21F51C5F2EB11A0FB01235A0902FB25
:103F20000500322303EB0010A0FB0101F02000EAA2
:103F3000511000EB0210C1F343110844216888605E
:103F4000B0BD000040F26860C2F20000FDF764BE40
:103F5000FEE7000070B540F2B04CC2F2000C082041
:103F60009B218CF804004FF48070002202238CF80F
:103F70000010ACF8020000BF10069C1E01EAE07EB3
:103F80008EEA040081EA4004050658BF440081EA35
:103F90004400250658BF600081EA4004050658BF6A
:103FA000440081EA4400250658BF600081EA4004CD
:103FB000050658BF440081EA4400250658BF60004A
:103FC00081EA4004050658BF44000CEB02068EEA65
:103FD0000305747181EA4504280658BF6C0081EA24
:103FE0004400250658BF600081EA4005040658BF1A
:103FF000450081EA45002C0658BF680081EA40056B
:10400000040658BF450081EA45002C0658BF6800E9
:1040100081EA4005040602F1020258BF4500B2F5EC
:10402000807F03F10403B571A6D170BD80B582B065
:104030009C46049B8DF80720C0E98A130DF1070107
:1040400004AB624600F08EFA02B080BDB0B582B01B
:104050008DF807200DF10702044600F08DF80546A3
:10406000D4E98A0304F5FE710422FEF787F9D4E946
:104070008A0321462A46FEF781F9D4E98A0304F52A
:1040800000710222FEF77AF9284602B0B0BD0000A6
:10409000F0B581B00446002040F2AC3784F8240229
:1040A000C2F20007B7F80011B7F80221914201D11E
:1040B00001B0F0BD01208DF80300B7F80001B7F89A
:1040C0000211884202D1002001B0F0BD0DF10205BD
:1040D0000DF10306B7F80001B7F80211884201D1CB
:1040E000002008E0B7F80201385CB7F8021101318E
:1040F000C9B2A7F802118DF80200204629463246BF
:1041000000F03AFA94F9031284F82402CAB2032A9E
:1041100084F825120AD1002084F82402B7F800118F
:10412000B7F802219142D5D1C2E700BF0029BFDC18
:10413000204600F0EFFB94F8031294F8240284F870
:10414000251201B0F0BD0000B0B590F81422012A8C
:1041500018BFB0BDD0F8104264B108460D46FCF758
:10416000A4F882B2204629466423BDE8B040FEF799
:1041700005B900BFB0BD00002DE9F04FB1F800E077
:10418000FF23BEF1FF0F80F818320DD3002100BFCE
:10419000435C7E2B3BD043185B787E2B36D00231BC
:1041A000FE29F5D1FF2134E0BEF1000F28D0F04602
:1041B000CEF100034FF0030C00EB0C0414F8035C89
:1041C0007E2D00F0818003EB0C05022D14D014F835
:1041D000026C7E2E7CD0012D0ED014F8014C7E2C6A
:1041E0007AD04DB110F80C407E2C77D00CF1040C35
:1041F00003EB0C04032CDFD14FF0FF0C70E000BF89
:104200004FF0FF0C4FF000086AE000BF013180F86A
:104210001812FE26841914F8013C7E2B00F0508100
:1042200014F8023C7E2B00F04D8114F8033C7E2BE9
:1042300000F04A8114F8043C7E2B00F0478114F80A
:10424000053C7E2B00F0448114F8063C7E2B00F0E8
:10425000418114F8073C7E2B00F03E8114F8083CA5
:104260007E2B00F03B8114F8093C7E2B00F0388156
:1042700014F80A3C7E2B00F0358114F80B3C7E2BA1
:1042800000F0328114F80C3C7E2B00F02F8114F8E2
:104290000D3C7E2B00F02C8114F80E3C7E2B00F0A0
:1042A000298114F80F3C7E2B00F0268114F8103C75
:1042B0007E2B00F02381102E00F0348114F8113C85
:1042C000113E7E2BA6D11AE1ACF1030C06E000BF33
:1042D000ACF1020C02E000BFACF1010C80F818C296
:1042E000861E4FF0000A6FF002096FF0010318EB11
:1042F0000A0700F0828006EB08056C787E2CA7F197
:1043000001041FD0002C78D016F808407E2C08EB52
:10431000030417D0002C70D015F8014C7E2C0FD060
:10432000FC1E6AD015F8024CAAF1040AA9F104098E
:10433000043B7E2CA6F10406D9D108EB0A0401E067
:1043400008EB09044FF0FF3718F0030357FA88FE13
:1043500024D0A8F10105EEB2875D7E2F02BF641B59
:1043600084552C46012B01D1A84617E0013DEEB241
:10437000875D7E2F02BF641B84552C46022BA8F15B
:10438000020301D1984609E0013BDDB2465DA8F188
:1043900003087E2E02BFE41A44551C46BEF1030FEB
:1043A00029D300BFA8F10103DFB2C65D7E2E02BF94
:1043B000E61AC6551C46A8F10203DFB2C65D7E2E82
:1043C00002BFE61AC6551C46A8F10303DFB2C65D5C
:1043D000A8F104087E2E02BFE61AC6551C465FFAF5
:1043E00088F3C75C7E2F02BFA4EB0807C75444467E
:1043F0005FEA0863D6D191F800E05FEA0E6311D05E
:104400004FF0FF3353FA8EF340F2B0480EF0030939
:10441000032BC2F2000807D200270023B9F1000FD6
:104420002AD13EE000233CE05FFA8EF303F0FC0368
:10443000C3F1000E00F1010A00236FF0030508F13B
:10444000050400BF0AEB0507FE78DBB2734097F85E
:1044500004B0E35C7E7983EA0B03E35CBF797340CD
:10446000E35C04357B40E35C0EEB05060436E9D1E2
:104470002F1DB9F1000F14D0C65DB9F1010F83EA09
:10448000060343445B790CD007447E78B9F1020FF0
:1044900083EA060343445B7903D0BF787B404344FF
:1044A0005B79127880F8FEC180F8FD210A7880F8E7
:1044B000003280F8FF210978C8B2BDE8F08F00BF54
:1044C000013E1CE0023E1AE0033E18E0043E16E006
:1044D000053E14E0063E12E0073E10E0083E0EE006
:1044E000093E0CE00A3E0AE00B3E08E00C3E06E006
:1044F0000D3E04E00E3E02E00F3E00E0103EFE23C3
:104500005F1EFDB2445D023B7E2C02BFF61B46558A
:104510003E46DFB2C55D7E2D02BFF61AC6551E4669
:104520001F06EDD140F2B046C2F2000600236FF044
:1045300001070536C519AC78DBB26340ED78F35C52
:1045400002376B40F35CFC2FF4D1127880F8FE1137
:10455000FE2180F8FD2180F8FF1180F80032C8B2FA
:10456000BDE8F08FC0F8102209781A6880F814129C
:10457000C0F82022704700002DE9F04190B00446B9
:10458000D0F81C0216460D4630B1FCF729FAD4E9E2
:104590008712401A904221D23078012816D194F81F
:1045A0000422062A60D8DFE802F00589454B318FE6
:1045B0009F0000BF28787E2840F02A81012084F8DF
:1045C0000402FCF70DFAC4F81C0221E14FF48070DC
:1045D000A4F80202002010B0BDE8F08194F81402A3
:1045E000012807D1D4F8100220B1A6A11522642316
:1045F000FDF7C4FE4FF47D40A4F80202002084F8C9
:104600000402C4F81C0210B0BDE8F08194F8150251
:1046100094F81612814280F0FB802A7863180131E9
:10462000814283F8FE2084F8161240F0F1800520C4
:10463000ECE000BF287884F819020320E6E000BF10
:10464000287810B1FF2840F0A18094F814124FF49C
:104650007F40A4F802020020012984F8040240F0FF
:10466000ED80A6A1E6E000BF94F81402012817D15E
:104670004AF29261C0F60001684605F0B5FB94F875
:10468000140201280CD1D4F810524DB16E463046B8
:10469000FBF70BFE82B2284631466423FDF76EFE1F
:1046A000002520464FF4FE7184F80252C4F81C52D3
:1046B000FBF7E4FD84F80452AAE000BF287884F8F0
:1046C00017020220A2E000BF94F8150200285BD078
:1046D00040F2B04C00F0030E0428C2F2000C5DD290
:1046E0000022002374E000BF002084F80402287830
:1046F00081283FD194F81932FF2B24D004F1FE0019
:10470000C65CC118EEB17E2233440A70D9B2465C51
:1047100050FA83F1AEB13344DFB2C65D0A7050FA8D
:1047200083F176B13344DFB2C65D0A7050FA83F18B
:104730003EB13344DFB2C65D0A70002E50FA83F1F9
:10474000E2D17E20087094F81502022184F802025A
:10475000D4F8080284F80312002800F08A8094F844
:104760000C1294F817228A4276D250F82200804721
:104770007FE000BF94F814024FF47E410128A4F8B2
:1047800002125AD145A155E000223BE084F81502FF
:10479000002084F81602042038E000BF00F0FC0876
:1047A00000230CF105000022E11891F8FE7091F849
:1047B000FF607A40825C91F800717240825C91F8EF
:1047C00001117A40825C04335140425C9845EBD140
:1047D000BEF1000F16D004F1FE00C15CBEF1010F66
:1047E00081EA020161444A790CD018444178BEF153
:1047F000020F81EA020161444A7903D08078504077
:1048000060444279287882420AD1062084F8040262
:104810004FF44070A4F80202002010B0BDE8F0810F
:1048200094F8141200200129A4F8020284F804026A
:1048300004D12DA12046FFF787FC002084F8020256
:10484000C4F81C0220464FF4FE71FBF717FD002050
:1048500010B0BDE8F08100BF94F81402012808D11F
:104860006D4615A1284605F0BFFA20462946FFF7F8
:104870006BFC002194F81502C4F81C1210B0BDE8BE
:10488000F08100BF4552524F523A205354414C459B
:10489000205041434B45540D0A0000004552524FF1
:1048A000523A2053544F505F425954455F4552523B
:1048B0004F520D0A000000004552524F523A204E0E
:1048C0006F2063616C6C6261636B20617661696CFF
:1048D00061626C6520666F72207061636B65742025
:1048E00049442025640D0A004552524F523A204354
:1048F00052435F4552524F520D0A00004552524FEB
:10490000523A205041594C4F41445F4552524F5208
:104910000D0A000080B5002180F80212C0F81C12B8
:104920004FF4FE71FBF7AAFC80BD0000436803EB67
:10493000020CC0F804C031B180B508461946FBF737
:1049400084FCBDE8804001207047000080B5D0F8AD
:1049500004C00CEB020343606046FBF776FC0120C9
:1049600080BD00002DE9F04F85B09246927D8146D2
:1049700002F00F020B2A00F25381DFE812F0C700A9
:104980000D000D000D00F30013018B0023016D00DD
:104990006D005101DB0000BF481EFD2840F2308150
:1049A000032A00F04581022A40F09081D9F80800DE
:1049B0004AF2EE5B0025C0F6000BE8460027002611
:1049C000002800F0D981D9F800304846414601223C
:1049D0009847002800F0C681D9F808009DF800101B
:1049E00001383F2DC9F8080028BF012900F2C08115
:1049F00001F07F02C5F1200422FA04F4B5F120038E
:104A000058BF02FA03F402FA05F249B258BF002275
:104A100026431743B1F1FF3F05F10705D0DDBAF892
:104A200012000138072800F24782DFE810F0090081
:104A3000750245026D02450245024502890200BF2A
:104A4000DAF81C0007700020CFF6FF7000F57F41F8
:104A50004FF0FF3068E200BF022940F0D18004A986
:104A60004846002201F0A6FC002800F0D480D9F8C6
:104A70000C2099E80B00CDE90232049A019193428F
:104A8000009080F0A181D9F80C004AF21C61C0F6B8
:104A90000001BBE0022940F0B3806946484600228D
:104AA00001F088FC01460020002900F0B580009E3E
:104AB000B6F5803F4ED29AF8160000F0C00080286C
:104AC00000F09780BAF81200B11C814242D8DAF89F
:104AD0001C10002E21F8026B00F03682D9F8080075
:104AE000B04268D3D9F8003048463246984700288B
:104AF00000F06281D9F80800801B38BF0020C9F897
:104B00000800012005B0BDE8F08F00BF481EFD2859
:104B100076D9DAF81C5069464846002201F04AFC72
:104B2000002879D00099002918BF0121297005B00B
:104B3000BDE8F08F022963D169464846002201F0A2
:104B400039FC01460020002966D0009AB2F5803F6A
:104B5000C0F08681D9F80C004AF24661C0F6000127
:104B600054E000BF052901D0FF2949D1D9F8080038
:104B7000032820D9D9F80030DAF81C506946484695
:104B800004229847002800F01781D9F8080004385B
:104B900038BF00200099C9F808002960012005B03D
:104BA000BDE8F08F012901D0FF2929D1D9F80800EB
:104BB000072800F2E980D9F80C004AF2EE51C0F65D
:104BC000000123E002291BD1DAF81C60694648463F
:104BD000002201F0EFFB01460020E9B1009A501CD1
:104BE00000F054819AF8160000F0C000802840F0D0
:104BF0005581D9F80C004AF23461C0F6000105E095
:104C0000D9F80C004AF2BA51C0F60001002818BFCA
:104C10000146C9F80C10002005B0BDE8F08F00BFB8
:104C2000D9F80C004AF2A751C0F60001EEE700BF28
:104C3000D9F808004AF2EE5B0025C0F6000B6E467C
:104C400000274FF0000800BF002800F09580D9F839
:104C500000304846314601229847002800F0828003
:104C6000D9F808009DF8001001383F2DC9F8080058
:104C700028BF012900F27C8001F07F02C5F12004E9
:104C800022FA04F4B5F1200358BF02FA03F402FA41
:104C900005F249B258BF002248EA04081743002928
:104CA00005F10705D0D45FEA580007F001024FEA8A
:104CB000370152424FF0000363F1000380EA03071B
:104CC000BAF8120081EA02063CE000BFD9F80800F9
:104CD0004AF2EE5B0025C0F6000BE84600260027EE
:104CE000002849D0D9F8003048464146012298476B
:104CF000002837D0D9F808009DF8001001383F2D62
:104D0000C9F8080028BF012932D801F07F02C5F197
:104D1000200422FA04F4B5F1200358BF02FA03F488
:104D200002FA05F249B258BF002227431643B1F1F7
:104D3000FF3F05F10705D3DDBAF81200082800F09F
:104D40009D80F7170138072800F2B680DFE800F0F1
:104D500004D4B4CEB4B4B496DAF81C0071B20670C0
:104D6000CEE000BF4AF2FC5BC0F6000B04E000BFDF
:104D70004AF2556BC0F6000BD9F80C00002818BF9A
:104D80008346C9F80CB046E7D9F80030DAF81C5071
:104D9000694648460822984770B1D9F80800083893
:104DA00038BF0020DDE90012C9F80800C5E900128B
:104DB000012005B0BDE8F08FD9F80C004AF2FC5193
:104DC000C0F6000122E700BFD9F808000292801A5D
:104DD000C9F80800DAF8240000285BD09AF8160019
:104DE00000F00F0009280FD1DAF8200060B150F868
:104DF000083C4BB1021F684651469847029A064646
:104E0000B2FA82F0400901E000200126A8B9A6B15B
:104E10009AF816000023402800F0300038BF012324
:104E2000203818BF0120DAF82410DAF81C200340DB
:104E3000684601F047F9029A06462AB16846002101
:104E4000002502F027F930B1019803990125C9F82E
:104E50000400C9F80C1006EA050005B0BDE8F08FA3
:104E600092B3BAF81200824238D1DAF81C104846E0
:104E700002F010F905B0BDE8F08F00BFDAF81C00B1
:104E8000C0E90067012005B0BDE8F08FD9F80C003B
:104E900043A1BBE6D9F80C0036A1B7E6BAF8120078
:104EA00082421FD20020B0544846314602F0F2F848
:104EB00005B0BDE8F08F00BFD9F80C004AF2DC5114
:104EC000C0F60001A2E600BFDAF81C00BAF8121022
:104ED000FBF7D4F9012005B0BDE8F08FD9F80C003C
:104EE0001BA193E6D9F80C0029A18FE6DAF81C0083
:104EF00031460660F01704E0DAF81C0031B2068093
:104F0000C8177140784011E0DAF81C0000210760F2
:104F10004FF0FF3008E000BFDAF81C2000214FF00E
:104F2000FF30CFF6FF7117803940304008430BD077
:104F3000D9F80C004AF29551C0F6000166E600BFB0
:104F4000DAF81C00C0E90076012005B0BDE8F08F5A
:104F5000696E636F72726563742066697865642038
:104F60006C656E6774682062797465732073697A02
:104F700065000000696E76616C6964206669656C25
:104F8000642064657363726970746F72000000005E
:104F9000737472696E67206F766572666C6F7700E6
:104FA00073697A6520746F6F206C617267650000A9
:104FB000F0B587B014461268D268FAB1022923D13D
:104FC00069460022064601F0F5F998B1009FF368A2
:104FD00096E826003046BD42CDE905530492039180
:104FE00044D2C1684AF21C62C0F60002002918BF10
:104FF0000A46C260002007B0F0BD00BF07B0BDE8A0
:10500000F04002F095B800BF052951D001291BD00E
:10501000002957D1816800294DD003686D46294683
:10502000012206469847002800F05481B1689DF996
:1050300000304A1E38BF0022B3F1FF3FB26040F398
:105040008580012064E000BF8168072933D90368A7
:10505000694608220546984700286BD0A86808389A
:1050600038BF0020A860082052E000BF816803AD6F
:10507000C91B0597816000BF20680021C3682846CE
:105080002246984750B3059A12B1BA421746F3D355
:105090003AB103A8002101F0FDFF014600200029DC
:1050A00045D0049806997060F160012007B0F0BD0A
:1050B0008168032920D8C1684AF2EE52C0F6000286
:1050C00005E000BFC1684AF2CA52C0F600020029DA
:1050D00018BF0A46C260002007B0F0BD0699F0680C
:1050E00085A2002918BF0A46002818BF0246F260B0
:1050F000002007B0F0BD00BF0368694604220546E2
:105100009847B8B1A868043838BF0020A8600420C8
:1051100044F62D11C0F60001039169460491002167
:1051200022680691D368059003A82246984707B0E5
:10513000F0BD00BFE8684AF2FC51C0F6000100284B
:1051400018BF0146E960002007B0F0BD30460229D3
:10515000B1D30368691C01229847002800F0BA8087
:10516000B1689DF901304A1E38BF0022B3F1FF3FFC
:10517000B26001DD0220CBE7304602299BD30368F1
:10518000A91C01229847002800F0A480B1689DF96D
:1051900002304A1E38BF0022B3F1FF3FB26001DD8A
:1051A0000320B5E730460229FFF485AF0368E91C08
:1051B00001229847002800F08D80B0689DF90330E7
:1051C000421E38BF0022B3F1FF3FB2609FDC0228CD
:1051D0003046FFF470AF0368291D0122984700286C
:1051E00078D0B0689DF90430421E38BF0022B3F178
:1051F000FF3FB26002DD05208AE700BF022830468B
:10520000FFF459AF0368691D01229847002861D057
:10521000B0689DF90530421E38BF0022B3F1FF3F50
:10522000B26001DD062073E702283046FFF443AF89
:105230000368A91D0122984700284BD0B0689DF94A
:105240000630421E38BF0022B3F1FF3FB26001DDDD
:1052500007205DE702283046FFF42DAF0368E91D03
:1052600001229847B0B3B0689DF90730421E38BF9D
:105270000022B3F1FF3FB2603FF7F5AE022830469F
:10528000FFF419AF036805F108010122984708B33C
:10529000B0689DF90830421E38BF0022B3F1FF3FCD
:1052A000B26001DD092033E702283046FFF403AF86
:1052B000036805F109010122984758B1B1689DF9C9
:1052C0000920013938BF0021B2F1FF3FB1600DDD87
:1052D0000A201DE7F0684AF2FC51C0F600010028E0
:1052E00018BF0146F160002007B0F0BDF0684AF237
:1052F0005561C0F60001F2E763616C6C6261636B3B
:10530000206661696C6564002DE9F0418CB0937D85
:10531000C3F30117DFE807F007020C38136A002B0C
:105320001CBF01271F700CB0BDE8F041FFF71ABB8E
:1053300002295DD103F00E03052B59D8156A916936
:10534000538A2F88164607FB03110746D1610BA924
:10535000002201F02FF898B1F86897E81C00CDE919
:1053600003400B9839468442029301925AD2C8688E
:105370004AF21C62C0F60002002818BF0246CA604A
:1053800000200CB0BDE8F08103F00E03082B26D1FD
:10539000136A178A1B88BB4221D0D369548A0546F9
:1053A00018460E4621461446FAF768FF636A2246FD
:1053B0009F6837B9DF6827B95F6831463F6828467C
:1053C0006FB1D26901A8194601F05AFC20B101A8B9
:1053D00001F08AFD00284DD0284622463146138A26
:1053E000176A3B80FFF7BEFA0CB0BDE8F08100BF42
:1053F000176A9369568A3D8805FB0633D3616B1C97
:105400003B80938A9D42FFF48EAFC1684AF2656289
:10541000C0F60002002918BF0A46C26000200CB086
:10542000BDE8F0818A68A2EB000203908A60C0B1F7
:1054300028880DF104083246938A80B298422AD215
:105440004046FF21FFF78EFA039908B328883246B9
:1054500001302880F369748A002923443946F361B6
:10546000EAD10120029A049B4A60CB600CB0BDE8EF
:10547000F08100BFE8684AF20561C0F6000100282B
:1054800018BF0146E96000200CB0BDE8F08100BF04
:10549000002939460CD0C8684AF26562C0F600029D
:1054A000002818BF0246CA6000200CB0BDE8F08199
:1054B0000020D7E72DE9F04182B0CA69002A00F048
:1054C0003E818A7D02F00F020C2A29D240F6FF337A
:1054D000D340DB0724D04AF2B223C0F600039A5C23
:1054E0000D46098A002342EAC102044601F0CCFAC3
:1054F00001460020F1B1A87D00F00F020B2A00F256
:1055000085802946DFE802F0760606061A1A463A32
:105510002020825A204602B0BDE8F04101F02EB9A9
:1055200001694AF2A752C0F60002002918BF0A46D4
:105530000261002002B0BDE8F08100BF204602B049
:10554000BDE8F04101F0D0B84B6A2046002B67D08F
:10555000092A0BD10A6A4AB152F8086C36B1043AEA
:10556000B0470028E5D06B6A29462046CA6919462B
:1055700002B0BDE8F04101F0A3B900BFCD6900F071
:10558000C0008028A6464FD1002D00F0BD804FF00E
:10559000FF3853E0CE692246002E00F09B8035880C
:1055A0003F2871D8488A0238A8426DD21069ACA150
:1055B000002818BF01461161BBE700BF4D8ACE69C4
:1055C00020462A46002301F05FFA01460020002908
:1055D000B0D0002D214675D00B68002B72D0C86862
:1055E000401980F0F4808A68904200F2F0802046F2
:1055F000314661E0C869002302782046002A18BFBE
:10560000012202B0BDE8F04101F03EBA20694AF241
:10561000A751C0F60001002818BF0146216188E7A4
:1056200001697EA281E700BF488A002800F08C80D3
:10563000002D69D0B0F1010800F0A080A8F10303AB
:1056400005EB080CC8F100010026AA5D002A00F055
:10565000AA808F197A1C00F09480AA19507800282B
:1056600000F09C80B81C00F08C809078002800F03E
:105670009780B34200F08580D078002800F09280B7
:1056800004368819E1D17CE010462A46002301F057
:10569000FBF90146002000293FF44CAF21468DB1B3
:1056A0000B687BB1C868401980F091808A6890428D
:1056B00000F28D80B11C20462A46984721460028DA
:1056C00000F0A680C8682844C860012002B0BDE888
:1056D000F08100BF136800208DF806006BB1D06820
:1056E000411C35D09168884232D20DF10601204626
:1056F000012298472246002874D0D0680130D0603B
:10570000012002B0BDE8F081DEF8003000208DF805
:1057100007007BB1DEF80C00411C23D0DEF8081036
:1057200088421FD20DF10701204601229847A64664
:1057300000285DD0DEF80C000130CEF80C0001200E
:1057400002B0BDE8F08100BFDEF810003AA11FE012
:105750004AF27460C0F600001169002918BF0846BB
:105760001061E6E64AF27460C0F60000DEF8101040
:10577000002918BF0846CEF81000DAE64FF00008FE
:10578000AC469CF80000464668B1DEF810002FA138
:10579000002818BF0146CEF81010CAE6013602E014
:1057A000023600E0033670463246002301F06CF901
:1057B0000146002000293FF4BDAE214626B30B6808
:1057C00013B3C868801902D28A68904216D9086952
:1057D0004AF27462C0F60002002818BF02460A614D
:1057E000A7E600BF4AF2FC50C0F60000B4E700BFD5
:1057F0004AF2FC50C0F60000B8E700BF2046294638
:1058000032469847214618B1C86830445CE700BF6B
:1058100008694AF2FC52C0F60002DDE7696E766163
:105820006C6964206669656C642064657363726981
:1058300070746F72000000007A65726F2D6C656E77
:1058400067746820737472696E670000756E7465A2
:10585000726D696E6174656420737472696E67003D
:1058600062797465732073697A652065786365650C
:10587000646564002DE9F04F85B00D46897D0446CE
:1058800001F03002102A07D0302A11D1286A298A63
:10589000008888420CD020E0286A18B1007838B916
:1058A0001BE000BF3F2903D8284600F06FFBA0B9DA
:1058B000EE69A87D76B100F0C001402912D12868B8
:1058C000C36853B1002021462A46984728B9206969
:1058D00088A121E010F0300F1CD0012005B0BDE8F8
:1058E000F08F00BF00F03002202A0BD12A6A1788FF
:1058F000002FF2D0802917D0A98A8F4214D92069AD
:1059000072A109E02046294605B0BDE8F04FFFF737
:10591000D1BD00BF20697BA1002818BF01462161CD
:10592000002005B0BDE8F08F00F00E00062815D26B
:10593000288A0023C000821C204601F0A5F80146F9
:105940000020002900F0AF80A87D00F00F0005289E
:1059500054D0042854D1BE006AE000BF4AF27469F2
:105960004FF0000A0FF27C1BC0F600094FF0000850
:1059700014E000BF3168E961F1B120462946FFF724
:1059800099FD0028EE61CBD0688A08F10108064431
:10599000B8454FF00100EE6180F08580A87D00F0F1
:1059A000CE018629E6D020462946FFF783FD002850
:1059B000B6D0EE69E8E700BF00F007001BF8000072
:1059C000298A002340EAC102204601F05DF8002840
:1059D00076D023688DF800A05BB1E068411C69D0E7
:1059E000A168884266D2204669460122984700286D
:1059F0005CD0E0680130E060C6E700BFFE0017E061
:105A0000D5F81C900026E8460496CDE90266CDE95B
:105A100000664046294600F0B1FE88B3E869698A0D
:105A200001360844BE42E861F3D3039EC5F81C90DA
:105A300020463246002301F027F80146002091B3AA
:105A4000206858B300260FE02046294600F096FE55
:105A500000283FF465AFE869698A01360844E861C7
:105A6000BE424FF001001ED2A87D00F00E000428B7
:105A7000EAD12046294600F037FE0028EBD14FE757
:105A80000499206919A2002918BF0A46002818BFE6
:105A900002462261002005B0BDE8F08F20460021BB
:105AA000324601F0E9FB05B0BDE8F08F4AF2FC593F
:105AB000C0F600092069002818BF8146C4F810907C
:105AC000EE61002005B0BDE8F08F00BF6172726129
:105AD00079206D61782073697A65206578636565E2
