:020000040800F2
:10000000904F0020C1010008DD2F0008F9240008EE
:10001000D92F0008010300081D350008000000006A
:100020000000000000000000000000003131000866
:100030009105000800000000E12F0008E9320008E7
:10004000DB010008DB010008DB010008DB01000820
:10005000DB010008DB010008DB0100089D0500084A
:10006000DB010008A5050008AD050008DB0100085C
:10007000DB010008DB010008DB010008DB010008F0
:10008000DB010008DB010008DB010008DB010008E0
:10009000DB010008DB010008DB010008B5050008F2
:1000A000DB010008DB010008DB010008DB010008C0
:1000B000DB010008DB010008DB010008DB010008B0
:1000C000DB010008DB010008DB010008DB010008A0
:1000D000DB010008DB01000811350008DB01000826
:1000E00095050008DB010008DB010008DB010008C2
:1000F000DB010008DB010008DB010008DB01000870
:10010000DB010008DB010008DB010008DB0100085F
:10011000DB010008DB010008DB010008DB0100084F
:10012000DB010008DB010008DB010008DB0100083F
:10013000DB010008DB010008DB010008DB0100082F
:10014000DB010008DB010008DB010008DB0100081F
:10015000DB010008DB010008DB010008DB0100080F
:10016000DB010008DB010008DB010008DB010008FF
:10017000DB010008DB010008DB01000800000000D3
:10018000DB010008DB010008DB010008DB010008DF
:10019000DB010008DB010008DB010008DB010008CF
:1001A000DB010008DB010008DB010008DFF80CD0F0
:1001B00000F094F800480047454B0008904F00209D
:1001C0000648804706480047FEE7FEE7FEE7FEE7F1
:1001D000FEE7FEE7FEE7FEE7FEE7FEE70133000885
:1001E000AD0100082DE9F05F0546002092469B46D0
:1001F00088460646814640241BE02846414647463D
:10020000224600F05AF853465A46C01A914110D37C
:1002100011461846224600F041F82D1A67EB0108F6
:100220004F4622460120002100F038F817EB000964
:100230004E41201EA4F10104DFDC484631462A4627
:100240004346BDE8F09F40EA01039B0703D009E065
:1002500008C9121F08C0042AFAD203E011F8013BB2
:1002600000F8013B521EF9D27047D2B201E000F80B
:10027000012B491EFBD270470022F6E710B513464A
:100280000A4604461946FFF7F0FF204610BD421CFF
:1002900010F8011B0029FBD1801A7047202A04DBCB
:1002A000203A00FA02F1002070479140C2F1200389
:1002B00020FA03F3194390407047202A04DB203AC8
:1002C00021FA02F00021704721FA02F3D040C2F176
:1002D000200291400843194670470000064C074D24
:1002E00006E0E06840F0010394E807009847103406
:1002F000AC42F6D3FFF75EFF7093000890930008BE
:10030000FEE700002DE9F04F83B00E46044640F2B0
:100310000009052004210192C4F2020900F0DCF872
:100320000A20802102F016FF6EB340F2DC1A013C75
:100330004FF06408C2F2000A0DF10B070DF10A0537
:1003400014F801BF48461021002200F001FB1220E2
:100350008DF80B00504639462A460123CDF800801F
:1003600001F086FA504639462A4601238DF80BB033
:10037000CDF8008001F07CFA48461021012200F0FF
:10038000E7FA013EDCD148461021002200F0E0FAF5
:1003900040F2DC160220C2F200060DF10B070DF14F
:1003A0000A048DF80B004FF06408304639462246A7
:1003B0000123CDF8008001F05BFA03208DF80B00DB
:1003C0000DF10B010DF10A0230460123CDF800803A
:1003D00001F04EFA48461021012200F0B9FAFF253B
:1003E0004FF08A0B48461021002200F0B1FA304647
:1003F0003946224601238DF80BB0CDF8008001F07C
:1004000037FA00208DF80B0030463946224601238A
:10041000CDF8008001F02CFA9DF80AA04846102182
:10042000012200F095FA013D280602D01AF00400DE
:10043000D8D04846102100224FF0000800F088FA7A
:1004400040F2DC14C420C2F200048DF80B006425D5
:100450000DF10B010DF10A0220460123009501F078
:1004600007FA0DF10B010DF10A02204601238DF868
:100470000B80009501F0FCF99DF80A7048461021A8
:10048000012200F065FA019E4846102100223770D3
:1004900000F05EFAC2208DF80B000DF10B010DF19A
:1004A0000A0220460123009501F0E2F90DF10B014B
:1004B0000DF10A02204601238DF80B80009501F012
:1004C000D7F99DF80A4048461021012200F040FA71
:1004D000747003B0BDE8F08F2DE9F04784B040F2AE
:1004E0000008C4F202088A4606464046102100224F
:1004F0004FF0000900F02CFA802040F2DC1540EAB1
:100500004600C2F200058DF8090064240DF10901CE
:1005100002AA28460123009401F0AAF90DF10B016B
:100520000DF10A02284601238DF80B90009401F08A
:100530009FF99DF80A7040461021012200F008FA48
:1005400040461021002227EA0A0700F001FA7E2027
:1005500000EA46008DF80D000DF10D0103AA2846B2
:100560000123009401F084F90DF10F010DF10E0249
:10057000284601238DF80F70009401F079F9404668
:100580001021012200F0E4F904B0BDE8F08700007A
:10059000704700004FF4806000F0F4B8022000F0D3
:1005A000F1B80000082000F0EDB80000102000F0C5
:1005B000E9B8000080B5202000F0E4F84020BDE854
:1005C000804000F0DFB80000EFF3108072B600BF8B
:1005D000FEE7000070B5866D044600F0BFF994F8A0
:1005E0003510022928D105462068216C026822F0C6
:1005F00016020260426922F08002426109B9A16CD0
:1006000019B1016821F008010160016821F00101C0
:10061000016000BF20680068C00715D000F09EF997
:10062000401B0628F6D320206065032084F835009F
:10063000002184F8341070BD802060650120002105
:1006400084F8341070BD00BFE06D3F2101FA00F066
:10065000B060012084F835000020002184F83410B7
:1006600070BD000090F83510022909D1052180F8ED
:1006700035100068016821F0010101600020704719
:100680008021416501207047B0B5044600F066F94D
:10069000054640F20400C2F200000078611C18BF59
:1006A000044400BF00F05AF9401BA042FAD3B0BD89
:1006B00010B584B00446B0F5806F16D140F2180032
:1006C000C2F2000000218068039103A907F06CFCCE
:1006D000039850B14EF60450CEF200004FF0805116
:1006E0000160BFF34F8FBFF36F8FA4F108004FEA93
:1006F000F00000210728029126D8DFE800F005115C
:10070000251D2525252700BF41F20000C4F2020067
:10071000082100F017F9012816D1522023E000BF6C
:1007200041F20000C4F20200102100F00BF9012890
:100730000AD1472017E000BF41F20000C4F20200D6
:10074000202100F0FFF868B104B010BD41F20000B4
:10075000C4F20200402100F0F5F80028F4D1302066
:1007600001E000BF59208DF8070040F21800C2F2E6
:10077000000000690DF1070102AA002307F068FBE1
:1007800004B010BD43F61441C4F201010A680242EC
:1007900014BF08607047FFF78BBF00002DE9F04FD2
:1007A00082B000F13E4242F2004502F1FF77C4F20E
:1007B00002050A2243F6004E4FEAB726A84208BFB8
:1007C0000922C4F2010E092E38BF4FEAB7220125D3
:1007D000002600274FF00008009208E008F1010809
:1007E0000437B8F1100F06F1020600F0A7800C687C
:1007F00005FA08F914EA090FF0D0D1F804B0032281
:100800000BF0030CACF10104B240012C6FEA020AB8
:1008100010D88268CC6802EA0A02B440224382609F
:100820004268CBF3001422EA090204FA08F42243D6
:10083000426005E0BCF1030F02D14FF0030C20E051
:10084000C2688C6802EA0A02B4402243BCF1020F7B
:10085000C26016D16FF0030202EA58020244D2F8D5
:1008600020C007F01C050F230C69AB402CEA0303E2
:1008700004FA05F52B431362D1F804B001250BF0FF
:10088000030C02680CFA06F302EA0A021A431BF48C
:10089000403F0260A2D0002243F644030192C4F21A
:1008A00002031A684FF6084C42F480421A601A6834
:1008B000CFF6FF7C02F480420192019A28F00302F5
:1008C000724452F80C3007F00C050F24AC40A343DF
:1008D000009C04FA05F52B4342F80C30DEF80820A2
:1008E0004B6842EA090543F60C4CDC0258BF22EA89
:1008F0000905CEF80850C4F2010CDCF800209C0277
:1009000042EA090558BF22EA0905CCF80050DEF892
:1009100004209C0342EA090558BF22EA0905CEF8E3
:100920000450DEF80020DB0342EA090558BF22EA42
:100930000905CEF80050012550E700BF02B0BDE820
:10094000F08F00000069084018BF012070470000C8
:10095000002A08BF090481617047000044F29040FA
:10096000C2F200000068704790F83D20202A1CBFAA
:1009700002207047242280F83D200268136823F08B
:1009800001031360536A23F010035362536A19433F
:100990005162116841F001011160202180F83D1081
:1009A0000020704790F83D20202A1CBF022070478D
:1009B000242280F83D20026889B2136823F00103E5
:1009C0001360D2F824C04FF6F07303EA0C03194306
:1009D0005162116841F001011160202180F83D1041
:1009E0000020704770B5B8B3044690F83D0028B9B0
:1009F000002084F83C00204600F0ECFA242084F823
:100A00003D002068016821F001010160016841F4A6
:100A100000410160016821F40041016000F080FCA8
:100A200048F28041C0F21E0140F60013D4F804E001
:100A300088424FF00001C0F23D0348F2A16C4FF034
:100A4000000238BF01219842C0F2010C38BF0122D8
:100A5000E64538BF0A460AB1012070BD4DF68361F4
:100A6000C4F21B31A0FB01122168950C4B684FF4B6
:100A7000967623F03F0343EA9243754344F6D356F8
:100A80004B60C1F262060B6AA5FB0656B50923F05E
:100A90003F03E64538BF950C6A1C1A430A62CA69CF
:100AA00048F2A0664CF6FF73C0F20106B64522EA92
:100AB00003020BD801384FEA4E03B0FBF3F00130CC
:100AC0006FF31F30042898BF04201EE0A36801388C
:100AD00063B119230EFB03F3B0FBF3F001306FF3A6
:100AE0001F3078B100F5804008E000BF0EEB4E03E8
:100AF000B0FBF3F001306FF31F3028B100F5004078
:100B000003E000BF012000E001201043C861086835
:100B1000D4E9072320F0C000104318430860886818
:100B200048F2FF3204F10C0690434CCE18431043B8
:100B3000A5698860C86820F0FF0030432843C8607A
:100B4000086840F00100086000202021206484F83B
:100B50003D10206384F83E0070BD00002DE9F04395
:100B600081B01F46164688460446FFF7F7FE94F804
:100B70003D10202920D1054620688169890717D5B5
:100B8000FFF7ECFE401B1928F6D900202021206336
:100B900084F83D1084F83E00216C022641F02001CB
:100BA000216484F83C00304601B0BDE8F08300BF0A
:100BB00094F83C10012905D10226304601B0BDE869
:100BC000F08300BF012184F83C100168C90703D1FC
:100BD000016841F001010160016821F400610160D8
:100BE000212184F83D10102184F83E100021216459
:100BF00066626785618D21850021CFF6FF71E16214
:100C0000E16A11F5803F18BF012919D1016841F44B
:100C1000807101604169DDF82090C90723D119F185
:100C2000010116D0B9F1000F46D000BFFFF796FEC4
:100C3000401B484542D820684169C907F6D012E0F8
:100C40000829E3D0216B1229E0D0E3E74169C90705
:100C500009D14169C90706D14169C90704BF416982
:100C60005FEAC171F2D02169B1F5804F02D1FE2156
:100C700061E000BF062101EAD811F031016141694C
:100C8000090757D4416919F1010201F480612FD09D
:100C9000002946D1B9F1000F00F04281FFF75EFE56
:100CA000401B484500F23E8120684169090741D454
:100CB00041694905F2D534E0FFF750FE00202021BC
:100CC000206384F83D1084F83E00216C012641F039
:100CD00020012164216884F83C000868C00544BFF5
:100CE0004FF400702064304601B0BDE8F08300BFCF
:100CF000B9B9416909071DD44169490511D4416950
:100D0000090717D4416949050BD44169090711D472
:100D10004169490505D4416909070BD44169490571
:100D2000E7D5016841F4007101606FF480614161B1
:100D30000420F8E0FF2101EA080101614169890707
:100D40003AD4416919F1010201F4806112D051BB1A
:100D5000B9F1000F00F0E080FFF700FE401B4845AE
:100D600000F2DC8020684169890725D44169490582
:100D7000F2D518E0B9B9416989071DD4416949051F
:100D800011D44169890717D4416949050BD44169D8
:100D9000890711D44169490505D4416989070BD4F4
:100DA00041694905E7D5016841F4007101606FF4BC
:100DB000806141610420B6E00026009641690091FF
:100DC000816900910099218D002900F0958009F139
:100DD0000108014651F8142F120635D4B8F1000F5E
:100DE00016D0B9F1000F00F0AF8000BF08684005D1
:100DF00000F1B280FFF7B2FD401B484500F2A98028
:100E00002068014651F8142F1206EFD51CE000BFF0
:100E10000A68520500F1A0800A68120614D40A6814
:100E2000520500F199800A6812060DD40A6852052D
:100E300000F192800A68120606D40A68520500F191
:100E40008B800A681206E3D5636A194611F8012BF4
:100E500002616162618D01396185278D0146A7F1CB
:100E6000010CA4F828C051F8142F52070DD55FEAE1
:100E70000C420AD05A78A7F1020C02619A1C6262F5
:100E8000628D013A6285A4F828C00A6852072FD4FF
:100E9000B8F1000F14D0B9F1000F7BD008684005FD
:100EA00000F18080FFF75AFD401B484577D8206845
:100EB000014651F8142F5207F0D5B4F828C017E0B6
:100EC0000A6852056ED40A68520711D40A6852059E
:100ED00068D40A6852070BD40A68520562D40A68BB
:100EE000520705D40A6852055CD40A685207E7D550
:100EF0005FEA0C417FF46DAF016841F4007101605D
:100F0000202084F83D0084F83E6084F83C60304640
:100F100001B0BDE8F08300BFFFF720FD202002E014
:100F2000FFF71CFD202000212022216384F83D20B2
:100F300084F83E10226C01261043206484F83C1093
:100F4000304601B0BDE8F0830868400504D4FFF7DF
:100F500005FD202004E000BF6FF4806008600420DD
:100F600000212022216384F83D2084F83E10226C69
:100F70001043206484F83C10206C042825D120689C
:100F80000126016841F400710160304601B0BDE8FE
:100F9000F08300BF0868400504D4FFF7DFFC202081
:100FA00004E000BF6FF4806008600420002120226C
:100FB000216384F83D2084F83E10226C10432064A5
:100FC00084F83C10206C0428D9D00126304601B0AA
:100FD000BDE8F083B0B586B0016845F20040C4F2C8
:100FE0000000814202D006B0B0BD00BF002443F62D
:100FF00030050194C4F20205296800F5D83041F0AB
:1010000002012960296801F00201019101994FF460
:10101000407101911221CDE90214032104910421B0
:10102000059101A9FFF7BAFB0094286940F400106C
:101030002861286900F400100090009806B0B0BD47
:1010400040F2040044F29041C2F20000C2F20001FA
:1010500000780A68104408607047000080B543F6C5
:101060000040C4F20200016841F4007101600168AF
:1010700041F480610160016841F4807101600320E6
:1010800000F08EF80F2000F005F800F027F800209F
:1010900080BD000070B540F20406C2F2000640F2C6
:1010A0000C013278C2F200014FF47A730968B3FB85
:1010B000F2F20446B1FBF2F1084600F065FD0F2C98
:1010C0004FF0010508D838B94FF0FF302146002213
:1010D000002500F039F87460284670BD82B0002009
:1010E00043F640010190C4F202014A6842F4804292
:1010F0004A604A6802F480420192019A00900868AE
:10110000002240F08050086008680F2100F08050F5
:10111000009000986FF0010002B000F015B80000D8
:10112000002848BF7047C1B200F01F00012202FA38
:1011300000F04EF20012CEF2000242EAD10121F09C
:10114000030108607047000010B54EF60C5CCEF24B
:10115000000CDCF80030C3F3022E8EF00704042CE0
:1011600028BF0424BEF103034FF0FF3E0EFA04F43F
:1011700038BF0023A14399400EFA03F39A43114369
:1011800000F00F0200F160430901043A03F56443E3
:101190006244002848BF02F10C03197010BD000022
:1011A0004EF60C51CEF200010A684FF6FF031A40CA
:1011B00060F30A2242F0806040F0FD7008607047E2
:1011C0002DE9F041002800F08B8043F60808C4F2B6
:1011D00002080446D8F8F8030D4600F00F008842D4
:1011E00007D288F8F853D8F8F80300F00F00A842A7
:1011F00076D12068810717D5410705D5D8F80010AA
:1012000041F4E051C8F80010010705D5D8F80010E6
:1012100041F46041C8F80010D8F80010A26821F02D
:10122000F0011143C8F80010C0073FD1D8F8F80307
:1012300000F00F00A84207D988F8F853D8F8F8034F
:1012400000F00F00A8424BD12068410707D5D8F81D
:101250000010E26821F4E0511143C8F800100007C3
:1012600008D5D8F80000216920F4604040EAC100A8
:10127000C8F8000000F07CF8D8F8001048F68C722E
:10128000C1F30311C0F60002515C40F20C0220FAD7
:1012900001F140F20800C2F200000068C2F2000250
:1012A0001160FFF7F7FE0020BDE8F0816068811E45
:1012B000022907D258F8081C89015CBF0120BDE84B
:1012C000F08111E0012807D158F8081C89035CBFA0
:1012D0000120BDE8F08107E058F8081C890703D415
:1012E0000120BDE8F08100BFD8F8001021F0030113
:1012F0000843C8F80000FFF731FB064641F2883783
:10130000D8F80000616800F00C00B0EB810F8DD0C0
:10131000FFF724FB801BB842F2D90320BDE8F0811F
:1013200040F20C0043F60801C2F20000C4F20201D0
:101330000068096848F69C72C1F38221C0F6000279
:10134000515CC8407047000040F20C0043F60801B1
:10135000C2F20000C4F202010068096848F69C72FB
:10136000C1F34231C0F60002515CC8407047000032
:1013700010B543F60404C4F20204606800F00C00E7
:1013800008280BD0042819BF42F20040C0F2F40034
:1013900047F64000C0F27D1010BD00BF20682168F4
:1013A0002368490247F64001C0F27D1100F03F0278
:1013B000C3F388105CBF42F20041C0F2F401A1FB0C
:1013C00000010023FEF70EFF21680222C1F3014154
:1013D00002EB4101B0FBF1F010BD00002DE9F0413E
:1013E00082B0002868D00446007843F60006C007A3
:1013F000C4F202060BD0B06800F00C00042840F0E4
:101400009F803068800302D56068002854D020781F
:1014100080071AD5B06810F00C0F09D0B06800F042
:101420000C00082840F0A6807068400200F1A280FD
:101430003068800702D5E06801283DD13068216915
:1014400020F0F80040EAC10030602078000737D46F
:10145000207840074CD4A56955B3B06800F00C0063
:10146000082840F0BB80012D26D07068E16900F4A7
:1014700080028A4220D1216A00F03F028A421BD1B9
:1014800047F6C071626A0140B1EB821F14D1A16AB4
:101490004FF6FF73C903994300F44032A1F5803140
:1014A0008A4209D1E16A00F07060B0EB016F03D1AC
:1014B000002002B0BDE8F081012002B0BDE8F0815B
:1014C0006069002840F20000C4F2472076D0012174
:1014D000C0F8801EFFF742FA054600BF706F800714
:1014E000B6D4FFF73BFA401B0228F7D9DDE000BF76
:1014F000306C10F080580AD100200190306C40F020
:1015000080503064306C00F080500190019847F2B8
:101510000007C4F200073868C00541D4386840F4B9
:1015200080703860FFF71AFA054600BF3868C005BA
:1015300036D4FFF713FA401B0228F7D9B5E000BFF5
:10154000B06800F00C00082803D1706840023FF535
:1015500058AF6068B0F5803F07D0B0F5A02F40F0DD
:101560008D80306840F480203060306840F48030F6
:1015700030608DE0E068002852D00020C4F247209F
:1015800001210160FFF7EAF9054600BF30688007D6
:101590003FF554AFFFF7E2F9401B0228F6D984E08B
:1015A000A068012805D005284ED1306F40F0040016
:1015B0003067306F40F0010030674FE00021C0F825
:1015C000801EFFF7CBF90546706F80077FF540AFAF
:1015D000FFF7C4F9401B0228F6D966E00027C4F2E1
:1015E000472700203866FFF7B9F9022D05460BD1D1
:1015F000306880015ED5FFF7B1F9401B02284FF03B
:101600000300F5D955E700BF306880017FF550AF82
:10161000FFF7A4F9401B02284FF00300F4D948E774
:101620000020C4F2472000210160FFF797F905462A
:10163000306880077FF509AFFFF790F9401B02285B
:101640004FF00300F4D934E7316F002821F0010195
:101650003167316F21F0040131674DD0FFF77EF91A
:10166000054641F2883700BF306F800756D4FFF738
:1016700075F9401BB842F7D917E000BF3168002860
:1016800021F480313160316821F4802131604FD004
:10169000FFF764F9054600BF306880033FF5B7AE39
:1016A000FFF75CF9401B6428F6D9032002B0BDE8BF
:1016B000F08100BF04F11C052FCD084340EA8210E1
:1016C000D9034FF6FF729143A1F5803140EA0560DE
:1016D0000843706001203866FFF740F9044600BFF8
:1016E000306880013FF5E4AEFFF738F9001B0228AF
:1016F0004FF00300F4D9DCE6FFF730F9054641F27C
:10170000883700BF306F800708D5FFF727F9401BE7
:10171000B8424FF00300F5D9CBE600BFB8F1000F97
:101720007FF499AE306C20F08050306493E600BFB7
:10173000FFF714F9054600BF306880037FF567AEF8
:10174000FFF70CF9401B64284FF00300F4D9B0E612
:1017500070B538B10446406A30B10020206104F110
:10176000140007E0012070BD6068B0F5827F03D0EF
:1017700004F11C00002101600026A66294F85100CB
:1017800020B9204684F8506000F03CF8022084F82C
:10179000510094E80F0001F48271056802F40442DC
:1017A00025F040050560114403F4006223691144EB
:1017B00003F002026369114403F00102A369E569C1
:1017C000114403F40072114405F03802256A1144F3
:1017D00005F08002A56A114305F40052114301602F
:1017E000626A042101EA134102F0100211444160CF
:1017F000C16921F40061C1610120666584F851006E
:10180000304670BD80B586B0016843F20000C4F276
:101810000100814202D006B080BD00BF002143F626
:1018200030020191C4F20202536900F5504043F4C2
:1018300080535361536903F480530193019B0191D9
:10184000136843F001031360126802F00102019271
:10185000019AE02201920222CDE9022103210491A2
:101860000521059101A9FEF799FF06B080BD000092
:101870002DE9F04383B0044690F85000012803D1CD
:10188000022003B0BDE8F08301201E4615460F4636
:1018900084F85000FFF762F894F85110814601294E
:1018A00040F09880002F4FF0010018BF002D00F08D
:1018B0009E80002E00F09B8094F8510000210428A7
:1018C0001CBF052084F851006165A563E687A687E3
:1018D0002763E6862068A68621646164016849065C
:1018E00003D4016841F0400101606168731EE26841
:1018F000B1FA81F1B3FA83F3DDF8288049095B0975
:10190000B2F5006F41EA03017AD131B137F8021B19
:10191000C1602763E08E0138E086012518F10100DF
:1019200031D101E0FFF71AF8E08E18B9E08F0028F6
:1019300000F0D0802068816889070CD5E18E51B114
:10194000012D08D1216B002531F8022BC2602163E3
:10195000E18E0139E1868168C907E3D0E18F002972
:10196000E0D0C068A16B012521F8020BA163E08FD4
:101970000138E087D6E700BFFEF7F0FFA0EB0900D3
:10198000404580F0FD80E08E18B9E08F002800F01F
:10199000A1802068816889070CD5E18E51B1012DA5
:1019A00008D1216B002531F8022BC2602163E18E42
:1019B0000139E1868168C907DED0E18F0029DBD0DB
:1019C000C068A16B012521F8020BA163E08F0138EB
:1019D000E087D1E76068B0F5827F07D1A068002872
:1019E0004FF0020008BF042901D15BE7022001216A
:1019F00084F85110002184F8501003B0BDE8F08342
:101A000039B139780173206B01302063E08E0138E1
:101A1000E086012518F1010033D101E0FEF79EFFB9
:101A2000E08E10B9E08F002854D0206881688907C3
:101A30000ED5E18E61B1012D0AD1216B0025097807
:101A40000173216B206801312163E18E0139E18648
:101A50008168C907E2D0E18F0029DFD0C068A16B9F
:101A600001250870A06B0130A063E08F0138E0878A
:101A7000D4E700BFFEF772FFA0EB0900404580F0FD
:101A80008180E08E08B9E08F20B3206881688907E3
:101A90000ED5E18E61B1012D0AD1216B00250978A7
:101AA0000173216B206801312163E18E0139E186E8
:101AB0008168C907DED0E18F0029DBD0C068A16B47
:101AC00001250870A06B0130A063E08F0138E0872A
:101AD000D0E700BF40F20C00C2F20000006849F6F7
:101AE0008171C1F25E61A0FB0101480D4FF47A7172
:101AF000484302906068B0F5827F0FD12046802174
:101B000042464B4601F09EFA60B3606D40F0200003
:101B1000606520206065012069E700BF029808B376
:101B20000298013802902068806800061AD5029851
:101B3000C0B102980138029020688068000611D573
:101B4000029878B1029801380290206880680006F7
:101B500008D5029830B10298013802902068806858
:101B60000006DBD4A06800284FF000007FF43FAFF0
:101B700001902168CA68019289680191019936E74C
:101B8000032034E7032032E7411E0020B0EB116F41
:101B90001CBF012070474EF21002CEF200025160CD
:101BA0004EF62351CEF20001F0230B700721906016
:101BB000116070477047000070470000B0B582B0F8
:101BC000044600680168C368426901F02F05202DB2
:101BD00003F0200506D12DB1204602B0BDE8B0408B
:101BE00001F09EBB5FEA017C1EBF02F0010E03F410
:101BF000907212EB0E0253D1226B012A05D111F023
:101C0000100218BF13F0100236D10A0622D513F0C5
:101C100080021FD094F83D1021293FD1A168B1F571
:101C2000805F03D12169002900F07282216A4A1C79
:101C3000226209784160E18C01390A04E1842DD1E6
:101C4000C16821F08001C160C16841F04001C160FC
:101C500002B0B0BD490621D513F040011ED0C168C5
:101C600021F04001C1602021204684F83D1002B0DF
:101C7000BDE8B04000F03EBC002101910168019137
:101C80004168019101994069400613D4A08DE18D0E
:101C9000E28D002A18BF884240F0BE8102B0B0BD7C
:101CA000CA0718BF13F4807240F0BA804A0700F1E7
:101CB000BD80C2E0A16B0868426893B2002BEDD0F2
:101CC000A08D8342EAD2E285C969B1F5807F00F038
:101CD0009D80206850E8030F216820F4807041E85F
:101CE0000302DAB1206850E8030F216820F4807005
:101CF00041E8030292B1206850E8030F216820F404
:101D0000807041E803024AB1206850E8030F21685F
:101D100020F4807041E80302002ADAD1206850E8FC
:101D2000050F216820F0010041E80502DAB12068C2
:101D300050E8050F216820F0010041E8050292B14A
:101D4000206850E8050F216820F0010041E80502F5
:101D50004AB1206850E8050F216820F0010041E8F1
:101D60000502002ADAD1206850E8050F216820F02A
:101D7000400041E80502DAB1206850E8050F21680B
:101D800020F0400041E8050292B1206850E8050FBC
:101D9000216820F0400041E805024AB1206850E87F
:101DA000050F216820F0400041E80502002ADAD141
:101DB000202084F83E0000202063206850E8030FB4
:101DC000216820F0100041E80302DAB1206850E8F1
:101DD000030F216820F0100041E8030292B120684F
:101DE00050E8030F216820F0100041E803024AB1D7
:101DF000206850E8030F216820F0100041E803023A
:101E0000002ADAD1A06BFEF7E5FBA08DE18D401A28
:101E100081B2204602B0BDE8B040FFF7CBBE00BFA4
:101E2000226C42F0010222644A0706D5BEF1000F7F
:101E300003D0226C42F0020222648A0706D5BEF16A
:101E4000000F03D0226C42F004022264BCF1000FA8
:101E500009D545EA0E02B2FA82F2520903D1226C88
:101E600042F008022264226C002A3FF417AF11F0FE
:101E7000200118BF002D03D0204601F051FA206840
:101E80004069216C00F0400001F00801401800F0AA
:101E9000B58000BF206850E8030F216820F49070DF
:101EA00041E80302BAB3206850E8030F216820F428
:101EB000907041E8030272B3206850E8030F216874
:101EC00020F4907041E803022AB3206850E8030F21
:101ED000216820F4907041E80302002ADAD11AE068
:101EE000206850E8050F216820F0010041E8050254
:101EF000DAB1206850E8050F216820F0010041E8C0
:101F0000050292B1206850E8050F216820F0010019
:101F100041E805024AB1206850E8050F216820F029
:101F2000010041E80502002ADAD1206B012824D102
:101F3000206850E8030F216820F0100041E80302F8
:101F4000DAB1206850E8030F216820F0100041E862
:101F5000030292B1206850E8030F216820F01000BE
:101F600041E803024AB1206850E8030F216820F0DD
:101F7000100041E80302002ADAD1202084F83E0054
:101F8000002020632068406940063FD5206850E863
:101F9000050F216820F0400041E80502DAB1206811
:101FA00050E8050F216820F0400041E8050292B199
:101FB000206850E8050F216820F0400041E8050244
:101FC0004AB1206850E8050F216820F0400041E840
:101FD0000502002ADAD1A06BC0B143F21531C0F678
:101FE00000010165FEF73EFB00283FF457AEA06BF1
:101FF000016D02B0BDE8B040084700BF2046FFF7C2
:10200000DBFD0020206402B0B0BD00BF204602B05E
:10201000BDE8B040FFF7D0BD401A216851E8031F6A
:10202000226821F4907142E80313DBB1216851E882
:10203000031F226821F4907142E8031393B12168D1
:1020400051E8031F226821F4907142E803134BB159
:10205000216851E8031F226821F4907142E80313BC
:10206000002BDAD1216851E8051F226821F0010117
:1020700042E80513DBB1216851E8051F226821F011
:10208000010142E8051393B1216851E8051F226858
:1020900021F0010142E805134BB1216851E8051F09
:1020A000226821F0010142E80513002BDAD120213A
:1020B00084F83E1000212163216851E8031F226843
:1020C00021F0100142E80313002B3FF4A1AE216878
:1020D00051E8031F226821F0100142E80313002B8E
:1020E0003FF496AE216851E8031F226821F01001E9
:1020F00042E80313002B3FF48BAE216851E8031F25
:10210000226821F0100142E80313002BD4D17FE6AE
:10211000216A31F8022B6FF35F22426021628AE567
:10212000002804BF0120704710B5044690F83D0018
:1021300028B9002084F83C00204600F021F8242033
:1021400084F83D002068C16821F40051C160204638
:1021500001F066F92068016921F49041016141694B
:1021600021F02A014161C16841F40051C1600020A1
:102170002021206484F83D1084F83E1010BD00003A
:1021800080B586B0006844F60002C4F20002002167
:102190009042CDE90411CDE90211019138D044F209
:1021A0000041C4F2000188425BD1002043F63001B7
:1021B0000090C4F202010A6942F400320A610A691D
:1021C00002F400320092009A00900A6842F008027D
:1021D0000A60096801F008010091009960210191ED
:1021E0000221CDE90210032004900720059040F65B
:1021F0000040C4F2020001A9FEF7D0FA2620052112
:102200000022FEF7A1FF2620FEF78AFF06B080BD60
:1022100043F630000091C4F20200026942F48022C9
:102220000261026902F480220092009A0091026821
:1022300042F008020260006800F008000090009878
:102240004FF4407001900220CDE902010320049078
:102250000720059040F60040C4F2020001A9FEF7F5
:102260009DFA06B080BD0000704700002DE9F043E4
:1022700081B0044690F83D0020280DD10F4600297A
:102280004FF0010000F0DD801646002A00F0D980F2
:1022900094F83C00012803D1022001B0BDE8F0838E
:1022A000012084F83C000020206421201D4684F891
:1022B0003D00FEF753FBA684E684A1680646B1F50F
:1022C000805F03D12069002800F01081B846002704
:1022D000002084F83C00E18C2068002900F0908008
:1022E00005F101090DE000BFB8F1000F28D018F882
:1022F000011B4160E18C0139E184E18C002900F08F
:102300007F8001680906EFD4B9F1000F0AD0FDB152
:10231000FEF724FB801BA8421AD820680168090632
:10232000F6D5E1E701680906DED4016809065CBF5D
:1023300001685FEA0161D7D401680906F2D5D3E7E5
:1023400037F8021B4FF000086FF35F21D1E700BFA1
:10235000206850E8030F216820F4D07041E80302A0
:10236000BAB3206850E8030F216820F4D07041E828
:10237000030272B3206850E8030F216820F4D07084
:1023800041E803022AB3206850E8030F216820F4D3
:10239000D07041E80302002ADAD11AE0206850E840
:1023A000050F216820F0010041E80502DAB120683C
:1023B00050E8050F216820F0010041E8050292B1C4
:1023C000206850E8050F216820F0010041E805026F
:1023D0004AB1206850E8050F216820F0010041E86B
:1023E0000502002ADAD1202084F83D0084F83E005E
:1023F000002084F83C00032001B0BDE8F08300BF5A
:102400000168490619D4FDB1691C0DD1016849065E
:1024100013D4016849065CBF01685FEA41610CD4CE
:1024200001684906F2D508E0FEF798FA801BA84239
:102430000AD8206800684006F6D5202084F83D00C0
:10244000002001B0BDE8F083206850E8030F216848
:1024500020F4D07041E80302E2B3206850E8030F93
:10246000216820F4D07041E803029AB3206850E854
:10247000030F216820F4D07041E8030252B32068B2
:1024800050E8030F216820F4D07041E80302002ACD
:10249000DAD11FE0206850E8050F216820F0010024
:1024A00041E80502002A9ED0206850E8050F216807
:1024B00020F0010041E80502002A3FF494AF2068B3
:1024C00050E8050F216820F0010041E80502002ACC
:1024D0003FF489AF206850E8050F216820F0010023
:1024E00041E80502002AD5D17DE700BF4FF0000882
:1024F000EEE6000070470000FEE700002DE9F04125
:1025000084B00025C4F202050446284610210022AA
:102510004FF00008FEF71CFA40F2DC161A20C2F257
:1025200000068DF80D0064270DF10D0103AA304659
:1025300001230097FFF79CF90DF10F010DF10E0239
:10254000304601238DF80F800097FFF791F9284658
:1025500010210122FEF7FCF942F29300208002AF25
:102560000C20214602222346009700F0C1F918B141
:1025700004B0BDE8F08100BF20786178A278E378EC
:102580004840504021795840401A18BF012040006F
:1025900004B0BDE8F081000010B584B0502002AC5A
:1025A000ADF80800A21C20460221FDF7ABFE0DF19C
:1025B0000C0C0C20214604222346CDF800C000F06C
:1025C00097F904B010BD0000F0B583B00024C4F248
:1025D0000204204610210122FEF7BAF904F58060BA
:1025E00001210122FEF7B4F9204610210022002724
:1025F000FEF7AEF940F2DC150220C2F200058DF8BC
:102600000B0064260DF10B010DF10A02284601238F
:102610000096FFF72DF90F208DF80B000DF10B013F
:102620000DF10A02284601230096FFF721F9204602
:1026300010210122FEF78CF9204610210022FEF71E
:1026400087F954208DF80B000DF10B010DF10A02F2
:10265000284601230096FFF70BF98D208DF80B001B
:102660000DF10B010DF10A02284601230096FFF738
:10267000FFF8204610210122FEF76AF920461021BA
:102680000022FEF765F956208DF80B000DF10B01C5
:102690000DF10A02284601230096FFF7E9F83E20D3
:1026A0008DF80B000DF10B010DF10A0228460123F4
:1026B0000096FFF7DDF8204610210122FEF748F9C9
:1026C000204610210022FEF743F95A208DF80B0016
:1026D0000DF10B010DF10A02284601230096FFF7C8
:1026E000C7F81E208DF80B000DF10B010DF10A0249
:1026F000284601230096FFF7BBF82046102101224F
:10270000FEF726F9204610210022FEF721F9582075
:102710008DF80B000DF10B010DF10A022846012383
:102720000096FFF7A5F80DF10B010DF10A022846FE
:1027300001238DF80B700096FFF79AF820461021C0
:102740000122FEF705F9204610210022FEF700F9CC
:102750002A208DF80B000DF10B010DF10A0228461D
:1027600001230096FFF784F840208DF80B000DF14F
:102770000B010DF10A02284601230096FFF778F8B5
:10278000204610210122FEF7E3F820461021002206
:10279000FEF7DEF822208DF80B000DF10B010DF194
:1027A0000A02284601230096FFF762F83D208DF8C3
:1027B0000B000DF10B010DF10A02284601230096D2
:1027C000FFF756F8204610210122FEF7C1F82046F7
:1027D00010210022FEF7BCF8A8208DF80B000DF1A7
:1027E0000B010DF10A02284601230096FFF740F87D
:1027F0000DF10B010DF10A02284601238DF80B7033
:102800000096FFF735F8204610210122FEF7A0F8C8
:102810001420032100F09EFC204610210022FEF728
:1028200097F804208DF80B000DF10B010DF10A0251
:10283000284601230096FFF71BF8A0208DF80B0017
:102840000DF10B010DF10A02284601230096FFF756
:102850000FF8204610210122FEF77AF8042080218B
:10286000FDF73AFE03B0F0BD2DE9F04184B040F22F
:102870000008C4F202080C4605464046102100221A
:10288000FEF766F840F2DC171A20C2F200078DF856
:102890000D0064260DF10D0103AA384601230096B0
:1028A000FEF7E6FF07208DF80F000DF10F010DF187
:1028B0000E02384601230096FEF7DAFF404610214B
:1028C0000122FEF745F802AF0C20214601222346E3
:1028D0002570009700F00CF802991029014618BFE6
:1028E0000221002818BF0221084604B0BDE8F0818B
:1028F0002DE9F04F87B017460C28884602930490C4
:1029000006D00E2808D111200590122007E000BF44
:1029100031200590772002E001200590002000265C
:10292000C4F20206039000F1800530461021002217
:102930004FF00009FEF70CF840F2DC1A0420C2F256
:10294000000A8DF81B0064240DF11B010DF11A0221
:10295000504601230094FEF78BFF0DF11B010DF192
:102960001A02504601238DF81B500094FEF780FF99
:10297000304610210122FDF7EBFF04208021FDF7F6
:10298000ABFD0A20802100F0E5FB3046102100223B
:10299000FDF7DEFF02208DF81B000DF11B010DF18C
:1029A0001A02504601230094FEF762FF0DF11B014D
:1029B0000DF11A02504601238DF81B900094FEF78A
:1029C00057FF304610210122FDF7C2FF6FB340F2DE
:1029D000DC1AA8F10105C2F2000A0DF11B090DF184
:1029E0001A0800BF15F801BF3046102100226424E8
:1029F000FDF7AEFF12208DF81B00504649464246B7
:102A000001230094FEF734FF6424504649464246B1
:102A100001238DF81BB00094FEF72AFF30461021E9
:102A20000122FDF795FF013FDCD130461021002245
:102A3000FDF78EFF40F2DC170220C2F200078DF88E
:102A40001B000DF11B010DF11A0238460123009401
:102A5000FEF70EFF049D0DF11B010DF11A02384621
:102A600001238DF81B500094FEF702FF3046102121
:102A70000122FDF76DFF0C2D03D10D20802100F008
:102A800069FB4FF6300540F2DC19CFF6FF754FF0C9
:102A900088084FF0640AC2F200090DF11B0B0DF11A
:102AA0001A0400BF304610210022FDF751FF4846AE
:102AB0005946224601238DF81B80CDF800A0FEF771
:102AC000D7FE00208DF81B004846594622460123B8
:102AD000CDF800A0FEF7CCFE9DF81A70304610210C
:102AE0000122FDF735FF013538D205983842D9D09B
:102AF0000D208021FDF7F0FC3046102100224FF020
:102B00000008FDF725FF40F2DC148C20C2F200041F
:102B10008DF81B0064250DF11B010DF11A022046F2
:102B200001230095FEF7A4FE0DF11B010DF11A0221
:102B3000204601238DF81B800095FEF799FE9DF835
:102B40001A40304610210122FDF702FF14F01B0F3E
:102B50000ED00225284607B0BDE8F08F0D20802159
:102B6000FDF7BAFC0225284607B0BDE8F08F00BF8C
:102B70000398049938400C2900F00105EAD1304649
:102B80001021002210244FF00009FDF7E1FE40F271
:102B9000DC189420C2F200088DF81B004FF0640A84
:102BA0000DF11B010DF11A0240460123CDF800A0E2
:102BB000FEF75EFE0DF11B010DF11A0240460123E6
:102BC0008DF81B90CDF800A0FEF752FE9DF81A700C
:102BD000304610210122FDF7BBFE304610210022B5
:102BE000FDF7B6FE98208DF81B000DF11B010DF1CD
:102BF0001A0240460123CDF800A0FEF739FE0DF180
:102C00001B010DF11A02404601238DF81B90CDF8EF
:102C100000A0FEF72DFE9DF81A80304610210122FB
:102C2000FDF796FE18F0070040EAC700A0F1080083
:102C300008BFF800102F38BF3C46002F109908BF7E
:102C40000124002C086085D0029840F2DC1BA0F122
:102C50000108C2F2000B0DF11B074FF0640A0DF1E1
:102C60001A090595304610210022FDF771FE9220C9
:102C70008DF81B00584639464A460123CDF800A07E
:102C8000FEF7F6FD00208DF81B00584639464A46EF
:102C90000123CDF800A0FEF7EBFD9DF81A50304659
:102CA00010210122FDF754FE013C08F8015FD9D143
:102CB000059D284607B0BDE8F08F000080B543F2BF
:102CC0000D2049F20422C0F60000C0F600020021E7
:102CD00002F032F940F28411C2F20001086080BDB6
:102CE0002DE9F04F87B0002443F63000CDE90544CC
:102CF0000194C4F20200016840F6004841F010015E
:102D000001600168C4F2020801F01001019101990B
:102D10000194016808F5006741F020010160016835
:102D2000002201F0200101910199019401684FF006
:102D30003C0B41F080010160016801F080010191CC
:102D400001990194016841F001010160016801F0FD
:102D50000101019101990194016841F002010160B2
:102D6000016801F00201019101990194016841F0AB
:102D700008010160016801F00801019101990194C5
:102D8000016841F00401016000683C2100F004008A
:102D9000019001983846FDF7DBFDA8F54066304606
:102DA000102101224FF00109FDF7D2FD40464FF4FA
:102DB000F0410022FDF7CCFD782002AD02904FF4E7
:102DC000881A08F580602946CDE903A4FDF7E6FCE2
:102DD00038462946CDE902B9CDE90444FDF7DEFCC9
:102DE0004FF4F06002A981E8110238462946FDF748
:102DF000D5FC1020CDE9020930462946CDE904442E
:102E0000FDF7CCFC4FF404100226CDE90309A8F528
:102E1000006029460296FDF7C1FC4FF4F040CDE971
:102E2000020940462946CDE90444FDF7B7FC4FF4BA
:102E30008060CDE9020AA8F5806029460494FDF778
:102E4000ADFC40462946CDE902640496FDF7A6FC98
:102E5000072005210022FEF777F90720FEF760F929
:102E6000092005210022FEF76FF90920FEF758F925
:102E70000A2005210022FEF767F90A20FEF750F923
:102E8000172005210022FEF75FF91720FEF748F909
:102E9000282005210022FEF757F92820FEF740F9E7
:102EA00007B0BDE8F08F000080B540F2881045F211
:102EB0000041C2F20000C4F2000148F2A062002307
:102EC0004FF4804CC0F2010280E80E00C0E9033CE0
:102ED000C0E90533C0E90733FDF784FD002818BFBA
:102EE000FDF772FB40F28810C2F200000021FDF7EE
:102EF0003BFD002818BFFDF767FB40F28810C2F2C7
:102F000000000021FDF74EFD002808BF80BDBDE890
:102F10008040FDF759BB000080B540F2DC1043F261
:102F20000001C2F20000C4F201014FF482720023DA
:102F30004FF4007C80E80E000A21C0E90333C0E9A9
:102F4000053CC361C0E90833C0E90A31FEF700FC63
:102F5000002808BF80BDBDE88040FDF735BB0000FC
:102F600080B540F2342044F20041C2F20000C4F2C5
:102F7000000100234FF00C0C4FF4E13280E80E000A
:102F8000C0E90333C0E905C3C361FFF7C9F80028EE
:102F900008BF80BDBDE88040FDF716BB80B540F29C
:102FA000782044F60001C2F20000C4F200010023C0
:102FB0004FF00C0C4FF4E13280E80E00C0E903330F
:102FC000C0E905C3C361FFF7ABF8002808BF80BDA7
:102FD000BDE88040FDF7F8BAFEE70000FEE700001C
:102FE000EFF30980BFF36F8F154B1A681EF0100FB7
:102FF00008BF20ED108A20E9F04F10602DE909008C
:103000004FF0500080F31188BFF34F8FBFF36F8FE5
:1030100004F01CFC4FF0000080F31188BDE80900AB
:1030200019680868B0E8F04F1EF0100F08BFB0EC48
:10303000108A80F30988BFF36F8F704700BF00BF0D
:103040007C0000202DE9F04182B01E4690460D46DE
:103050000446FDF783FC301A00EB0807FDF77EFC01
:1030600040F20C01C2F200010968C1F3CB3179438F
:10307000019121688A682A40AA4227D1064618F1A0
:1030800001001FD0FDF76AFC801BB84222D20198D4
:1030900001990028A1F1010101912168896808BF07
:1030A000074601EA0500A842ECD00FE088682840F6
:1030B000A8420BD188682840A84207D188682840D8
:1030C000A84203D188682840A842EFD0002002B06F
:1030D000BDE8F081D4E900014268B1F5827F22F0B9
:1030E000E00242600AD1A168B1F5004F02D0B1F50B
:1030F000806F03D1016821F040010160A16AB1F540
:10310000005F07D1016821F400510160016841F4BA
:1031100000510160012084F85100002084F8500023
:10312000032002B0BDE8F0810000000000000000B4
:10313000074B19680868B0E8F04F80F30988BFF3BF
:103140006F8F4FF0000080F31188704700BF00BF01
:103150007C0000202DE9F04784B040F20008C4F262
:1031600002088A4606464046102100224FF0000918
:10317000FDF7EEFB802040F2DC1540EA4600C2F28B
:1031800000058DF8090064240DF1090102AA284602
:1031900001230094FEF76CFB0DF10B010DF10A0207
:1031A000284601238DF80B900094FEF761FB9DF8F3
:1031B0000A70404610210122FDF7CAFB404610214B
:1031C000002247EA0A07FDF7C3FB7E2000EA46001B
:1031D0008DF80D000DF10D0103AA2846012300947E
:1031E000FEF746FB0DF10F010DF10E0228460123FB
:1031F0008DF80F700094FEF73BFB40461021012232
:10320000FDF7A6FB04B0BDE8F0870000012001F047
:10321000C3FDFBE790B040F2180440F60C0849F2F9
:103220002C19C2F20004C2F2000801AD05AEC0F6CE
:103230000009002703E000BF0A2001F0ADFD20785F
:103240000128F9D162882846414602F09DFD3046AA
:103250002C21FDF711F828464946324601F078FF47
:1032600027706780E8E70000B2B040F68C0804469B
:10327000C2F200080DF118090DF1040A0DF11C0B42
:10328000D8F80000494600224FF0FF3301F0C6FD98
:103290000028F5D194E8CF100DF19C0E8EE8CF00F8
:1032A000A16AD4E90802E5693191CDE92F025046BF
:1032B00059468022CDE92DC502F03CFE49F22C1181
:1032C0005046C0F6000127AA02F016FA0028D7D00F
:1032D000BDF8102040F23420C2F2000059464FF0F1
:1032E000FF33FEF7C3FFCBE780B5FDF7A9FE05F07E
:1032F000AFF9012808BF80BDBDE8804004F0C6BB1F
:103300004EF68850CEF20000016841F47001016071
:1033100070470000806B0021C185C184FEF74CBC62
:1033200081B090F83E10222921D183680246B3F57E
:10333000805F09D152F8281F52F8183C002B63D047
:1033400003685B680AE000BF52F8281F13B90369DD
:10335000002BF5D003685B6803F07F030B701168E6
:1033600001311160C18D01390A04C18502D001B05B
:10337000704700BF0168CA6822F02002CA60CA68AC
:1033800022F48072CA604A6922F001024A61202157
:1033900080F83E10016B01293ED10021016300BF7E
:1033A000016851E8031F026821F0100142E803138D
:1033B000DBB1016851E8031F026821F0100142E807
:1033C000031393B1016851E8031F026821F0100153
:1033D00042E803134BB1016851E8031F026821F072
:1033E000100142E80313002BDAD101680A68D20603
:1033F00006D5002200920A6800924968009100995F
:10340000818D01B0FEF7D6BB026852686FF35F2270
:1034100021F8022B8162A5E701B0FEF725BF00006D
:1034200010B504460068D4E902C22369016921F499
:10343000405111430161626943EA0C01E3691143A0
:10344000C268194349F20C639A431143C160416950
:10345000A26921F4407141F20043114340F48062BB
:10346000C4F201039A42416102D1FDF76DFF01E010
:10347000FDF756FFE16963681922B1F5004FA0FB23
:10348000020123D15A00DB0FFCF7ACFE48F21F51BA
:10349000C5F2EB11A0FB01235A094FF69C73C0F64D
:1034A000FF7303F1805302FB0300322303EBC000E0
:1034B000A0FB01014FF4F87000EA111000EB0210BC
:1034C000C1F3421108442168886010BD9A009B0F27
:1034D000FCF788FE48F21F51C5F2EB11A0FB012357
:1034E0005A094FF69C73C0F6FF7302FB03003223A8
:1034F00003EB0010A0FB0101F02000EA511000EBEB
:103500000210C1F3431108442168886010BD000017
:1035100040F23420C2F20000FEF750BBFEE700008C
:1035200080B5436803EB020CC0F804C019B108462B
:103530001946FCF788FE012080BD000080B5D0F858
:1035400004C00CEB020343606046FCF77CFE0120E4
:1035500080BD00002DE9F04786B09146927D8246FD
:1035600002F00F020B2A00F22381DFE812F099002B
:103570000D000D000D00B100D300E300010121009A
:1035800021002101310100BF481EFD2836D8DAF89C
:103590000C0049F29621C0F60001002818BF014630
:1035A000CAF80C100026304606B0BDE8F08700BF10
:1035B000022940F0258105A95046002201F034FF80
:1035C000B0B1DAF80C209AE80B00CDE90232059A86
:1035D00001919342009080F0DB81DAF80C0049F20F
:1035E000F821C0F60001002818BF0146CAF80C10E7
:1035F0000026304606B0BDE8F08700BF032A00F081
:103600000F81022A40F05281DAF808000025E846CE
:1036100000270026002800F0DD81DAF8003050464F
:10362000414601229847002800F0EC81DAF80800B2
:103630009DF8001001383F2DCAF8080028BF022964
:1036400080F0308201F07F02C5F1200422FA04F4F8
:10365000B5F1200358BF02FA03F402FA05F249B2A9
:1036600058BF002226431743B1F1FF3F05F107057C
:10367000D0DDB9F812000138072800F25982DFE8DE
:1036800010F009009302570299025702570257029D
:10369000B30200BFD9F81C00FF2107708FE200BF02
:1036A000481EFD2840F2AC80D9F81C5069465046AF
:1036B000002201F0B9FE064600283FF474AF0098DE
:1036C000002818BF01202870304606B0BDE8F087FA
:1036D000052902D0FF2940F09380DAF8080003287A
:1036E00021D9DAF80030D9F81C5069465046042236
:1036F0009847002800F04481DAF8080001260438D1
:1037000038BF00200099CAF808002960304606B08A
:10371000BDE8F087012901D0FF2971D1DAF808004E
:10372000072800F21381DAF80C0049F2CA21C0F62A
:1037300000016BE0022963D1694650460022002651
:1037400001F072FE00283FF42EAF009EB6F5803FD8
:1037500080F0E78199F8160000F0C000802840F062
:10376000DB81DAF80C0049F21031C0F600014DE0BF
:10377000022945D1D9F81C7069465046002200261E
:1037800001F052FE00283FF40EAF009A501C00F0EA
:10379000AB8199F8160000F0C000802840F0AC81A1
:1037A000DAF80C0049F21031C0F600012EE000BF3B
:1037B000DAF80C0049F28321C0F600010026002847
:1037C00018BF0146CAF80C10304606B0BDE8F087B5
:1037D000022915D1694650460022002601F024FE38
:1037E00000283FF4E0AE009AB2F5803FC0F050816F
:1037F000DAF80C0049F22231C0F6000106E000BF01
:10380000DAF80C0049F29621C0F60001002818BF32
:103810000146CAF80C100026304606B0BDE8F08715
:10382000DAF808000025E84600270026002800F006
:10383000D980DAF8003050464146012298470028E6
:1038400000F0E880DAF808009DF8001001383F2DFC
:10385000CAF8080028BF022980F02C8101F07F02FD
:10386000C5F1200422FA04F4B5F1200358BF02FA8E
:1038700003F402FA05F249B258BF00222643174367
:10388000002905F10705D1D45FEA560007F00102CF
:103890004FEA370152424FF0000363F1000380EA20
:1038A0000307B9F8120081EA02063AE0DAF80800E4
:1038B0000025E84600260027002800F09B80DAF863
:1038C00000305046414601229847002800F0AA8067
:1038D000DAF808009DF8001001383F2DCAF80800FA
:1038E00028BF022980F0EE8001F07F02C5F120049C
:1038F00022FA04F4B5F1200358BF02FA03F402FAE5
:1039000005F249B258BF002227431643B1F1FF3FE9
:1039100005F10705D0DDB9F81200082800F0DA80BB
:10392000F7170138072800F20381DFE810F00900DB
:103930001D0101012301010101010101D30000BFAB
:10394000D9F81C0071B20670C81718E1DAF8003017
:10395000D9F81C50694650460822984780B1DAF8D9
:1039600008000126083838BF0020DDE90012CAF837
:103970000800C5E90012304606B0BDE8F08700BF78
:10398000DAF80C0049F2D821C0F600013EE700BF8A
:10399000DAF808000292801ACAF80800D9F8240060
:1039A000002800F0A58099F8160000F00F00092803
:1039B00040D1D9F82000E8B350F8083CD3B3021F37
:1039C000684649469847029A0746B2FA82F040098B
:1039D00032E000BFDAF80C0049F2CA21C0F600015B
:1039E00014E700BFDAF80C0049F2CA21C0F6000162
:1039F0000CE700BFDAF80C0049F2CA21C0F600015A
:103A000004E700BFDAF80C0049F2D821C0F6000143
:103A1000FCE600BFDAF80C0049F2D821C0F600013C
:103A2000F4E600BFDAF80C0049F2D821C0F6000134
:103A3000ECE600BF00200127AFB1A0B999F816004D
:103A40000023402800F0300038BF0123203818BF81
:103A50000120D9F82410D9F81C200340684601F051
:103A60007BFB029A07463AB168460021002602F025
:103A70006DFA00283FF497AD01980399CAF8040045
:103A8000CAF80C103E46304606B0BDE8F08700BFCD
:103A9000002A55D0B9F8120082425DD1D9F81C1025
:103AA000504631E0DAF80C0049F23131C0F600013D
:103AB000ACE600BFDAF80C0049F23131C0F6000183
:103AC000A4E600BFDAF80C0049F23131C0F600017B
:103AD0009CE600BFD9F81C00C0E90067012630460B
:103AE00006B0BDE8F08700BFDAF80C0064A18DE6EF
:103AF000DAF80C0057A189E6B9F8120082422FD2F9
:103B00000020B8545046394602F020FA06463046A6
:103B100006B0BDE8F08700BFB9F81200B11C8142C1
:103B200032D9DAF80C0049F22231C0F600016DE614
:103B3000DAF80C0049F2B821C0F6000166E600BFD1
:103B4000D9F81C00B9F81210FCF796FB0126304694
:103B500006B0BDE8F08700BFDAF80C0034A155E6E6
:103B6000DAF80C0042A151E6D9F81C0031B2068007
:103B7000C81704E0D9F81C0031460660F017714000
:103B80007840084328D121E0D9F81C1021F8026BB5
:103B9000E6B1DAF80800B04230D2DAF80C0049F2A7
:103BA000CA21C0F6000131E6D9F81C004FF6FF71BA
:103BB000078004E0D9F81C004FF0FF3107600020B7
:103BC00027EA010126EA0000084305D10126304614
:103BD00006B0BDE8F08700BFDAF80C0049F27121A9
:103BE000C0F6000112E600BFD9F81C00C0E900765B
:103BF0000126304606B0BDE8F08700BFDAF8003095
:103C000050463246984758B1DAF80800801B38BF52
:103C10000020CAF808000126304606B0BDE8F0874B
:103C2000DAF80C0049F2D821C0F60001EEE500BF39
:103C3000696E636F7272656374206669786564206B
:103C40006C656E6774682062797465732073697A35
:103C500065000000696E76616C6964206669656C58
:103C6000642064657363726970746F720000000091
:103C7000737472696E67206F766572666C6F770019
:103C800073697A6520746F6F206C617267650000DC
:103C9000F0B587B0154612680446D268F2B1022921
:103CA00022D169462046002201F0BEFB90B1009F60
:103CB000E26894E80B00BB42CDE905320491039021
:103CC00044D2E06849F2F821C0F60001002818BF8C
:103CD0000146E1600025284607B0F0BD204607B048
:103CE000BDE8F04002F07EB9052951D001291BD072
:103CF000002957D1274657F8080F00284BD02368D2
:103D00006E462046314601229847002800F0448143
:103D100038689DF90020411E38BF0021B2F1FF3FF5
:103D2000396075DD01205FE0A068072833D923687A
:103D30006946204608229847002800F02D81A06897
:103D4000083838BF0020A06008204DE0A06803AE0E
:103D5000C01B0597A06000BF28680021C3683046DB
:103D60002A46984720B3059A12B1BA421746F3D3B0
:103D700032B103A80021002502F0E8F80028AAD0FB
:103D8000049806996060E1600125284607B0F0BDFF
:103D9000A06803281AD8E06849F2CA21C0F60001D9
:103DA000FFE000BFE06849F2A621C0F60001F8E09C
:103DB0000699E06882A2002918BF0A46002818BFA9
:103DC0000246E2600025284607B0F0BD2368694638
:103DD000204604229847002800F0DE80A0680438BE
:103DE00038BF0020A060042043F22151C0F600013A
:103DF00003916946049100212A680691D3680590D1
:103E000003A800212A4698470546284607B0F0BD7A
:103E10000228C0D32368711C20460122984700283D
:103E200000F0BA8038689DF90120411E38BF00219A
:103E3000B2F1FF3F396001DD0220D5E70228AAD3A5
:103E40002368B11C204601229847002800F0A48076
:103E500038689DF90220411E38BF0021B2F1FF3FB2
:103E6000396001DD0320BFE7022894D32368F11CE9
:103E7000204601229847002800F08E8038689DF97E
:103E80000320411E38BF0021B2F1FF3F3960AADC98
:103E90000228FFF480AF2368311D20460122984795
:103EA000002879D038689DF90420411E38BF0021D0
:103EB000B2F1FF3F396001DD052095E70228FFF4EC
:103EC0006AAF2368711D204601229847002863D0FD
:103ED00038689DF90520411E38BF0021B2F1FF3F2F
:103EE000396001DD06207FE70228FFF454AF236824
:103EF000B11D20460122984700284DD038689DF911
:103F00000620411E38BF0021B2F1FF3F396001DDBC
:103F1000072069E70228FFF43EAF2368F11D204621
:103F200001229847C0B338689DF90720411E38BF69
:103F30000021B2F1FF3F396002DD082054E700BFE5
:103F40000228FFF428AF236806F108012046012269
:103F5000984708B338689DF90820411E38BF0021F2
:103F6000B2F1FF3F396001DD09203DE70228FFF48F
:103F700012AF236806F1090120460122984758B183
:103F800038689DF90910013838BF0020B1F1FF3FB2
:103F900038600FDD0A2027E7E06849F2D821C0F633
:103FA0000001002818BF0146E1600025284607B03F
:103FB000F0BD00BFE06849F23131C0F60001F0E722
:103FC00063616C6C6261636B206661696C6564003F
:103FD000F0B58BB00E46917D0446C1F30110154635
:103FE000DFE800F068020832286A00281CBF0121BF
:103FF00001705FE0022E51D101F00E0005284DD86E
:104000002F6AA869698A3A8802FB01000AA9E86157
:104010002046002201F008FA90B1E06894E80E0012
:10402000CDE902300A980192834200914AD2E068B9
:1040300049F2F821C0F60001002818BF0146E160EE
:1040400000200BB0F0BD00BF01F00E0008281AD10F
:10405000286A298A0088884215D0E869698AFCF7AD
:104060000BF9696A886820B9C86810B9486800689F
:1040700048B1EA69684601F05DFD20B1684601F08B
:104080008FFE00283CD0288A296A2A4608802046CC
:104090003146FFF75FFA0BB0F0BD00BF296AA8698F
:1040A0006A8A0B8803FB0200E861581C0880A88A12
:1040B000834235D2204631462A460BB0BDE8F04057
:1040C000FFF748BAA168A1EB00010290A160E8B136
:1040D00038886E46A98A80B2884221D23046FF21B4
:1040E0002A46FFF737FAC8B1388801303880E969C5
:1040F0006A8A029B1144002BE961EBD1012006E0A2
:10410000E06849F2E121C0F600010EE001200199CA
:10411000039A6160E2600BB0F0BD00BF029858B135
:10412000E06849F24131C0F60001002818BF01469D
:10413000E16000200BB0F0BD0020E8E72DE9F04180
:1041400082B00F46C969C9B10446B87D00F00F00BE
:104150000C2804D240F6FF31C140C90714D12069B0
:1041600049F28321C0F60001002818BF01462161F1
:104170000026304602B0BDE8F08100BF012630467F
:1041800002B0BDE8F08100BF48F68071C0F60001C2
:10419000085C398A002340EAC1022046002601F06B
:1041A000DBFB0028E5D0B87D00F00F020B2A59D8C0
:1041B000DFE802F0300606060E0E3C4C1616586676
:1041C0002046394602B0BDE8F04101F039BA00BFDF
:1041D0002046394602B0BDE8F04101F0E9B900BF20
:1041E000796A002972D0092A0CD1386A50B150F886
:1041F000083C3BB1021F204639469847002800F092
:10420000FD80796AFA69204602B0BDE8F04101F00C
:10421000B7BA00BFF869002302782046002A18BF09
:10422000012202B0BDE8F04101F096BBFD69002D0E
:1042300000F0A280B5F800803F2877D8788A02384D
:10424000404573D22069A6A104E100BFFD6900F0DA
:10425000C00080283ED1002D00F0A6804FF0FF3036
:1042600041E000BF206949F28321C0F60001002629
:10427000002818BF01462161304602B0BDE8F08138
:104280007D8AFF6920462A460023002601F064FB50
:1042900000283FF46EAF85B1236873B1E068401920
:1042A00080F0D380A168884200F2CF802046394652
:1042B0002A469847002800F0EB80E0680126284451
:1042C000E060304602B0BDE8F08100BF206973A114
:1042D000C0E000BF788A002800F08080002D63D005
:1042E000013800F0918005EB000C42420027EB5DA5
:1042F000002B00F09880D3195E1C00F08780EE1927
:104300007178002900F08A80991C00F07F80B178D4
:10431000002900F08580D91C78D0F178002900F0C0
:1043200081800437D119E2D170E000BF20464246B7
:104330000023002601F010FB00283FF41AAFB8F16B
:10434000000F10D0236873B1E06810EB080080F014
:104350007C80A168884278D8A91C204642469847AC
:10436000002800F09580E06801264044E060304677
:1043700002B0BDE8F08100BF236800208DF8060080
:1043800023B3E068411C2DD0A16888422AD20DF1E8
:104390000601204601229847C0B9206949F2D82178
:1043A000C0F6000156E000BF236800208DF807002A
:1043B00063B1E068411C1BD0A168884218D20DF19E
:1043C000070120460122984700284DD0E0680126C9
:1043D0000130E060304602B0BDE8F081206936A1CE
:1043E00038E000BF206949F25031C0F6000131E0E9
:1043F000206949F25031C0F600012BE0002630461A
:1044000002B0BDE8F08100BF0020AC469CF800106F
:10441000074641B120692DA11CE000BF013702E031
:10442000023700E0033720463A460023002601F019
:1044300093FA00283FF49DAE0FB32368FBB1E06808
:10444000C01902D2A168884214D9206949F25031BA
:10445000C0F60001002818BF014621610026304641
:1044600002B0BDE8F08100BF206949F2D821C0F652
:104470000001EFE7204629463A46984740B1E068F8
:1044800001263844E060304602B0BDE8F08100BF4C
:10449000206949F2D821C0F60001DBE7696E766138
:1044A0006C6964206669656C642064657363726915
:1044B00070746F72000000007A65726F2D6C656E0B
:1044C00067746820737472696E670000756E746536
:1044D000726D696E6174656420737472696E6700D1
:1044E00062797465732073697A65206578636565A0
:1044F000646564002DE9F04F85B00D46897D044662
:1045000001F03002102A0BD0302A15D1286A298AEE
:104510000088884210D00127384605B0BDE8F08FEA
:10452000286A18B1007838B940E000BF3F2903D8A5
:10453000284600F059FDC8BBEE69A87DB6B100F071
:10454000C001402920D12868C3687BB300202146E0
:104550002A46984750BB20699DA1002818BF0146F4
:1045600021610027384605B0BDE8F08F10F0300F0C
:104570001CD120699AA10027002818BF014621619B
:10458000384605B0BDE8F08F00F03002202A13D184
:104590002A6AB2F80090B9F1000F07D0802913D031
:1045A000A98A894510D9206981A1D6E70127384613
:1045B00005B0BDE8F08F00BF2046294605B0BDE834
:1045C000F04FFFF7BBBD00BF00F00E00062815D26C
:1045D000288A0023C000821C2046002701F0BCF975
:1045E00000283FF499AFA87D00F00F00052859D0AE
:1045F00004285BD14FEA890872E000BF48F6807852
:1046000040F6FF3BC0F600084FF0000A012712E019
:104610003168E961E1B120462946FFF78FFD0028A6
:10462000EE6100F08580688A0AF1010A0644CA45F5
:10463000EE61BFF471AFA87D00F0CE018629E7D00E
:1046400020462946FFF77AFD002871D0EE69EAE797
:1046500000F00F000C2871D22BFA00F1C9076DD0C1
:1046600018F80000298A002340EAC102204601F020
:1046700073F9002800F09580236800208DF8000071
:104680005BB1E068411C73D0A168884270D22046BB
:1046900069460122984700287AD0E0680130E0603E
:1046A000C1E700BF4FEAC9081AE000BFD5F81CA057
:1046B00000266F460496CDE90266CDE900663846CD
:1046C000294600F0BDFF002842D0E869698A01361A
:1046D00008444E45E861F2D3DDF80C80C5F81CA013
:1046E000204642460023002701F036F900283FF417
:1046F00013AF2068002841D0002601270DE000BF3D
:104700002046294600F09CFF90B1E869698A01368D
:1047100008444E45E861BFF4FFAEA87D00F00E00EE
:104720000428EDD12046294600F042FF0028ECD1B4
:104730000027384605B0BDE8F08F00BF206949F278
:104740008321C0F60001002818BF0146216128E03E
:10475000049920691CA2002918BF0A46002818BF26
:10476000024622610027384605B0BDE8F08F00BF41
:10477000206949F25031C0F600010EE020460021C8
:10478000424601F0D3FC0746384605B0BDE8F08F3D
:10479000206949F2D821C0F60001002818BF01465F
:1047A0002161EE610027384605B0BDE8F08F00BFFB
:1047B0006172726179206D61782073697A65206514
:1047C0007863656564656400286E6F6E6529000016
:1047D00063616C6C6261636B206572726F72000062
:1047E0006D697373696E672072657175697265644E
:1047F000206669656C64000044F60001C4F20001A3
:104800000A68520609D40A6852065CBF0A685FEA61
:10481000426202D40A685206F2D5C2B24A607047B8
:104820002DE9F04184B0044648F68C02C0F60C0233
:104830000068217902924FF0640802AA0423CDF89F
:104840000080FCF78BF942F62D165027C0F60D16A6
:1048500003AD00BF206821792A4604230396CDF8D2
:104860000080FCF77BF9013FF4D104B0BDE8F08192
:10487000032A88BF7047DFE802F0030B070900BF77
:104880006FF07F02514004E06C3902E02C3900E007
:10489000403980B582B021F00F02090102F10C030A
:1048A00008328DF804308DF8052001F10C02036800
:1048B0008DF8062001F1080201798DF807204FF0EC
:1048C000640C01AA18460423CDF800C0FCF746F991
:1048D00002B0BDE88040704770B582B00446322017
:1048E000FBF7D2FE43F63C0620682179C0F60C06A1
:1048F000642501AA042301960095FCF72FF90520F1
:10490000FBF7C2FE2068217901AA042301960095D5
:10491000FCF724F90120FBF7B7FE2068217901AAF2
:10492000042301960095FCF719F90A20FBF7ACFE69
:1049300042F62C02C0F60C0220682179019201AAED
:1049400004230095FCF70AF90A20FBF79DFE42F6C6
:104950002C02C8F68C0220682179019201AA042356
:104960000095FCF7FBF80120FBF78EFE40F60C02E9
:10497000C8F68C0220682179019201AA04230095CF
:10498000FCF7ECF80120FBF77FFE40F60C02C1F6C5
:104990001C0220682179019201AA04230095FCF7EA
:1049A000DDF80220FBF770FE40F60C02C6F66C0242
:1049B00020682179019201AA04230095FCF7CEF822
:1049C0000120FBF761FE40F60C02CCF6CC02206819
:1049D0002179019201AA04230095FCF7BFF802B0E7
:1049E00070BD0000F0B583B00A7802B304464E1ED5
:1049F000642702AD22F00F00110100F10D02093011
:104A00008DF8090001F10D008DF808208DF80A00DD
:104A100001F10902206821798DF80B202A46042330
:104A20000097FCF79BF8B2780136002AE2D103B078
:104A3000F0BD0000F0B5D0F800C0B0F808E0BCF858
:104A40001020964579D2DCF80010448951F82430C2
:104A500003F003051E0A022D86750DD0012D17D017
:104A600035BB01218182C3F385010182C3F3036455
:104A7000C3F307451E0F26E001EB84010E1D70CE27
:104A8000190C81829908A70861F305071AE000BF95
:104A900001EB84014968C3F30B4484829C088D0DAB
:104AA00064F3050505821C0F8DB2C1F30B460AE0C5
:104AB00001EB84010F1DF0CF87829908A70861F3ED
:104AC0000507E4B207824768C3F3072146823FB176
:104AD0003D44260685610DD063B2EB1A1BE000BF92
:104AE00000238361036201F00E0108291FD0002119
:104AF00022E000BF03F44053B3F5005F0AD141F058
:104B0000800303F0C003802B0CBF00F114030023CB
:104B100001E000BF002301F0C0040362802C12BF3B
:104B2000C5612B68C36101F00E010829DFD1DCF8F3
:104B30000410C38951F8231041620020964538BF04
:104B40000120F0BD94B0FCF789FA08AC201D2C219F
:104B5000FBF792FB002543F640000795CDE905558C
:104B6000CDE903550295C4F202000168012241F02B
:104B700080510160006800F080500290029847F276
:104B800000000295C4F20000016862F38F310160F9
:104B9000006800F440400290029802200890102023
:104BA0000C9020460B920E95FCF718FC20B1EFF309
:104BB000108072B6FEE700BF0F20CDE9030503A801
:104BC0000021CDE905550795FCF7FAFA20B1EFF37E
:104BD000108072B6FEE700BFFEF782F8FEF7DEF93E
:104BE000FEF79AF9FEF760F9FEF7BAF908200421FA
:104BF0000022042700F056F90320012100224FF083
:104C00000308012402F05AFF40F21805C2F2000521
:104C1000686103200121002202F050FF28610A2070
:104C20000121002202F04AFFA8610A20112100227E
:104C300002F044FF686001200021032202F03EFFE1
:104C4000A86001200021032202F038FFE86005F18E
:104C50001C00019046F66D40C0F600003FA1802286
:104C60000023009703F088FC46F6B17005F120069A
:104C7000C0F600003BA14FF480720023009701961C
:104C800003F07AFC47F2110005F12407C0F600009A
:104C900035A14FF480720023CDF80080019703F016
:104CA0006BFC05F12800019046F689400226C0F60B
:104CB00000002FA14FF480720023009603F05CFCEB
:104CC00047F2D90005F12C07C0F600002AA1802286
:104CD00000230096019703F04FFC05F1300001908E
:104CE00046F64170C0F6000025A180220023009402
:104CF00003F042FC05F13400019046F67160C0F605
:104D0000000020A14FF480720023009403F034FCD3
:104D100005F13800019043F26920C0F600001AA1A5
:104D20004FF400720023009403F026FC43F2152098
:104D300005F13C07C0F6000015A14FF400720023F6
:104D40000094019703F018FC02F000FD00F034F825
:104D5000FDF7B4FF00F044F8FEE700BF49734F7061
:104D6000656E000050495200524649440000000060
:104D70004B6579706164000052656C6179000000D8
:104D80004C4544004C43440054785461736B00001C
:104D900052785461736B0000EFF3058100291CBF4A
:104DA0006FF005007047002804BF0020704780B5F1
:104DB00002F0B0FB002080BDEFF3058000281CBF8F
:104DC0006FF00500704740F28010C2F200000168E9
:104DD000002911BF4FF0FF30012101600020704712
:104DE00010B5EFF3058000281CBF6FF0050010BD63
:104DF00040F28010C2F20000016801291CBF4FF090
:104E0000FF3010BD4EF61F51CEF2000100240C7091
:104E10000221016002F09AFC204610BD10B582B05C
:104E20001C46B0FA80F3B1FA81F25B095209EFF344
:104E3000058CBCF1000F42EA030219D0002C18BF08
:104E40000124224315D10022019201AA03F0E2F9C4
:104E500001281BD10198B0B14EF60450CEF20000EB
:104E60004FF080510160BFF34F8FBFF36F8F0AE0A7
:104E700022B16FF0030002B010BD00BF224603F064
:104E8000F7F8012806D1002002B010BD6FF0020033
:104E900002B010BD6FF00100002C08BF6FF00200DF
:104EA00002B010BD70B582B0154600294FF0000465
:104EB000EFF3058218BF002802D1204602B070BD72
:104EC000002AFAD1B5B1D5E902321BB3502A26D354
:104ED0002A6922B36E6901FB00F4A6424FF0000478
:104EE000EBD3009402F02EFE06460028E5D02C6895
:104EF00007E000BF0022002402F0E0FD0646002883
:104F0000DBD03046214602F083FA3446204602B018
:104F100070BD00BF1AB92A690AB96A6922B10024B2
:104F2000204602B070BD00BF0022002402F0C6FD82
:104F300006460028DBD1C0E72DE9F04184B08E465B
:104F400000240394EFF3058150B149B94FF00004F8
:104F500052B19369002B08BF1823382B16D90024AF
:104F6000204604B0BDE8F08180251823002103AF5E
:104F70000093AAB27346019703F0FEFA0399012841
:104F800008BF0C46204604B0BDE8F0811179C9077E
:104F900024D15769D2E902864FEA970C1168002F95
:104FA000654608BF8025B8F1000F13D05C2E15D3DD
:104FB00012690024002A18BF002FD1D0CDE9003299
:104FC00062467346CDF8088003F006FB04B0BDE8E6
:104FD000F08100BF16B91269002AC8D0002420460B
:104FE00004B0BDE8F0810000B0B58AB0827D014612
:104FF00002F0C000802813D0402817D000283AD1F2
:10500000C2F301130020DFE803F0202B030300BFED
:10501000086A0088B0FA80F040090AB0B0BD00BF4D
:10502000C869B0FA80F040090AB0B0BD02F00F00C4
:105030000A280DD0086845F27552C068C0F6000213
:10504000904205D0B0FA80F040090AB0B0BD00BF70
:10505000C8690068B0FA80F040090AB0B0BD00BF6E
:10506000086A28B10078B0FA80F040090AB0B0BDF3
:105070000868806810B100200AB0B0BD02F00F00CF
:10508000052825D84A8A002A3FD0C8690178002916
:10509000F1D1C2F1000CA2F1010E00218E4541D0E8
:1050A00043185C78002C3FD10CEB0104A51C3FD0C9
:1050B0009D78002D3ED1E51C40D0DD78002D3FD1FC
:1050C000043401F104013DD01B79002BE6D039E016
:1050D000821F052A4FF00000B7D8DFE802F0191B45
:1050E0000505031DB1E700BFCA69496A684600F0BB
:1050F00021FD50B16C462046FFF776FF0028BAD05C
:10510000204600F011FE0028F5D101200AB0B0BD04
:10511000C8697EE7C869A5E7488AB0FA80F0400907
:105120000AB0B0BD01310DE041F001010AE000BF5D
:10513000023107E041F0020104E000BF033101E069
:1051400041F003010020914228BF01200AB0B0BD08
:10515000002300F001B800002DE9F04F9DB0044697
:10516000002006AFADF84A00CDE9100038461D46D4
:1051700000F0E0FCE90706D128B106A800F010FE17
:10518000002800F0D980A068002800F0F98007F11D
:1051900014000390002004904FF0000900204FF607
:1051A000FF780195029000208DF81700204613A982
:1051B0000DF1170200F038F9002800F0C3801398B1
:1051C000C60800F0C78000F0070B3846314600F0F3
:1051D00009FD28B19DF82E0000F00F010A2911D118
:1051E000049828B14F468642049054D298E000BFFC
:1051F000384600F053FD002844D00D980768BDF8EC
:10520000280041E000F0300120291BD10E99039ABB
:10521000914217D1BDF82010884510D04FF6FF728B
:10522000904505D0BDF84A20029B9A4240F0A180EB
:105230000022ADF84A20BDF82C20884602920DF1DC
:105240004A010E9110F0300F0FD1BDF824103F2904
:105250000BD801F01F02490910AD55F82130012685
:1052600006FA02F21A4345F8212010F0C0004DD092
:10527000402840F0B380204659463A46FEF708FDE4
:1052800053E000BF00204F46002F08BF4FF0FF3013
:105290008642049044D3002F42D0D4F808A0B946E7
:1052A00009E000BF2046394632465B46A847002841
:1052B0004BD0BF6887B3A06882452ED13868056897
:1052C000002DEFD113A8394600F04CFC002800F067
:1052D0008180BDF85C008642EBD114980028E8D0AC
:1052E000012038739DF8620010F0C00008D04028FB
:1052F00074D12046594613AAFEF7CAFCD7E700BF6F
:105300002046594613AAFEF763FED0E720465946C9
:105310003A46FEF75DFE08E0A06882454F4605D19B
:1053200020465946B94600F05DFE70B1A06806AF50
:1053300000287FF438AF13E0E06849F2E121C0F6BD
:10534000000158E09DF8170050B900201DB0BDE8DD
:10535000F08F00BF0198400702D4E0682FA14AE017
:105360004FF6FF7080450BD0BDF84A000299884285
:1053700006D0E06849F25021C0F600013BE000BFD2
:105380000698418AA1B14029084628BF402020281C
:1053900012D210F01F010BD0400910AA52F82000C1
:1053A000C1F120014FF0FF3222FA01F188420BD106
:1053B00001201DB0BDE8F08F109A013204D14029C0
:1053C000E7D311990131E4D0E06849F23921C0F600
:1053D000000110E0E0680CA10DE000BF802805D1BD
:1053E000E06849F21031C0F6000104E0E06849F2DB
:1053F0008321C0F60001002818BF0146E1600020AB
:105400001DB0BDE8F08F00BF696E76616C696420E5
:10541000657874656E73696F6E0000007A65726FEF
:1054200020746167000000002DE9F04182B004465D
:1054300080681646A0B123680D460DF1070120468D
:1054400001229847C0B19DF80770A06879B2013871
:10545000B1F1FF3FA0602BDD01202F601FE000BFF6
:10546000E06849F2CA21C0F60001002818BF0146D1
:10547000E16001210DE000BFD4E9020149F2D82228
:10548000C0F60002B0FA80F0002918BF0A464109B0
:10549000E260002E4FF0000018BF002902D102B0D8
:1054A000BDE8F08101203070002002B0BDE8F0813D
:1054B00007F07F0707260DF1070808E001F07F02DB
:1054C000B240174349B2002906F10706C4D50028A7
:1054D0003CD02368204641460122984700283BD013
:1054E000A068202EA0F10100A06015D39DF8071040
:1054F0004A061FD0002F4FF000024FF0010348BFB3
:1055000001223F2E38BFFF235B1AB3FA83F35B09F6
:105510001A403F2E11D912E09DF807101C2ECDD154
:1055200011F0700F03D001F07802782A07D147EA12
:105530000177C7E701223F2E01D8002AC2D1E068D7
:1055400049F23131C0F600010BE000BFE06849F2DA
:10555000CA21C0F6000104E0E06849F2D821C0F693
:105560000001002818BF0146E160002002B0BDE83C
:10557000F0810000538A082B18D1D369B3B148B128
:10558000D3F800C0BCF1000F04D0043311461A4612
:10559000604700BF51B1D3F800C0BCF1000F05D087
:1055A0000433084611461A46604700BF0120704781
:1055B00010B54A8A0446082A16D0042A24D1236842
:1055C00063B1E06810F1050F18D8A268043090426A
:1055D00014D8C96920460422984758B3E0680430BB
:1055E000E060012010BD00BF2368F3B1E06810F156
:1055F000090F03D8A2680830904211D9206949F2F6
:105600005031C0F6000104E0206949F2B821C0F62B
:105610000001002818BF01460020216110BD00BF15
:10562000C96920460822984720B1E0680830E06048
:10563000012010BD206949F2D821C0F60001E8E739
:105640008A7D02F00F0C4A8ABCF1020FA2F101021E
:105650000ED1072A18D8DFE802F0052317291717FB
:10566000172F00BFC96900230A7800F075B900BF81
:10567000072A09D8DFE802F00426082A0808082EBD
:10568000C96991F9002023E0016949F2B822C0F606
:105690000002002918BF0A4602610020704700BFBF
:1056A000C96900230A8800F057B900BFC9690023FF
:1056B0000A6800F051B900BFC969D1E9002300F0C0
:1056C0004BB900BFC969B1F9002001E0C9690A6896
:1056D000D31702E0C969D1E90023BCF1030F18BF59
:1056E00000F03AB9590041EAD271520082EAE372FD
:1056F00081EAE37300F030B9F0B595B0044601A833
:1057000000F024FA60B30BAD01AE08E0204631464C
:10571000FEF7F0FE88B3304600F006FB00B39DF8BC
:105720001A0000F00F000A28F0D108980768002F2F
:10573000F1D000BF3868426822B120463946904710
:1057400050B91AE02846394600F02CFA60B12046DC
:105750002946FEF7CFFE80B1BF68002FEAD1DAE715
:10576000012015B0F0BD00BF206949F25C31C0F6E0
:105770000001002818BF01462161002015B0F0BDCE
:105780002DE9F0479AB08046002506A891468A4642
:105790000595CDE90355CDE9015500F0D7F900286D
:1057A0003FD010AD01AC06AE09E000BF2046314647
:1057B000FEF7A0FE78B3304600F0B6FA80B39DF84D
:1057C0002E0000F00F000A28F0D10D98076847B9A5
:1057D000F1E700BF204639469047E0B1BF68002F8F
:1057E000E9D038684268002AF4D12846394600F0EA
:1057F000D9F938B120462946FEF77CFE0028EDD1C4
:1058000009E000BF059849F25C31C0F600010028AC
:1058100018BF0146059105980024C8F8100081E0E2
:10582000049D40462A460023002400F095F80028F5
:1058300078D0D8F80000D8F80C102944A0B1D8F8D6
:105840000820914218D9D8F8100049F25031C0F61A
:105850000001002818BF0146C8F810100024204697
:105860001AB0BDE8F08700BFC8F80C10012420462C
:105870001AB0BDE8F08700BF01AAD8F8041023C20F
:105880000020CDE9040006A851464A4600F05EF922
:1058900070B310AC01AE0DF1180908E0304649466E
:1058A000FEF728FE78B3484600F03EFA00B39DF8B4
:1058B0002E0000F00F000A28F0D10D98076804E0D0
:1058C000304639469047F0B1BF68002FEBD03868BA
:1058D0004268002AF4D12046394600F063F948B105
:1058E00030462146FEF706FE0028EDD10BE000BF52
:1058F000012409E0059849F25C31C0F60001002856
:1059000018BF014605910024D8F80C10DDE90430D9
:10591000029A1944AB42C8F80420C8F80C10C8F821
:10592000100003D120461AB0BDE8F08705A100247D
:10593000002818BF0146C8F8101020461AB0BDE86C
:10594000F08700BF7375626D73672073697A652095
:105950006368616E67656400F0B583B0D2F17F0162
:105960004FF000019941074618D33B688DF801209C
:105970006BB1F868411C53D0B968884250D20DF120
:105980000101384601229847002800F08780F86816
:105990000130F860012003B0F0BD00BF002B4FEADA
:1059A000D21143D042F080008DF8020041F0800017
:1059B0008DF80300802040EA92318DF80410110F19
:1059C00040EA5250DA0863F306118DF805004FD013
:1059D00007200DF1020300BF41F080041918D5091A
:1059E00001F8034C52D042F08006940B01F8026C8F
:1059F0005AD045F08006550D01F8016C5ED044F098
:105A00008001195405F07F01120F00F10400E3D169
:105A10000338451C0DF10202115456D383E000BF38
:105A2000386949F25031C0F600015BE0802A23D387
:105A300042F08000B2F5804F8DF8020066D341F04D
:105A400080008DF80300900BB2F5001F40EA8341FF
:105A50005ED341F080008DF80400500DB2F1805FFC
:105A600040EAC32156D341F08000110F8DF80500A4
:105A700005258DF8061028E0002002F07F01451C66
:105A80000DF10202115420D34DE000BF023811463F
:105A9000451C0DF10202115417D344E0386949F254
:105AA000D821C0F600011DE005F07F010138451C3A
:105AB0000DF10202115408D335E000BF04F07F015C
:105AC000451C0DF1020211542DD23B6863B3F868F6
:105AD000401902D2B96888420CD9386949F250316C
